{"abi":[{"type":"constructor","inputs":[{"name":"initialOwner","type":"address","internalType":"address"},{"name":"_sortifyToken","type":"address","internalType":"address"},{"name":"_recyclingBadge","type":"address","internalType":"address"},{"name":"_collectorLock","type":"address","internalType":"address"},{"name":"_recyclerLock","type":"address","internalType":"address"},{"name":"_verifierLock","type":"address","internalType":"address"}],"stateMutability":"nonpayable"},{"type":"function","name":"COLLECTOR_REWARD_PERCENTAGE","inputs":[],"outputs":[{"name":"","type":"uint256","internalType":"uint256"}],"stateMutability":"view"},{"type":"function","name":"USER_REWARD_PERCENTAGE","inputs":[],"outputs":[{"name":"","type":"uint256","internalType":"uint256"}],"stateMutability":"view"},{"type":"function","name":"VERIFIER_REWARD_PERCENTAGE","inputs":[],"outputs":[{"name":"","type":"uint256","internalType":"uint256"}],"stateMutability":"view"},{"type":"function","name":"acceptCollectionRequest","inputs":[{"name":"requestId","type":"uint256","internalType":"uint256"}],"outputs":[],"stateMutability":"nonpayable"},{"type":"function","name":"addProcessedWaste","inputs":[{"name":"recycler","type":"address","internalType":"address"},{"name":"wasteType","type":"string","internalType":"string"},{"name":"amount","type":"uint256","internalType":"uint256"}],"outputs":[],"stateMutability":"nonpayable"},{"type":"function","name":"collectedWaste","inputs":[{"name":"","type":"address","internalType":"address"},{"name":"","type":"string","internalType":"string"}],"outputs":[{"name":"","type":"uint256","internalType":"uint256"}],"stateMutability":"view"},{"type":"function","name":"collectionRequests","inputs":[{"name":"","type":"uint256","internalType":"uint256"}],"outputs":[{"name":"id","type":"uint256","internalType":"uint256"},{"name":"requester","type":"address","internalType":"address"},{"name":"location","type":"string","internalType":"string"},{"name":"latitude","type":"int256","internalType":"int256"},{"name":"longitude","type":"int256","internalType":"int256"},{"name":"pendingReward","type":"uint256","internalType":"uint256"},{"name":"status","type":"uint8","internalType":"enum SortifyEcosystem.CollectionStatus"},{"name":"assignedCollector","type":"address","internalType":"address"},{"name":"verifier","type":"address","internalType":"address"},{"name":"requestedAt","type":"uint256","internalType":"uint256"},{"name":"acceptedAt","type":"uint256","internalType":"uint256"},{"name":"completedAt","type":"uint256","internalType":"uint256"},{"name":"verifiedAt","type":"uint256","internalType":"uint256"},{"name":"notes","type":"string","internalType":"string"}],"stateMutability":"view"},{"type":"function","name":"collectorAssignments","inputs":[{"name":"","type":"address","internalType":"address"},{"name":"","type":"uint256","internalType":"uint256"}],"outputs":[{"name":"","type":"uint256","internalType":"uint256"}],"stateMutability":"view"},{"type":"function","name":"collectorLock","inputs":[],"outputs":[{"name":"","type":"address","internalType":"contract IPublicLock"}],"stateMutability":"view"},{"type":"function","name":"completeCollection","inputs":[{"name":"requestId","type":"uint256","internalType":"uint256"}],"outputs":[],"stateMutability":"nonpayable"},{"type":"function","name":"createListing","inputs":[{"name":"wasteType","type":"string","internalType":"string"},{"name":"quantity","type":"uint256","internalType":"uint256"},{"name":"price","type":"uint256","internalType":"uint256"}],"outputs":[],"stateMutability":"nonpayable"},{"type":"function","name":"getAvailableRequests","inputs":[{"name":"offset","type":"uint256","internalType":"uint256"},{"name":"limit","type":"uint256","internalType":"uint256"}],"outputs":[{"name":"","type":"uint256[]","internalType":"uint256[]"}],"stateMutability":"view"},{"type":"function","name":"getCollectionRequest","inputs":[{"name":"requestId","type":"uint256","internalType":"uint256"}],"outputs":[{"name":"","type":"tuple","internalType":"struct SortifyEcosystem.CollectionRequest","components":[{"name":"id","type":"uint256","internalType":"uint256"},{"name":"requester","type":"address","internalType":"address"},{"name":"wasteItems","type":"tuple[]","internalType":"struct SortifyEcosystem.WasteItem[]","components":[{"name":"wasteType","type":"uint8","internalType":"enum SortifyEcosystem.WasteType"},{"name":"amount","type":"uint256","internalType":"uint256"}]},{"name":"location","type":"string","internalType":"string"},{"name":"latitude","type":"int256","internalType":"int256"},{"name":"longitude","type":"int256","internalType":"int256"},{"name":"pendingReward","type":"uint256","internalType":"uint256"},{"name":"status","type":"uint8","internalType":"enum SortifyEcosystem.CollectionStatus"},{"name":"assignedCollector","type":"address","internalType":"address"},{"name":"verifier","type":"address","internalType":"address"},{"name":"requestedAt","type":"uint256","internalType":"uint256"},{"name":"acceptedAt","type":"uint256","internalType":"uint256"},{"name":"completedAt","type":"uint256","internalType":"uint256"},{"name":"verifiedAt","type":"uint256","internalType":"uint256"},{"name":"notes","type":"string","internalType":"string"}]}],"stateMutability":"view"},{"type":"function","name":"getCollectorAssignments","inputs":[{"name":"collector","type":"address","internalType":"address"}],"outputs":[{"name":"","type":"uint256[]","internalType":"uint256[]"}],"stateMutability":"view"},{"type":"function","name":"getUserProfile","inputs":[{"name":"user","type":"address","internalType":"address"}],"outputs":[{"name":"isCollector","type":"bool","internalType":"bool"},{"name":"isRecycler","type":"bool","internalType":"bool"},{"name":"isVerifier","type":"bool","internalType":"bool"},{"name":"reputation","type":"uint256","internalType":"uint256"},{"name":"tokenBalance","type":"uint256","internalType":"uint256"},{"name":"totalRequests","type":"uint256","internalType":"uint256"},{"name":"badgeCount","type":"uint256","internalType":"uint256"}],"stateMutability":"view"},{"type":"function","name":"getUserRequests","inputs":[{"name":"user","type":"address","internalType":"address"}],"outputs":[{"name":"","type":"uint256[]","internalType":"uint256[]"}],"stateMutability":"view"},{"type":"function","name":"listings","inputs":[{"name":"","type":"uint256","internalType":"uint256"}],"outputs":[{"name":"id","type":"uint256","internalType":"uint256"},{"name":"seller","type":"address","internalType":"address"},{"name":"wasteType","type":"string","internalType":"string"},{"name":"quantity","type":"uint256","internalType":"uint256"},{"name":"price","type":"uint256","internalType":"uint256"},{"name":"active","type":"bool","internalType":"bool"},{"name":"createdAt","type":"uint256","internalType":"uint256"}],"stateMutability":"view"},{"type":"function","name":"nextListingId","inputs":[],"outputs":[{"name":"","type":"uint256","internalType":"uint256"}],"stateMutability":"view"},{"type":"function","name":"nextRequestId","inputs":[],"outputs":[{"name":"","type":"uint256","internalType":"uint256"}],"stateMutability":"view"},{"type":"function","name":"owner","inputs":[],"outputs":[{"name":"","type":"address","internalType":"address"}],"stateMutability":"view"},{"type":"function","name":"pause","inputs":[],"outputs":[],"stateMutability":"nonpayable"},{"type":"function","name":"paused","inputs":[],"outputs":[{"name":"","type":"bool","internalType":"bool"}],"stateMutability":"view"},{"type":"function","name":"processedWaste","inputs":[{"name":"","type":"address","internalType":"address"},{"name":"","type":"string","internalType":"string"}],"outputs":[{"name":"","type":"uint256","internalType":"uint256"}],"stateMutability":"view"},{"type":"function","name":"purchaseListing","inputs":[{"name":"listingId","type":"uint256","internalType":"uint256"},{"name":"quantityToBuy","type":"uint256","internalType":"uint256"}],"outputs":[],"stateMutability":"nonpayable"},{"type":"function","name":"purchaseMembership","inputs":[{"name":"membershipType","type":"uint8","internalType":"enum SortifyEcosystem.MembershipType"}],"outputs":[],"stateMutability":"payable"},{"type":"function","name":"recyclerLock","inputs":[],"outputs":[{"name":"","type":"address","internalType":"contract IPublicLock"}],"stateMutability":"view"},{"type":"function","name":"recyclingBadge","inputs":[],"outputs":[{"name":"","type":"address","internalType":"contract RecyclingBadge"}],"stateMutability":"view"},{"type":"function","name":"renounceOwnership","inputs":[],"outputs":[],"stateMutability":"nonpayable"},{"type":"function","name":"requestWasteCollection","inputs":[{"name":"wasteItems","type":"tuple[]","internalType":"struct SortifyEcosystem.WasteItem[]","components":[{"name":"wasteType","type":"uint8","internalType":"enum SortifyEcosystem.WasteType"},{"name":"amount","type":"uint256","internalType":"uint256"}]},{"name":"location","type":"string","internalType":"string"},{"name":"latitude","type":"int256","internalType":"int256"},{"name":"longitude","type":"int256","internalType":"int256"},{"name":"notes","type":"string","internalType":"string"}],"outputs":[],"stateMutability":"nonpayable"},{"type":"function","name":"sortifyToken","inputs":[],"outputs":[{"name":"","type":"address","internalType":"contract SortifyToken"}],"stateMutability":"view"},{"type":"function","name":"transferOwnership","inputs":[{"name":"newOwner","type":"address","internalType":"address"}],"outputs":[],"stateMutability":"nonpayable"},{"type":"function","name":"unpause","inputs":[],"outputs":[],"stateMutability":"nonpayable"},{"type":"function","name":"updateWasteRewardRate","inputs":[{"name":"wasteType","type":"string","internalType":"string"},{"name":"newRate","type":"uint256","internalType":"uint256"}],"outputs":[],"stateMutability":"nonpayable"},{"type":"function","name":"userReputation","inputs":[{"name":"","type":"address","internalType":"address"}],"outputs":[{"name":"","type":"uint256","internalType":"uint256"}],"stateMutability":"view"},{"type":"function","name":"userRequests","inputs":[{"name":"","type":"address","internalType":"address"},{"name":"","type":"uint256","internalType":"uint256"}],"outputs":[{"name":"","type":"uint256","internalType":"uint256"}],"stateMutability":"view"},{"type":"function","name":"verifierLock","inputs":[],"outputs":[{"name":"","type":"address","internalType":"contract IPublicLock"}],"stateMutability":"view"},{"type":"function","name":"verifyCollection","inputs":[{"name":"requestId","type":"uint256","internalType":"uint256"},{"name":"approved","type":"bool","internalType":"bool"},{"name":"verificationNotes","type":"string","internalType":"string"}],"outputs":[],"stateMutability":"nonpayable"},{"type":"function","name":"wasteRewardRates","inputs":[{"name":"","type":"string","internalType":"string"}],"outputs":[{"name":"","type":"uint256","internalType":"uint256"}],"stateMutability":"view"},{"type":"event","name":"CollectionAccepted","inputs":[{"name":"requestId","type":"uint256","indexed":true,"internalType":"uint256"},{"name":"collector","type":"address","indexed":true,"internalType":"address"}],"anonymous":false},{"type":"event","name":"CollectionCancelled","inputs":[{"name":"requestId","type":"uint256","indexed":true,"internalType":"uint256"},{"name":"reason","type":"string","indexed":false,"internalType":"string"}],"anonymous":false},{"type":"event","name":"CollectionCompleted","inputs":[{"name":"requestId","type":"uint256","indexed":true,"internalType":"uint256"},{"name":"collector","type":"address","indexed":true,"internalType":"address"}],"anonymous":false},{"type":"event","name":"CollectionRequested","inputs":[{"name":"requestId","type":"uint256","indexed":true,"internalType":"uint256"},{"name":"requester","type":"address","indexed":true,"internalType":"address"},{"name":"pendingReward","type":"uint256","indexed":false,"internalType":"uint256"}],"anonymous":false},{"type":"event","name":"CollectionVerified","inputs":[{"name":"requestId","type":"uint256","indexed":true,"internalType":"uint256"},{"name":"verifier","type":"address","indexed":true,"internalType":"address"},{"name":"userReward","type":"uint256","indexed":false,"internalType":"uint256"},{"name":"collectorReward","type":"uint256","indexed":false,"internalType":"uint256"},{"name":"verifierReward","type":"uint256","indexed":false,"internalType":"uint256"}],"anonymous":false},{"type":"event","name":"ListingCreated","inputs":[{"name":"listingId","type":"uint256","indexed":true,"internalType":"uint256"},{"name":"seller","type":"address","indexed":true,"internalType":"address"},{"name":"wasteType","type":"string","indexed":false,"internalType":"string"},{"name":"quantity","type":"uint256","indexed":false,"internalType":"uint256"},{"name":"price","type":"uint256","indexed":false,"internalType":"uint256"}],"anonymous":false},{"type":"event","name":"ListingPurchased","inputs":[{"name":"listingId","type":"uint256","indexed":true,"internalType":"uint256"},{"name":"buyer","type":"address","indexed":true,"internalType":"address"},{"name":"seller","type":"address","indexed":true,"internalType":"address"},{"name":"quantity","type":"uint256","indexed":false,"internalType":"uint256"},{"name":"totalPrice","type":"uint256","indexed":false,"internalType":"uint256"}],"anonymous":false},{"type":"event","name":"MembershipPurchased","inputs":[{"name":"user","type":"address","indexed":true,"internalType":"address"},{"name":"lock","type":"address","indexed":true,"internalType":"address"},{"name":"membershipType","type":"uint256","indexed":false,"internalType":"uint256"}],"anonymous":false},{"type":"event","name":"OwnershipTransferred","inputs":[{"name":"previousOwner","type":"address","indexed":true,"internalType":"address"},{"name":"newOwner","type":"address","indexed":true,"internalType":"address"}],"anonymous":false},{"type":"event","name":"Paused","inputs":[{"name":"account","type":"address","indexed":false,"internalType":"address"}],"anonymous":false},{"type":"event","name":"RecyclingBadgeMinted","inputs":[{"name":"recycler","type":"address","indexed":true,"internalType":"address"},{"name":"badgeId","type":"uint256","indexed":true,"internalType":"uint256"},{"name":"listingId","type":"uint256","indexed":true,"internalType":"uint256"}],"anonymous":false},{"type":"event","name":"ReputationUpdated","inputs":[{"name":"user","type":"address","indexed":true,"internalType":"address"},{"name":"newReputation","type":"uint256","indexed":false,"internalType":"uint256"}],"anonymous":false},{"type":"event","name":"Unpaused","inputs":[{"name":"account","type":"address","indexed":false,"internalType":"address"}],"anonymous":false},{"type":"error","name":"EnforcedPause","inputs":[]},{"type":"error","name":"ExpectedPause","inputs":[]},{"type":"error","name":"OwnableInvalidOwner","inputs":[{"name":"owner","type":"address","internalType":"address"}]},{"type":"error","name":"OwnableUnauthorizedAccount","inputs":[{"name":"account","type":"address","internalType":"address"}]},{"type":"error","name":"ReentrancyGuardReentrantCall","inputs":[]}],"bytecode":{"object":"0x60803461025e57601f6132b538819003918201601f19168301916001600160401b038311848410176102625780849260c09460405283398101031261025e5761004781610276565b9061005460208201610276565b9061006160408201610276565b9261006e60608301610276565b9161008760a061008060808401610276565b9201610276565b6001600160a01b0390921692831561024b57674563918244f40000956027955f54958060018060a01b03198816175f556040519660018060a01b03167f8be0079c531659141344cd1fd0a4f28419497f9722a3daafe3b4186f6b6457e05f80a3600180556001600f55600160105560025490610100600160a81b039060081b1690610100600160a81b0319161760025560018060a01b031660018060a01b0319600354161760035560018060a01b031660018060a01b0319600454161760045560018060a01b031660018060a01b0319600554161760055560018060a01b031660018060a01b0319600654161760065566706c617374696360c81b815260078082015220556729a2241af62c00006025604051643830b832b960d91b8152600760058201522055673782dace9d900000602560405164676c61737360d81b8152600760058201522055676124fee993bc00006025604051641b595d185b60da1b8152600760058201522055671bc16d674ec800006027604051666f7267616e696360c81b81526007808201522055678ac7230489e80000602a60405169656c656374726f6e696360b01b81526007600a820152205560405161302a908161028b8239f35b631e4fbdf760e01b5f525f60045260245ffd5b5f80fd5b634e487b7160e01b5f52604160045260245ffd5b51906001600160a01b038216820361025e5756fe60806040526004361015610011575f80fd5b5f5f3560e01c8062b395f414611f175780630c945d56146119f957806313c8f2e2146119d1578063263cb6b614611988578063265a5eea1461181e5780633f4ba83a146117b657806348ac2e40146117865780635c975abb14611763578063633b8b4f146116f15780636a84a985146116d35780636b2945e914611368578063715018a61461130e5780637950ca9514610f02578063798b6df314610eab5780637d6a4f2814610e82578063804ee9e714610e2c5780638165d40614610df35780638456cb5914610d985780638da5cb5b14610d7157806397356ebd14610d48578063987ee15614610ab95780639dc7efa114610a905780639f433e0d146109745780639fa7eded14610843578063a21e30691461063f578063a73ce8f4146104f6578063aa09da011461047f578063aaccf1ec14610461578063afada50414610390578063b337cf74146103ef578063cdcb5ca914610395578063d2a540ae14610390578063d78d868014610365578063de74e57b146102c5578063e503bb051461028c578063e51e960314610270578063e5d0088f146102435763f2fde38b146101bb575f80fd5b34610240576020366003190112610240576101d46124bb565b6101dc612fce565b6001600160a01b0316801561022c5781546001600160a01b03198116821783556001600160a01b03167f8be0079c531659141344cd1fd0a4f28419497f9722a3daafe3b4186f6b6457e08380a380f35b631e4fbdf760e01b82526004829052602482fd5b80fd5b503461024057806003193601126102405760025460405160089190911c6001600160a01b03168152602090f35b5034610240578060031936011261024057602060405160508152f35b5034610240576020366003190112610240576020906040906001600160a01b036102b46124bb565b168152600c83522054604051908152f35b5034610240576020366003190112610240576040906004358152600960205220805460018060a01b0360018301541691604051610310816103098160028601612627565b0382612414565b600382015491600481015461034a600660ff600585015416930154936040519788978852602088015260e0604088015260e0870190612591565b9360608601526080850152151560a084015260c08301520390f35b50346102405761038c61038061037a366123c7565b90612c31565b60405191829182612558565b0390f35b6126a8565b5034610240576040366003190112610240576004356001600160401b0381116103eb576103c69036906004016125c2565b6103ce612fce565b806040519283378101906007825260208160243593030190205580f35b5080fd5b5034610240576020366003190112610240576001600160a01b036104116124bb565b168152600a60205260408120604051918260208354918281520192825260208220915b81811061044b5761038c8561038081870382612414565b8254845260209093019260019283019201610434565b50346102405780600319360112610240576020601054604051908152f35b5034610240576060366003190112610240576104996124bb565b602435906001600160401b0382116104f2576104bc6104e09236906004016125c2565b90916104c6612fce565b6001600160a01b03168452600e602052604084209161278b565b6104ed604435825461274a565b905580f35b8280fd5b50346102405760603660031901126102405760243580151581036103eb576044356001600160401b0381116104f25761053390369060040161249d565b600654604051631b63a96d60e21b815233600482015290602090829060249082906001600160a01b03165afa908115610634578491610605575b5080156105f2575b156105955761058e91610586612d93565b6004356127a4565b6001805580f35b60405162461bcd60e51b815260206004820152602f60248201527f4d75737420686176652076616c6964207665726966696572206d656d6265727360448201526e3434b81037b91031329037bbb732b960891b6064820152608490fd5b5082546001600160a01b03163314610575565b610627915060203d60201161062d575b61061f8183612414565b8101906126c3565b5f61056d565b503d610615565b6040513d86823e3d90fd5b50346102405760203660031901126102405760048054604051631b63a96d60e21b8152338184015291359190602090829060249082906001600160a01b03165afa908115610838578391610819575b50156107c85761069c612db3565b80825260086020526040822060078101805460ff811660058110156107b4576107775760081c6001600160a01b031661073f5780546001600160a81b03191633600881901b610100600160a81b03169190911760011790915542600a92909201919091558252600b60205260408220610716908290612757565b33907f4ca6f3c00dcffdca3e82397ce697d95142c3caf36b7a5ba0bca169638dd7cf578380a380f35b60405162461bcd60e51b815260206004820152601060248201526f105b1c9958591e48185cdcda59db995960821b6044820152606490fd5b60405162461bcd60e51b815260206004820152601560248201527452657175657374206e6f7420617661696c61626c6560581b6044820152606490fd5b634e487b7160e01b86526021600452602486fd5b60405162461bcd60e51b8152602060048201526024808201527f4d75737420686176652076616c696420636f6c6c6563746f72206d656d6265726044820152630736869760e41b6064820152608490fd5b610832915060203d60201161062d5761061f8183612414565b5f61068e565b6040513d85823e3d90fd5b50346102405760203660031901126102405760043581526008602052604090208054600160a01b60019003600183015416916040518080600384019061088891612627565b036108939082612414565b600482015490600583015460068401546007850154600160a01b60019003600887015416600987015491600a88015493600b89015495600c8a01549760405180600d819d01906108e291612627565b036108ed908c612414565b6040519c8d9c8d5260208d015260408c016101c090526101c08c0161091191612591565b9860608c015260808b015260a08a015260c0890160ff821690610933916125b5565b60081c6001600160a01b031660e08901526101008801526101208701526101408601526101608501526101808401528281036101a084015261038c91612591565b503461024057602036600319011261024057600435610991612db3565b8082526008602052604082206007810180543360018060a01b038260081c1603610a525760ff166005811015610a3e57600103610a0257600260ff19825416179055600b4291015533907f5b8f4ff6466c898dd461234348588bfc8ca2dbaa93e1785459db7bc3c3a6db1c8380a380f35b60405162461bcd60e51b815260206004820152601460248201527314995c5d595cdd081b9bdd081858d8d95c1d195960621b6044820152606490fd5b634e487b7160e01b85526021600452602485fd5b60405162461bcd60e51b81526020600482015260166024820152752737ba1030b9b9b4b3b732b21031b7b63632b1ba37b960511b6044820152606490fd5b50346102405780600319360112610240576004546040516001600160a01b039091168152602090f35b5034610240576020366003190112610240576024610ad56124bb565b60048054604051631b63a96d60e21b81526001600160a01b03938416928101839052919491939192602092859290918391165afa918215610d3b578192610d1a575b50600554604051631b63a96d60e21b81526004810185905290602090829060249082906001600160a01b03165afa908115610d0f578291610cf0575b50600654604051631b63a96d60e21b81526004810186905290602090829060249082906001600160a01b03165afa90811561083857906024918491610cd1575b50858452600c602052604084205490602060018060a01b0360025460081c16604051948580926370a0823160e01b82528b60048301525afa928315610cc6578593610c92575b50868552600a602052604085205493602060018060a01b0360035416986024604051809b81936370a0823160e01b835260048301525afa958615610c865795610c4d575b60e09750604051961515875215156020870152151560408601526060850152608084015260a083015260c0820152f35b94506020873d602011610c7e575b81610c6860209383612414565b81010312610c7a5760e0965194610c1d565b5f80fd5b3d9150610c5b565b604051903d90823e3d90fd5b9092506020813d602011610cbe575b81610cae60209383612414565b81010312610c7a5751915f610bd9565b3d9150610ca1565b6040513d87823e3d90fd5b610cea915060203d60201161062d5761061f8183612414565b5f610b93565b610d09915060203d60201161062d5761061f8183612414565b5f610b53565b6040513d84823e3d90fd5b610d3491925060203d60201161062d5761061f8183612414565b905f610b17565b50604051903d90823e3d90fd5b50346102405780600319360112610240576006546040516001600160a01b039091168152602090f35b5034610240578060031936011261024057546040516001600160a01b039091168152602090f35b5034610240578060031936011261024057610db1612fce565b610db9612db3565b600160ff1960025416176002557f62e78cea01bee320cd4e420270b5ea74000d11b0c9f74754ebdbfc544b05a2586020604051338152a180f35b503461024057610e236020916040610e0a366124fa565b6001600160a01b039091168352600e8552912090612539565b54604051908152f35b503461024057602036600319011261024057600435906001600160401b0382116102405760208080610e61366004870161249d565b604051928184925191829101835e8101600781520301902054604051908152f35b50346102405780600319360112610240576003546040516001600160a01b039091168152602090f35b503461024057604036600319011261024057610ec56124bb565b6001600160a01b03168152600b6020526040812080546024359290831015610240576020610ef384846124d1565b90549060031b1c604051908152f35b5034610240576060366003190112610240576004356001600160401b0381116103eb57610f339036906004016125c2565b600554604051631b63a96d60e21b81523360048201529293926044359291602480359291602091839182906001600160a01b03165afa908115610cc65785916112ef575b501561129e57610f85612db3565b338452600e60205280610f9c60408620848861278b565b541061125957338452600e602052610fb860408520838761278b565b610fc3828254612702565b90556010546040519060e082018281106001600160401b038211176112455760405280825260208201338152610ffa36868a612467565b60408481019182526060850186815260808601898152600160a088018181524260c08a01908152978d526009602052938c2097518855945194870180546001600160a01b0319166001600160a01b039690961695909517909455915180519193929160028701916001600160401b0382116112315761107983546125ef565b601f81116111e7575b50602090601f8311600114611157579282600696938e9f9996936111469f967fee9a77e54ddc4ae3475a5616f641d8617975557d8f946292108c2b98c6a7bed39c9a979261114c575b50508160011b915f199060031b1c19161790555b516003860155516004850155600584019051151560ff801983541691161790555191015560105494859385604051936060855281606086015260808501378860808785010152602083015260408201526080813395601f80199101168101030190a361270f565b60105580f35b015190505f806110cb565b838d52818d209190601f1984168e5b8181106111cf5750936111469e9f9996937fee9a77e54ddc4ae3475a5616f641d8617975557d8f946292108c2b98c6a7bed39b9996936001938360069b98106111b7575b505050811b0190556110df565b01515f1960f88460031b161c191690555f80806111aa565b92936020600181928786015181550195019301611166565b838d5260208d20601f840160051c81019160208510611227575b601f0160051c01908d905b82811061121a575050611082565b6001918155018d9061120c565b9091508190611201565b634e487b7160e01b8c52604160045260248cfd5b634e487b7160e01b87526041600452602487fd5b60405162461bcd60e51b815260206004820152601c60248201527f496e73756666696369656e742070726f636573736564207761737465000000006044820152606490fd5b60405162461bcd60e51b815260206004820152602360248201527f4d75737420686176652076616c69642072656379636c6572206d656d6265727360448201526206869760ec1b6064820152608490fd5b611308915060203d60201161062d5761061f8183612414565b5f610f77565b5034610240578060031936011261024057611327612fce565b80546001600160a01b03198116825581906001600160a01b03167f8be0079c531659141344cd1fd0a4f28419497f9722a3daafe3b4186f6b6457e08280a380f35b50346102405760203660031901126102405760606101c060405161138b816123f8565b83815283602082015282604082015282808201528360808201528360a08201528360c08201528360e08201528361010082015283610120820152836101408201528361016082015283610180820152836101a08201520152600435815260086020526040812090604051906113ff826123f8565b8254825260018301546001600160a01b031660208301908152600284018054919491939061142c85612435565b9461143a6040519687612414565b808652602086019185526020852085925b82841061168457505050506040810193845260405192611479846114728160038701612627565b0385612414565b606082019384526004830154936080830194855260058401549660a08401978852600685015460c08501908152600786015460ff811660e087019060058110156116705781526001600160a01b03600892831c811661010089019081529289015416610120880190815260098901546101408901908152600a8a01546101608a01908152600b8b01546101808b01908152600c8c01546101a08c019081526040519c909b919a929993989497949392908d90819061153b908290600d01612627565b0361154591612414565b6101c082019c8d526040519e8f9460208652610200860193516020870152600160a01b6001900390511660408601525193606081016101e090528451809352610220019360200191815b81831061162d5750505050918c60c0819f6115c661038c9f9e9d9c9b9a999897956115e39751601f19868303016080870152612591565b9d5160a0840152519101525160e08d0152516101008c01906125b5565b516001600160a01b039081166101208b01529051166101408901525161016088015251610180870152516101a0860152516101c085015251838203601f19016101e0850152612591565b9091929485518051600681101561165c578260208093604093600196520151838201520196019301919061158f565b634e487b7160e01b84526021600452602484fd5b634e487b7160e01b87526021600452602487fd5b604051611690816123dd565b60ff83541660068110156116bf576001928260209260029452848601548382015281520192019301929061144b565b634e487b7160e01b89526021600452602489fd5b50346102405780600319360112610240576020600f54604051908152f35b5034610240576020366003190112610240576001600160a01b036117136124bb565b168152600b60205260408120604051918260208354918281520192825260208220915b81811061174d5761038c8561038081870382612414565b8254845260209093019260019283019201611736565b5034610240578060031936011261024057602060ff600254166040519015158152f35b503461024057610e23602091604061179d366124fa565b6001600160a01b039091168352600d8552912090612539565b50346102405780600319360112610240576117cf612fce565b60025460ff81161561180f5760ff19166002557f5db9ee0a495bf2e6ff9c91a7834c1ba4fdd244a5e8aa4e537bd38aeae4b073aa6020604051338152a180f35b638dfc202b60e01b8252600482fd5b506020366003190112610c7a576004356003811015610c7a575f908061190b576004546001600160a01b03165b6001600160a01b031691823b15610c7a5760405163ca0158f360e01b81523360048201525f6024820152608060448201525f608482015260a060648201525f60a48201525f8160c48134885af18015611900576118eb575b506118d7576040519081527fd997cc6241868bfa40573e1c8343ef9a15c2bb22d98f98722306720836c1d2d760203392a380f35b634e487b7160e01b83526021600452602483fd5b6118f89194505f90612414565b5f925f6118a3565b6040513d5f823e3d90fd5b5f915060018103611927576005546001600160a01b031661184b565b5f915060028103611943576006546001600160a01b031661184b565b60405162461bcd60e51b815260206004820152601760248201527f496e76616c6964206d656d6265727368697020747970650000000000000000006044820152606490fd5b34610c7a576040366003190112610c7a576119a16124bb565b6001600160a01b03165f908152600a6020526040902080546024359190821015610c7a57602091610ef3916124d1565b34610c7a575f366003190112610c7a576005546040516001600160a01b039091168152602090f35b34610c7a5760a0366003190112610c7a576004356001600160401b038111610c7a5736602382011215610c7a578060040135611a3481612435565b91611a426040519384612414565b8183526024602084019260061b82010190368211610c7a57602401915b818310611ed957836024356001600160401b038111610c7a57611a8690369060040161249d565b6084356001600160401b038111610c7a57611aa590369060040161249d565b90611aae612db3565b825115611e8857600f5491611ac28361270f565b600f555f8381526008602052604090208381556001810180546001600160a01b03191633179055825190926003840191906001600160401b038211611cad578190611b0d84546125ef565b601f8111611e38575b50602090601f8311600114611dd5575f92611dca575b50508160011b915f199060031b1c19161790555b6044356004830155606435600583015560078201805460ff191690554260098301558051600d8301916001600160401b038211611cad578190611b8384546125ef565b601f8111611d7a575b50602090601f8311600114611d16575f92611d0b575b50508160011b915f199060031b1c1916179055905b5f5f9160028401915b8551841015611cc157611bd3848761271d565b518354600160401b811015611cad57806001611bf29201865585612731565b919091611c9a5780516006811015611c865760019160209160ff801986541691161784550151910155611c25848761271d565b51516006811015611c86576001916103e8611c778960208080611c548c611c4e611c7e9a612e93565b9561271d565b51015192604051928184925191829101835e8101600781520301902054906126db565b049061274a565b930192611bc0565b634e487b7160e01b5f52602160045260245ffd5b634e487b7160e01b5f525f60045260245ffd5b634e487b7160e01b5f52604160045260245ffd5b90816006860155335f52600a602052611cdd8160405f20612757565b6040519182527f8ecc4256ab9f0981dc795b2644aa40e0f9b451101ffb2d5a9731e016cdd0111660203393a3005b015190508680611ba2565b5f8581528281209350601f198516905b818110611d625750908460019594939210611d4a575b505050811b01905590611bb7565b01515f1960f88460031b161c19169055868080611d3c565b92936020600181928786015181550195019301611d26565b909150835f5260205f20601f840160051c81019160208510611dc0575b90601f859493920160051c01905b818110611db25750611b8c565b5f8155849350600101611da5565b9091508190611d97565b015190508780611b2c565b5f8581528281209350601f198516905b818110611e205750908460019594939210611e08575b505050811b019055611b40565b01515f1960f88460031b161c19169055878080611dfb565b92936020600181928786015181550195019301611de5565b909150835f5260205f20601f840160051c81019160208510611e7e575b90601f859493920160051c01905b818110611e705750611b16565b5f8155849350600101611e63565b9091508190611e55565b60405162461bcd60e51b8152602060048201526024808201527f4d75737420696e636c756465206174206c65617374206f6e65207761737465206044820152636974656d60e01b6064820152608490fd5b604083360312610c7a5760405190611ef0826123dd565b8335906006821015610c7a5782602092604094528286013583820152815201920191611a5f565b34610c7a57611f25366123c7565b611f2d612d93565b611f35612db3565b815f52600960205260405f2090600582019060ff8254161561238d57600383018181541061235057600554604051631b63a96d60e21b815233600482015290602090829060249082906001600160a01b03165afa908115611900575f91612331575b50156122ec576103e8611fae8360048701546126db565b049260018060a01b0360025460081c16916040516370a0823160e01b8152336004820152602081602481875afa80156119005786915f916122b7575b5010612272575f60206001880194606460018060a01b0387541660405194859384926323b872dd60e01b845233600485015260248401528b60448401525af1908115611900575f91612253575b501561221657602095869282612051876121149554612702565b80915515612208575b506120d760016120698a612dce565b603e866120758a612dce565b6040519c8d947f68747470733a2f2f6170692e736f72746966792e636f6d2f62616467652f0000828701528051918291018587015e840190602f60f81b84830152805192839101603f83015e01015f838201520301601f198101895288612414565b60018060a01b0360035416905f604061212c81519a8b96879563760abca960e11b875233600488015260a06024880152600260a488019101612627565b908a6044870152600319868303016064870152612591565b736d61726b6574706c6163655f707572636861736560601b87858303926003198401608488015260148152015201925af1938415611900575f946121d4575b5060018060a01b03905416916040519182526020820152837f67806fb1f9a1d5258c8ae3101868dc1bbd114cb2c1829b37dbdd88d64cf17d8260403393a4337fb070514fc5bdc417150b086aedcab1673a5e659be2be2d11e62ac95e961287725f80a460018055005b9093506020813d602011612200575b816121f060209383612414565b81010312610c7a5751928561216b565b3d91506121e3565b805460ff191690558861205a565b60405162461bcd60e51b8152602060048201526015602482015274151bdad95b881d1c985b9cd9995c8819985a5b1959605a1b6044820152606490fd5b61226c915060203d60201161062d5761061f8183612414565b88612037565b60405162461bcd60e51b815260206004820152601a60248201527f496e73756666696369656e7420746f6b656e2062616c616e63650000000000006044820152606490fd5b9150506020813d6020116122e4575b816122d360209383612414565b81010312610c7a5785905189611fea565b3d91506122c6565b60405162461bcd60e51b815260206004820152601e60248201527f4d75737420626520612072656379636c657220746f20707572636861736500006044820152606490fd5b61234a915060203d60201161062d5761061f8183612414565b86611f97565b60405162461bcd60e51b8152602060048201526015602482015274496e73756666696369656e74207175616e7469747960581b6044820152606490fd5b60405162461bcd60e51b81526020600482015260126024820152714c697374696e67206e6f742061637469766560701b6044820152606490fd5b6040906003190112610c7a576004359060243590565b604081019081106001600160401b03821117611cad57604052565b6101e081019081106001600160401b03821117611cad57604052565b90601f801991011681019081106001600160401b03821117611cad57604052565b6001600160401b038111611cad5760051b60200190565b6001600160401b038111611cad57601f01601f191660200190565b9291926124738261244c565b916124816040519384612414565b829481845281830111610c7a578281602093845f960137010152565b9080601f83011215610c7a578160206124b893359101612467565b90565b600435906001600160a01b0382168203610c7a57565b80548210156124e6575f5260205f2001905f90565b634e487b7160e01b5f52603260045260245ffd5b906040600319830112610c7a576004356001600160a01b0381168103610c7a5791602435906001600160401b038211610c7a576124b89160040161249d565b6040518151909260209284929081908501845e82019081520301902090565b60206040818301928281528451809452019201905f5b81811061257b5750505090565b825184526020938401939092019160010161256e565b805180835260209291819084018484015e5f828201840152601f01601f1916010190565b906005821015611c865752565b9181601f84011215610c7a578235916001600160401b038311610c7a5760208381860195010111610c7a57565b90600182811c9216801561261d575b602083101461260957565b634e487b7160e01b5f52602260045260245ffd5b91607f16916125fe565b5f9291815491612636836125ef565b808352926001811690811561268b575060011461265257505050565b5f9081526020812093945091925b838310612671575060209250010190565b600181602092949394548385870101520191019190612660565b915050602093945060ff929192191683830152151560051b010190565b34610c7a575f366003190112610c7a576020604051600a8152f35b90816020910312610c7a57518015158103610c7a5790565b818102929181159184041417156126ee57565b634e487b7160e01b5f52601160045260245ffd5b919082039182116126ee57565b5f1981146126ee5760010190565b80518210156124e65760209160051b010190565b80548210156124e6575f5260205f209060011b01905f90565b919082018092116126ee57565b8054600160401b811015611cad57612774916001820181556124d1565b819291549060031b91821b915f19901b1916179055565b6020919283604051948593843782019081520301902090565b90925f90825f52600860205260405f2093600785019560ff8754166005811015611c8657600203612bec5715612b9d5750845460ff191660031785556008840180546001600160a01b0319163317905542600c850155600684015480159590605080820290828204148817156126ee576064900496600a8202918204600a1417156126ee5760025460018701805460649093049890969092909160081c6001600160a01b039081169116813b15610c7a575f9160a4839260405194859384926334ff261960e21b8452600484015288602484015260606044840152601e60648401527f576173746520636f6c6c656374696f6e20726577617264202d2075736572000060848401525af1801561190057612b88575b5060025483546001600160a01b03600892831c8116929190911c16813b15612b84578960c488928360405195869485936334ff261960e21b85526004850152602484015260606044840152602360648401527f576173746520636f6c6c656374696f6e20726577617264202d20636f6c6c65636084840152623a37b960e91b60a48401525af18015612b6057908691612b6f575b505060025460081c6001600160a01b0316803b15612b6b5785809160c48b60405194859384926334ff261960e21b8452336004850152602484015260606044840152602260648401527f576173746520636f6c6c656374696f6e20726577617264202d2076657269666960848401526132b960f11b60a48401525af18015612b6057908691612b47575b505085546001600160a01b03168552600c6020526040852080546001810191908210612b335755825460081c6001600160a01b03168552600c6020526040852080546001810191908210612b33575560029096019695845b8854811015612a92578089612a8a612a826001612a6485612a5e60ff612a56859a89612731565b505416612e93565b95612731565b50015492858060a01b038c54168b52600d60205260408b2090612539565b91825461274a565b905501612a2f565b506040939750907ffc577563f1b9a0461e24abef1e1fcc0d33d3d881f20b5df6dda59de4aae2c82195916020959785519283528087840152858301527fdcf3867f74082cbec514e07b3212616682f0cbafa807bbba2dc1397556eb184760603393a3546001600160a01b0316808652600c845282862054835190815285908590a25460081c6001600160a01b0316808552600c8352932054604051908152a2565b634e487b7160e01b87526011600452602487fd5b81612b5191612414565b612b5c57845f6129d7565b8480fd5b6040513d88823e3d90fd5b8580fd5b81612b7991612414565b612b5c57845f61294d565b8680fd5b612b959195505f90612414565b5f935f6128b9565b90947f2810ef41995f428ad9372bbc64dcf16ff72e55f39d382066e6e2c45d0c0dbf0a939450612be79250600460ff19825416179055604051918291602083526020830190612591565b0390a2565b60405162461bcd60e51b815260206004820152601860248201527f436f6c6c656374696f6e206e6f7420636f6d706c6574656400000000000000006044820152606490fd5b600f5491925f60015b848110612d55575080831015612d385780612c55868561274a565b11612d24575b50612c6584612435565b612c726040519182612414565b848152601f19612c8186612435565b013660208301375f915f9560015b86811080612d1b575b15612d1057805f52600860205260ff600760405f200154166005811015611c865715612ccd575b612cc89061270f565b612c8f565b9385811015612ceb575b612ce3612cc89161270f565b949050612cbf565b96612ce3612d078287612d01612cc8958961271d565b5261270f565b98915050612cd7565b505094509250505090565b50818810612c98565b612d319194508290612702565b925f612c5b565b5092505050604051612d4b602082612414565b5f81525f36813790565b805f52600860205260ff600760405f200154166005811015611c865715612d7f575b600101612c3a565b90612d8b60019161270f565b919050612d77565b600260015414612da4576002600155565b633ee5aeb560e01b5f5260045ffd5b60ff60025416612dbf57565b63d93c066560e01b5f5260045ffd5b8015612e73575f81805b612e5f5750612de68161244c565b90612df46040519283612414565b808252601f19612e038261244c565b013660208401375b80928015612e58575f1982019182116126ee578193600a820660300192836030116126ee57845111156124e657600a9260f81b6001600160f81b0319165f1a908401601f01530491612e0b565b5050905090565b90612e6b600a9161270f565b910480612dd8565b50604051612e82604082612414565b60018152600360fc1b602082015290565b6006811015611c86578015612fa85760018114612f845760028114612f605760038114612f3c5760048114612f1657600514612eee57604051612ed7604082612414565b60078152663ab735b737bbb760c91b602082015290565b604051612efc604082612414565b600a815269656c656374726f6e696360b01b602082015290565b50604051612f25604082612414565b60078152666f7267616e696360c81b602082015290565b50604051612f4b604082612414565b60058152641b595d185b60da1b602082015290565b50604051612f6f604082612414565b6005815264676c61737360d81b602082015290565b50604051612f93604082612414565b60058152643830b832b960d91b602082015290565b50604051612fb7604082612414565b6007815266706c617374696360c81b602082015290565b5f546001600160a01b03163303612fe157565b63118cdaa760e01b5f523360045260245ffdfea2646970667358221220aa3179c1e0384a32dc1599b2baf54bed1dd29a984e835fbbc0dadee615c3b3d564736f6c634300081e0033","linkReferences":{}},"methodIdentifiers":{"COLLECTOR_REWARD_PERCENTAGE()":"d2a540ae","USER_REWARD_PERCENTAGE()":"e51e9603","VERIFIER_REWARD_PERCENTAGE()":"afada504","acceptCollectionRequest(uint256)":"a21e3069","addProcessedWaste(address,string,uint256)":"aa09da01","collectedWaste(address,string)":"48ac2e40","collectionRequests(uint256)":"9fa7eded","collectorAssignments(address,uint256)":"798b6df3","collectorLock()":"9dc7efa1","completeCollection(uint256)":"9f433e0d","createListing(string,uint256,uint256)":"7950ca95","getAvailableRequests(uint256,uint256)":"d78d8680","getCollectionRequest(uint256)":"6b2945e9","getCollectorAssignments(address)":"633b8b4f","getUserProfile(address)":"987ee156","getUserRequests(address)":"b337cf74","listings(uint256)":"de74e57b","nextListingId()":"aaccf1ec","nextRequestId()":"6a84a985","owner()":"8da5cb5b","pause()":"8456cb59","paused()":"5c975abb","processedWaste(address,string)":"8165d406","purchaseListing(uint256,uint256)":"00b395f4","purchaseMembership(uint8)":"265a5eea","recyclerLock()":"13c8f2e2","recyclingBadge()":"7d6a4f28","renounceOwnership()":"715018a6","requestWasteCollection((uint8,uint256)[],string,int256,int256,string)":"0c945d56","sortifyToken()":"e5d0088f","transferOwnership(address)":"f2fde38b","unpause()":"3f4ba83a","updateWasteRewardRate(string,uint256)":"cdcb5ca9","userReputation(address)":"e503bb05","userRequests(address,uint256)":"263cb6b6","verifierLock()":"97356ebd","verifyCollection(uint256,bool,string)":"a73ce8f4","wasteRewardRates(string)":"804ee9e7"},"id":45}