{"abi":[{"type":"constructor","inputs":[{"name":"initialOwner","type":"address","internalType":"address"},{"name":"_collectorLock","type":"address","internalType":"address"},{"name":"_recyclerLock","type":"address","internalType":"address"},{"name":"_verifierLock","type":"address","internalType":"address"}],"stateMutability":"nonpayable"},{"type":"function","name":"cancelListing","inputs":[{"name":"listingId","type":"uint256","internalType":"uint256"}],"outputs":[],"stateMutability":"nonpayable"},{"type":"function","name":"collectedWaste","inputs":[{"name":"","type":"address","internalType":"address"},{"name":"","type":"string","internalType":"string"}],"outputs":[{"name":"","type":"uint256","internalType":"uint256"}],"stateMutability":"view"},{"type":"function","name":"collectorLock","inputs":[],"outputs":[{"name":"","type":"address","internalType":"contract IPublicLock"}],"stateMutability":"view"},{"type":"function","name":"createListing","inputs":[{"name":"wasteType","type":"string","internalType":"string"},{"name":"quantity","type":"uint256","internalType":"uint256"},{"name":"price","type":"uint256","internalType":"uint256"}],"outputs":[],"stateMutability":"nonpayable"},{"type":"function","name":"getAccessibleListingIds","inputs":[],"outputs":[{"name":"","type":"uint256[]","internalType":"uint256[]"}],"stateMutability":"view"},{"type":"function","name":"getMembershipExpiration","inputs":[{"name":"user","type":"address","internalType":"address"},{"name":"membershipType","type":"uint8","internalType":"enum SortifyEcosystem.MembershipType"}],"outputs":[{"name":"","type":"uint256","internalType":"uint256"}],"stateMutability":"view"},{"type":"function","name":"getUserProfile","inputs":[{"name":"user","type":"address","internalType":"address"}],"outputs":[{"name":"isCollector","type":"bool","internalType":"bool"},{"name":"isRecycler","type":"bool","internalType":"bool"},{"name":"isVerifier","type":"bool","internalType":"bool"},{"name":"reputation","type":"uint256","internalType":"uint256"},{"name":"totalCollected","type":"uint256","internalType":"uint256"},{"name":"totalProcessed","type":"uint256","internalType":"uint256"},{"name":"tokenBalance","type":"uint256","internalType":"uint256"}],"stateMutability":"view"},{"type":"function","name":"hasValidMembership","inputs":[{"name":"user","type":"address","internalType":"address"},{"name":"membershipType","type":"uint8","internalType":"enum SortifyEcosystem.MembershipType"}],"outputs":[{"name":"","type":"bool","internalType":"bool"}],"stateMutability":"view"},{"type":"function","name":"listings","inputs":[{"name":"","type":"uint256","internalType":"uint256"}],"outputs":[{"name":"id","type":"uint256","internalType":"uint256"},{"name":"seller","type":"address","internalType":"address"},{"name":"wasteType","type":"string","internalType":"string"},{"name":"quantity","type":"uint256","internalType":"uint256"},{"name":"price","type":"uint256","internalType":"uint256"},{"name":"active","type":"bool","internalType":"bool"}],"stateMutability":"view"},{"type":"function","name":"nextListingId","inputs":[],"outputs":[{"name":"","type":"uint256","internalType":"uint256"}],"stateMutability":"view"},{"type":"function","name":"owner","inputs":[],"outputs":[{"name":"","type":"address","internalType":"address"}],"stateMutability":"view"},{"type":"function","name":"processedWaste","inputs":[{"name":"","type":"address","internalType":"address"},{"name":"","type":"string","internalType":"string"}],"outputs":[{"name":"","type":"uint256","internalType":"uint256"}],"stateMutability":"view"},{"type":"function","name":"purchaseListing","inputs":[{"name":"listingId","type":"uint256","internalType":"uint256"},{"name":"quantityToBuy","type":"uint256","internalType":"uint256"}],"outputs":[],"stateMutability":"nonpayable"},{"type":"function","name":"purchaseMembership","inputs":[{"name":"membershipType","type":"uint8","internalType":"enum SortifyEcosystem.MembershipType"}],"outputs":[],"stateMutability":"payable"},{"type":"function","name":"recyclerLock","inputs":[],"outputs":[{"name":"","type":"address","internalType":"contract IPublicLock"}],"stateMutability":"view"},{"type":"function","name":"renounceOwnership","inputs":[],"outputs":[],"stateMutability":"nonpayable"},{"type":"function","name":"setSortifyToken","inputs":[{"name":"_token","type":"address","internalType":"address"}],"outputs":[],"stateMutability":"nonpayable"},{"type":"function","name":"sortifyToken","inputs":[],"outputs":[{"name":"","type":"address","internalType":"contract SortifyToken"}],"stateMutability":"view"},{"type":"function","name":"totalWasteCollected","inputs":[{"name":"","type":"address","internalType":"address"}],"outputs":[{"name":"","type":"uint256","internalType":"uint256"}],"stateMutability":"view"},{"type":"function","name":"totalWasteProcessed","inputs":[{"name":"","type":"address","internalType":"address"}],"outputs":[{"name":"","type":"uint256","internalType":"uint256"}],"stateMutability":"view"},{"type":"function","name":"transferOwnership","inputs":[{"name":"newOwner","type":"address","internalType":"address"}],"outputs":[],"stateMutability":"nonpayable"},{"type":"function","name":"updateWasteRewardRate","inputs":[{"name":"wasteType","type":"string","internalType":"string"},{"name":"newRate","type":"uint256","internalType":"uint256"}],"outputs":[],"stateMutability":"nonpayable"},{"type":"function","name":"userReputation","inputs":[{"name":"","type":"address","internalType":"address"}],"outputs":[{"name":"","type":"uint256","internalType":"uint256"}],"stateMutability":"view"},{"type":"function","name":"verifierLock","inputs":[],"outputs":[{"name":"","type":"address","internalType":"contract IPublicLock"}],"stateMutability":"view"},{"type":"function","name":"verifyWasteCollection","inputs":[{"name":"collector","type":"address","internalType":"address"},{"name":"wasteType","type":"string","internalType":"string"},{"name":"amount","type":"uint256","internalType":"uint256"}],"outputs":[],"stateMutability":"nonpayable"},{"type":"function","name":"verifyWasteProcessing","inputs":[{"name":"recycler","type":"address","internalType":"address"},{"name":"wasteType","type":"string","internalType":"string"},{"name":"amount","type":"uint256","internalType":"uint256"}],"outputs":[],"stateMutability":"nonpayable"},{"type":"function","name":"wasteRewardRates","inputs":[{"name":"","type":"string","internalType":"string"}],"outputs":[{"name":"","type":"uint256","internalType":"uint256"}],"stateMutability":"view"},{"type":"event","name":"ListingCreated","inputs":[{"name":"listingId","type":"uint256","indexed":true,"internalType":"uint256"},{"name":"seller","type":"address","indexed":true,"internalType":"address"},{"name":"wasteType","type":"string","indexed":false,"internalType":"string"},{"name":"quantity","type":"uint256","indexed":false,"internalType":"uint256"},{"name":"price","type":"uint256","indexed":false,"internalType":"uint256"}],"anonymous":false},{"type":"event","name":"ListingPurchased","inputs":[{"name":"listingId","type":"uint256","indexed":true,"internalType":"uint256"},{"name":"buyer","type":"address","indexed":true,"internalType":"address"},{"name":"seller","type":"address","indexed":true,"internalType":"address"},{"name":"quantity","type":"uint256","indexed":false,"internalType":"uint256"},{"name":"totalPrice","type":"uint256","indexed":false,"internalType":"uint256"}],"anonymous":false},{"type":"event","name":"MembershipPurchased","inputs":[{"name":"user","type":"address","indexed":true,"internalType":"address"},{"name":"lock","type":"address","indexed":true,"internalType":"address"},{"name":"membershipType","type":"uint256","indexed":false,"internalType":"uint256"}],"anonymous":false},{"type":"event","name":"OwnershipTransferred","inputs":[{"name":"previousOwner","type":"address","indexed":true,"internalType":"address"},{"name":"newOwner","type":"address","indexed":true,"internalType":"address"}],"anonymous":false},{"type":"event","name":"ReputationUpdated","inputs":[{"name":"user","type":"address","indexed":true,"internalType":"address"},{"name":"newReputation","type":"uint256","indexed":false,"internalType":"uint256"}],"anonymous":false},{"type":"event","name":"WasteCollected","inputs":[{"name":"collector","type":"address","indexed":true,"internalType":"address"},{"name":"wasteType","type":"string","indexed":false,"internalType":"string"},{"name":"amount","type":"uint256","indexed":false,"internalType":"uint256"},{"name":"rewardAmount","type":"uint256","indexed":false,"internalType":"uint256"}],"anonymous":false},{"type":"event","name":"WasteProcessed","inputs":[{"name":"recycler","type":"address","indexed":true,"internalType":"address"},{"name":"wasteType","type":"string","indexed":false,"internalType":"string"},{"name":"amount","type":"uint256","indexed":false,"internalType":"uint256"}],"anonymous":false},{"type":"error","name":"OwnableInvalidOwner","inputs":[{"name":"owner","type":"address","internalType":"address"}]},{"type":"error","name":"OwnableUnauthorizedAccount","inputs":[{"name":"account","type":"address","internalType":"address"}]},{"type":"error","name":"ReentrancyGuardReentrantCall","inputs":[]}],"bytecode":{"object":"0x60806040526001600955348015610014575f5ffd5b5060405161480638038061480683398181016040528101906100369190610373565b835f73ffffffffffffffffffffffffffffffffffffffff168173ffffffffffffffffffffffffffffffffffffffff16036100a7575f6040517f1e4fbdf700000000000000000000000000000000000000000000000000000000815260040161009e91906103e6565b60405180910390fd5b6100b68161025460201b60201c565b50600180819055508260035f6101000a81548173ffffffffffffffffffffffffffffffffffffffff021916908373ffffffffffffffffffffffffffffffffffffffff1602179055508160045f6101000a81548173ffffffffffffffffffffffffffffffffffffffff021916908373ffffffffffffffffffffffffffffffffffffffff1602179055508060055f6101000a81548173ffffffffffffffffffffffffffffffffffffffff021916908373ffffffffffffffffffffffffffffffffffffffff160217905550674563918244f40000600660405161019590610453565b9081526020016040518091039020819055506729a2241af62c000060066040516101be906104b1565b908152602001604051809103902081905550673782dace9d90000060066040516101e79061050f565b908152602001604051809103902081905550676124fee993bc000060066040516102109061056d565b908152602001604051809103902081905550671bc16d674ec800006006604051610239906105cb565b908152602001604051809103902081905550505050506105df565b5f5f5f9054906101000a900473ffffffffffffffffffffffffffffffffffffffff169050815f5f6101000a81548173ffffffffffffffffffffffffffffffffffffffff021916908373ffffffffffffffffffffffffffffffffffffffff1602179055508173ffffffffffffffffffffffffffffffffffffffff168173ffffffffffffffffffffffffffffffffffffffff167f8be0079c531659141344cd1fd0a4f28419497f9722a3daafe3b4186f6b6457e060405160405180910390a35050565b5f5ffd5b5f73ffffffffffffffffffffffffffffffffffffffff82169050919050565b5f61034282610319565b9050919050565b61035281610338565b811461035c575f5ffd5b50565b5f8151905061036d81610349565b92915050565b5f5f5f5f6080858703121561038b5761038a610315565b5b5f6103988782880161035f565b94505060206103a98782880161035f565b93505060406103ba8782880161035f565b92505060606103cb8782880161035f565b91505092959194509250565b6103e081610338565b82525050565b5f6020820190506103f95f8301846103d7565b92915050565b5f81905092915050565b7f706c6173746963000000000000000000000000000000000000000000000000005f82015250565b5f61043d6007836103ff565b915061044882610409565b600782019050919050565b5f61045d82610431565b9150819050919050565b7f70617065720000000000000000000000000000000000000000000000000000005f82015250565b5f61049b6005836103ff565b91506104a682610467565b600582019050919050565b5f6104bb8261048f565b9150819050919050565b7f676c6173730000000000000000000000000000000000000000000000000000005f82015250565b5f6104f96005836103ff565b9150610504826104c5565b600582019050919050565b5f610519826104ed565b9150819050919050565b7f6d6574616c0000000000000000000000000000000000000000000000000000005f82015250565b5f6105576005836103ff565b915061056282610523565b600582019050919050565b5f6105778261054b565b9150819050919050565b7f6f7267616e6963000000000000000000000000000000000000000000000000005f82015250565b5f6105b56007836103ff565b91506105c082610581565b600782019050919050565b5f6105d5826105a9565b9150819050919050565b61421a806105ec5f395ff3fe60806040526004361061019a575f3560e01c806397356ebd116100eb578063c435be0f11610089578063de74e57b11610063578063de74e57b146105ca578063e503bb051461060b578063e5d0088f14610647578063f2fde38b146106715761019a565b8063c435be0f1461053e578063cdcb5ca91461057a578063d37a5252146105a25761019a565b8063a773ebfc116100c5578063a773ebfc14610460578063aa27e68f1461049c578063aaccf1ec146104d8578063c28c50ca146105025761019a565b806397356ebd146103ca578063987ee156146103f45780639dc7efa1146104365761019a565b806348ac2e40116101585780637950ca95116101325780637950ca9514610300578063804ee9e7146103285780638165d406146103645780638da5cb5b146103a05761019a565b806348ac2e40146102865780635ccf1a87146102c2578063715018a6146102ea5761019a565b8062b395f41461019e5780630a881065146101c657806313c8f2e2146101ee57806316cc593614610218578063265a5eea14610242578063305a67a81461025e575b5f5ffd5b3480156101a9575f5ffd5b506101c460048036038101906101bf9190612aeb565b610699565b005b3480156101d1575f5ffd5b506101ec60048036038101906101e79190612be4565b610af8565b005b3480156101f9575f5ffd5b50610202611014565b60405161020f9190612cb0565b60405180910390f35b348015610223575f5ffd5b5061022c611039565b6040516102399190612d80565b60405180910390f35b61025c60048036038101906102579190612dc3565b61123b565b005b348015610269575f5ffd5b50610284600480360381019061027f9190612dee565b61145b565b005b348015610291575f5ffd5b506102ac60048036038101906102a79190612f51565b6115e5565b6040516102b99190612fba565b60405180910390f35b3480156102cd575f5ffd5b506102e860048036038101906102e39190612be4565b61161d565b005b3480156102f5575f5ffd5b506102fe611a1c565b005b34801561030b575f5ffd5b5061032660048036038101906103219190612fd3565b611a2f565b005b348015610333575f5ffd5b5061034e60048036038101906103499190613044565b611dc7565b60405161035b9190612fba565b60405180910390f35b34801561036f575f5ffd5b5061038a60048036038101906103859190612f51565b611df4565b6040516103979190612fba565b60405180910390f35b3480156103ab575f5ffd5b506103b4611e2c565b6040516103c1919061309a565b60405180910390f35b3480156103d5575f5ffd5b506103de611e53565b6040516103eb9190612cb0565b60405180910390f35b3480156103ff575f5ffd5b5061041a600480360381019061041591906130b3565b611e78565b60405161042d97969594939291906130f8565b60405180910390f35b348015610441575f5ffd5b5061044a6121b6565b6040516104579190612cb0565b60405180910390f35b34801561046b575f5ffd5b50610486600480360381019061048191906130b3565b6121db565b6040516104939190612fba565b60405180910390f35b3480156104a7575f5ffd5b506104c260048036038101906104bd9190613165565b6121f0565b6040516104cf9190612fba565b60405180910390f35b3480156104e3575f5ffd5b506104ec61245d565b6040516104f99190612fba565b60405180910390f35b34801561050d575f5ffd5b5061052860048036038101906105239190613165565b612463565b60405161053591906131a3565b60405180910390f35b348015610549575f5ffd5b50610564600480360381019061055f91906130b3565b6126d0565b6040516105719190612fba565b60405180910390f35b348015610585575f5ffd5b506105a0600480360381019061059b91906131bc565b6126e5565b005b3480156105ad575f5ffd5b506105c860048036038101906105c391906130b3565b612717565b005b3480156105d5575f5ffd5b506105f060048036038101906105eb9190612dee565b612762565b60405161060296959493929190613279565b60405180910390f35b348015610616575f5ffd5b50610631600480360381019061062c91906130b3565b61284b565b60405161063e9190612fba565b60405180910390f35b348015610652575f5ffd5b5061065b612860565b60405161066891906132ff565b60405180910390f35b34801561067c575f5ffd5b50610697600480360381019061069291906130b3565b612885565b005b6106a1612909565b60035f9054906101000a900473ffffffffffffffffffffffffffffffffffffffff1673ffffffffffffffffffffffffffffffffffffffff16636d8ea5b4336040518263ffffffff1660e01b81526004016106fb919061309a565b602060405180830381865afa158015610716573d5f5f3e3d5ffd5b505050506040513d601f19601f8201168201806040525081019061073a9190613342565b610779576040517f08c379a0000000000000000000000000000000000000000000000000000000008152600401610770906133dd565b60405180910390fd5b5f600a5f8481526020019081526020015f209050806005015f9054906101000a900460ff166107dd576040517f08c379a00000000000000000000000000000000000000000000000000000000081526004016107d490613445565b60405180910390fd5b8181600301541015610824576040517f08c379a000000000000000000000000000000000000000000000000000000000815260040161081b906134ad565b60405180910390fd5b5f606483836004015461083791906134f8565b6108419190613566565b90508060025f9054906101000a900473ffffffffffffffffffffffffffffffffffffffff1673ffffffffffffffffffffffffffffffffffffffff166370a08231336040518263ffffffff1660e01b815260040161089e919061309a565b602060405180830381865afa1580156108b9573d5f5f3e3d5ffd5b505050506040513d601f19601f820116820180604052508101906108dd91906135aa565b101561091e576040517f08c379a00000000000000000000000000000000000000000000000000000000081526004016109159061361f565b60405180910390fd5b60025f9054906101000a900473ffffffffffffffffffffffffffffffffffffffff1673ffffffffffffffffffffffffffffffffffffffff166323b872dd33846001015f9054906101000a900473ffffffffffffffffffffffffffffffffffffffff16846040518463ffffffff1660e01b815260040161099f9392919061363d565b6020604051808303815f875af11580156109bb573d5f5f3e3d5ffd5b505050506040513d601f19601f820116820180604052508101906109df9190613342565b610a1e576040517f08c379a0000000000000000000000000000000000000000000000000000000008152600401610a15906136bc565b60405180910390fd5b82826003015f828254610a3191906136da565b925050819055505f826003015403610a5f575f826005015f6101000a81548160ff0219169083151502179055505b816001015f9054906101000a900473ffffffffffffffffffffffffffffffffffffffff1673ffffffffffffffffffffffffffffffffffffffff163373ffffffffffffffffffffffffffffffffffffffff16857f67806fb1f9a1d5258c8ae3101868dc1bbd114cb2c1829b37dbdd88d64cf17d828685604051610ae292919061370d565b60405180910390a45050610af461294f565b5050565b60055f9054906101000a900473ffffffffffffffffffffffffffffffffffffffff1673ffffffffffffffffffffffffffffffffffffffff16636d8ea5b4336040518263ffffffff1660e01b8152600401610b52919061309a565b602060405180830381865afa158015610b6d573d5f5f3e3d5ffd5b505050506040513d601f19601f82011682018060405250810190610b919190613342565b80610bce5750610b9f611e2c565b73ffffffffffffffffffffffffffffffffffffffff163373ffffffffffffffffffffffffffffffffffffffff16145b610c0d576040517f08c379a0000000000000000000000000000000000000000000000000000000008152600401610c04906137a4565b60405180910390fd5b60035f9054906101000a900473ffffffffffffffffffffffffffffffffffffffff1673ffffffffffffffffffffffffffffffffffffffff16636d8ea5b4856040518263ffffffff1660e01b8152600401610c67919061309a565b602060405180830381865afa158015610c82573d5f5f3e3d5ffd5b505050506040513d601f19601f82011682018060405250810190610ca69190613342565b610ce5576040517f08c379a0000000000000000000000000000000000000000000000000000000008152600401610cdc90613832565b60405180910390fd5b5f60068484604051610cf892919061387e565b90815260200160405180910390205411610d47576040517f08c379a0000000000000000000000000000000000000000000000000000000008152600401610d3e906138e0565b60405180910390fd5b5f606460068585604051610d5c92919061387e565b90815260200160405180910390205483610d7691906134f8565b610d809190613566565b90508160075f8773ffffffffffffffffffffffffffffffffffffffff1673ffffffffffffffffffffffffffffffffffffffff1681526020019081526020015f208585604051610dd092919061387e565b90815260200160405180910390205f828254610dec91906138fe565b9250508190555081600c5f8773ffffffffffffffffffffffffffffffffffffffff1673ffffffffffffffffffffffffffffffffffffffff1681526020019081526020015f205f828254610e3f91906138fe565b92505081905550606482610e539190613566565b600b5f8773ffffffffffffffffffffffffffffffffffffffff1673ffffffffffffffffffffffffffffffffffffffff1681526020019081526020015f205f828254610e9e91906138fe565b9250508190555060025f9054906101000a900473ffffffffffffffffffffffffffffffffffffffff1673ffffffffffffffffffffffffffffffffffffffff1663d3fc986486836040518363ffffffff1660e01b8152600401610f0192919061397b565b5f604051808303815f87803b158015610f18575f5ffd5b505af1158015610f2a573d5f5f3e3d5ffd5b505050508473ffffffffffffffffffffffffffffffffffffffff167f5e4f9d19fbf6a446d5f0014f4aeb1a2f0c453c5da435641e690ce23a5cf72bc885858585604051610f7a94939291906139e1565b60405180910390a28473ffffffffffffffffffffffffffffffffffffffff167ffc577563f1b9a0461e24abef1e1fcc0d33d3d881f20b5df6dda59de4aae2c821600b5f8873ffffffffffffffffffffffffffffffffffffffff1673ffffffffffffffffffffffffffffffffffffffff1681526020019081526020015f20546040516110059190612fba565b60405180910390a25050505050565b60045f9054906101000a900473ffffffffffffffffffffffffffffffffffffffff1681565b60605f60035f9054906101000a900473ffffffffffffffffffffffffffffffffffffffff1673ffffffffffffffffffffffffffffffffffffffff16636d8ea5b4336040518263ffffffff1660e01b8152600401611096919061309a565b602060405180830381865afa1580156110b1573d5f5f3e3d5ffd5b505050506040513d601f19601f820116820180604052508101906110d59190613342565b905080611117576040517f08c379a000000000000000000000000000000000000000000000000000000000815260040161110e90613a8f565b60405180910390fd5b5f5f90505f600190505b60095481101561116d57600a5f8281526020019081526020015f206005015f9054906101000a900460ff161561116057818061115c90613aad565b9250505b8080600101915050611121565b505f8167ffffffffffffffff81111561118957611188612e2d565b5b6040519080825280602002602001820160405280156111b75781602001602082028036833780820191505090505b5090505f5f90505f600190505b60095481101561123057600a5f8281526020019081526020015f206005015f9054906101000a900460ff1615611223578083838151811061120857611207613af4565b5b602002602001018181525050818061121f90613aad565b9250505b80806001019150506111c4565b508194505050505090565b5f5f600281111561124f5761124e613b21565b5b82600281111561126257611261613b21565b5b036112905760035f9054906101000a900473ffffffffffffffffffffffffffffffffffffffff169050611376565b600160028111156112a4576112a3613b21565b5b8260028111156112b7576112b6613b21565b5b036112e55760045f9054906101000a900473ffffffffffffffffffffffffffffffffffffffff169050611375565b6002808111156112f8576112f7613b21565b5b82600281111561130b5761130a613b21565b5b036113395760055f9054906101000a900473ffffffffffffffffffffffffffffffffffffffff169050611374565b6040517f08c379a000000000000000000000000000000000000000000000000000000000815260040161136b90613b98565b60405180910390fd5b5b5b8073ffffffffffffffffffffffffffffffffffffffff1663ca0158f334335f6040518463ffffffff1660e01b81526004016113b2929190613c22565b5f604051808303818588803b1580156113c9575f5ffd5b505af11580156113db573d5f5f3e3d5ffd5b50505050508073ffffffffffffffffffffffffffffffffffffffff163373ffffffffffffffffffffffffffffffffffffffff167fd997cc6241868bfa40573e1c8343ef9a15c2bb22d98f98722306720836c1d2d784600281111561144257611441613b21565b5b60405161144f9190612fba565b60405180910390a35050565b5f600a5f8381526020019081526020015f2090503373ffffffffffffffffffffffffffffffffffffffff16816001015f9054906101000a900473ffffffffffffffffffffffffffffffffffffffff1673ffffffffffffffffffffffffffffffffffffffff1614611500576040517f08c379a00000000000000000000000000000000000000000000000000000000081526004016114f790613cb9565b60405180910390fd5b806005015f9054906101000a900460ff16611550576040517f08c379a000000000000000000000000000000000000000000000000000000000815260040161154790613445565b60405180910390fd5b806003015460085f3373ffffffffffffffffffffffffffffffffffffffff1673ffffffffffffffffffffffffffffffffffffffff1681526020019081526020015f20826002016040516115a39190613dc6565b90815260200160405180910390205f8282546115bf91906138fe565b925050819055505f816005015f6101000a81548160ff0219169083151502179055505050565b6007602052815f5260405f20818051602081018201805184825260208301602085012081835280955050505050505f91509150505481565b60055f9054906101000a900473ffffffffffffffffffffffffffffffffffffffff1673ffffffffffffffffffffffffffffffffffffffff16636d8ea5b4336040518263ffffffff1660e01b8152600401611677919061309a565b602060405180830381865afa158015611692573d5f5f3e3d5ffd5b505050506040513d601f19601f820116820180604052508101906116b69190613342565b806116f357506116c4611e2c565b73ffffffffffffffffffffffffffffffffffffffff163373ffffffffffffffffffffffffffffffffffffffff16145b611732576040517f08c379a0000000000000000000000000000000000000000000000000000000008152600401611729906137a4565b60405180910390fd5b60045f9054906101000a900473ffffffffffffffffffffffffffffffffffffffff1673ffffffffffffffffffffffffffffffffffffffff16636d8ea5b4856040518263ffffffff1660e01b815260040161178c919061309a565b602060405180830381865afa1580156117a7573d5f5f3e3d5ffd5b505050506040513d601f19601f820116820180604052508101906117cb9190613342565b61180a576040517f08c379a000000000000000000000000000000000000000000000000000000000815260040161180190613e4c565b60405180910390fd5b8060085f8673ffffffffffffffffffffffffffffffffffffffff1673ffffffffffffffffffffffffffffffffffffffff1681526020019081526020015f20848460405161185892919061387e565b90815260200160405180910390205f82825461187491906138fe565b9250508190555080600d5f8673ffffffffffffffffffffffffffffffffffffffff1673ffffffffffffffffffffffffffffffffffffffff1681526020019081526020015f205f8282546118c791906138fe565b9250508190555060646002826118dd91906134f8565b6118e79190613566565b600b5f8673ffffffffffffffffffffffffffffffffffffffff1673ffffffffffffffffffffffffffffffffffffffff1681526020019081526020015f205f82825461193291906138fe565b925050819055508373ffffffffffffffffffffffffffffffffffffffff167fad755d8eb0d28f0f8f7e400e1a3b6bdac3e43be19b1e7c5824cc17380262793e84848460405161198393929190613e6a565b60405180910390a28373ffffffffffffffffffffffffffffffffffffffff167ffc577563f1b9a0461e24abef1e1fcc0d33d3d881f20b5df6dda59de4aae2c821600b5f8773ffffffffffffffffffffffffffffffffffffffff1673ffffffffffffffffffffffffffffffffffffffff1681526020019081526020015f2054604051611a0e9190612fba565b60405180910390a250505050565b611a24612958565b611a2d5f6129df565b565b60045f9054906101000a900473ffffffffffffffffffffffffffffffffffffffff1673ffffffffffffffffffffffffffffffffffffffff16636d8ea5b4336040518263ffffffff1660e01b8152600401611a89919061309a565b602060405180830381865afa158015611aa4573d5f5f3e3d5ffd5b505050506040513d601f19601f82011682018060405250810190611ac89190613342565b611b07576040517f08c379a0000000000000000000000000000000000000000000000000000000008152600401611afe90613f0a565b60405180910390fd5b8160085f3373ffffffffffffffffffffffffffffffffffffffff1673ffffffffffffffffffffffffffffffffffffffff1681526020019081526020015f208585604051611b5592919061387e565b9081526020016040518091039020541015611ba5576040517f08c379a0000000000000000000000000000000000000000000000000000000008152600401611b9c90613f72565b60405180910390fd5b8160085f3373ffffffffffffffffffffffffffffffffffffffff1673ffffffffffffffffffffffffffffffffffffffff1681526020019081526020015f208585604051611bf392919061387e565b90815260200160405180910390205f828254611c0f91906136da565b925050819055505f6040518060c0016040528060095481526020013373ffffffffffffffffffffffffffffffffffffffff16815260200186868080601f0160208091040260200160405190810160405280939291908181526020018383808284375f81840152601f19601f82011690508083019250505050505050815260200184815260200183815260200160011515815250905080600a5f60095481526020019081526020015f205f820151815f01556020820151816001015f6101000a81548173ffffffffffffffffffffffffffffffffffffffff021916908373ffffffffffffffffffffffffffffffffffffffff1602179055506040820151816002019081611d1b9190614115565b50606082015181600301556080820151816004015560a0820151816005015f6101000a81548160ff0219169083151502179055509050503373ffffffffffffffffffffffffffffffffffffffff166009547fee9a77e54ddc4ae3475a5616f641d8617975557d8f946292108c2b98c6a7bed387878787604051611da194939291906139e1565b60405180910390a360095f815480929190611dbb90613aad565b91905055505050505050565b6006818051602081018201805184825260208301602085012081835280955050505050505f915090505481565b6008602052815f5260405f20818051602081018201805184825260208301602085012081835280955050505050505f91509150505481565b5f5f5f9054906101000a900473ffffffffffffffffffffffffffffffffffffffff16905090565b60055f9054906101000a900473ffffffffffffffffffffffffffffffffffffffff1681565b5f5f5f5f5f5f5f60035f9054906101000a900473ffffffffffffffffffffffffffffffffffffffff1673ffffffffffffffffffffffffffffffffffffffff16636d8ea5b4896040518263ffffffff1660e01b8152600401611ed9919061309a565b602060405180830381865afa158015611ef4573d5f5f3e3d5ffd5b505050506040513d601f19601f82011682018060405250810190611f189190613342565b965060045f9054906101000a900473ffffffffffffffffffffffffffffffffffffffff1673ffffffffffffffffffffffffffffffffffffffff16636d8ea5b4896040518263ffffffff1660e01b8152600401611f74919061309a565b602060405180830381865afa158015611f8f573d5f5f3e3d5ffd5b505050506040513d601f19601f82011682018060405250810190611fb39190613342565b955060055f9054906101000a900473ffffffffffffffffffffffffffffffffffffffff1673ffffffffffffffffffffffffffffffffffffffff16636d8ea5b4896040518263ffffffff1660e01b815260040161200f919061309a565b602060405180830381865afa15801561202a573d5f5f3e3d5ffd5b505050506040513d601f19601f8201168201806040525081019061204e9190613342565b9450600b5f8973ffffffffffffffffffffffffffffffffffffffff1673ffffffffffffffffffffffffffffffffffffffff1681526020019081526020015f20549350600c5f8973ffffffffffffffffffffffffffffffffffffffff1673ffffffffffffffffffffffffffffffffffffffff1681526020019081526020015f20549250600d5f8973ffffffffffffffffffffffffffffffffffffffff1673ffffffffffffffffffffffffffffffffffffffff1681526020019081526020015f2054915060025f9054906101000a900473ffffffffffffffffffffffffffffffffffffffff1673ffffffffffffffffffffffffffffffffffffffff166370a08231896040518263ffffffff1660e01b815260040161216a919061309a565b602060405180830381865afa158015612185573d5f5f3e3d5ffd5b505050506040513d601f19601f820116820180604052508101906121a991906135aa565b9050919395979092949650565b60035f9054906101000a900473ffffffffffffffffffffffffffffffffffffffff1681565b600c602052805f5260405f205f915090505481565b5f5f600281111561220457612203613b21565b5b82600281111561221757612216613b21565b5b036122bc5760035f9054906101000a900473ffffffffffffffffffffffffffffffffffffffff1673ffffffffffffffffffffffffffffffffffffffff1663abdf82ce846040518263ffffffff1660e01b8152600401612276919061309a565b602060405180830381865afa158015612291573d5f5f3e3d5ffd5b505050506040513d601f19601f820116820180604052508101906122b591906135aa565b9050612457565b600160028111156122d0576122cf613b21565b5b8260028111156122e3576122e2613b21565b5b036123885760045f9054906101000a900473ffffffffffffffffffffffffffffffffffffffff1673ffffffffffffffffffffffffffffffffffffffff1663abdf82ce846040518263ffffffff1660e01b8152600401612342919061309a565b602060405180830381865afa15801561235d573d5f5f3e3d5ffd5b505050506040513d601f19601f8201168201806040525081019061238191906135aa565b9050612457565b60028081111561239b5761239a613b21565b5b8260028111156123ae576123ad613b21565b5b036124535760055f9054906101000a900473ffffffffffffffffffffffffffffffffffffffff1673ffffffffffffffffffffffffffffffffffffffff1663abdf82ce846040518263ffffffff1660e01b815260040161240d919061309a565b602060405180830381865afa158015612428573d5f5f3e3d5ffd5b505050506040513d601f19601f8201168201806040525081019061244c91906135aa565b9050612457565b5f90505b92915050565b60095481565b5f5f600281111561247757612476613b21565b5b82600281111561248a57612489613b21565b5b0361252f5760035f9054906101000a900473ffffffffffffffffffffffffffffffffffffffff1673ffffffffffffffffffffffffffffffffffffffff16636d8ea5b4846040518263ffffffff1660e01b81526004016124e9919061309a565b602060405180830381865afa158015612504573d5f5f3e3d5ffd5b505050506040513d601f19601f820116820180604052508101906125289190613342565b90506126ca565b6001600281111561254357612542613b21565b5b82600281111561255657612555613b21565b5b036125fb5760045f9054906101000a900473ffffffffffffffffffffffffffffffffffffffff1673ffffffffffffffffffffffffffffffffffffffff16636d8ea5b4846040518263ffffffff1660e01b81526004016125b5919061309a565b602060405180830381865afa1580156125d0573d5f5f3e3d5ffd5b505050506040513d601f19601f820116820180604052508101906125f49190613342565b90506126ca565b60028081111561260e5761260d613b21565b5b82600281111561262157612620613b21565b5b036126c65760055f9054906101000a900473ffffffffffffffffffffffffffffffffffffffff1673ffffffffffffffffffffffffffffffffffffffff16636d8ea5b4846040518263ffffffff1660e01b8152600401612680919061309a565b602060405180830381865afa15801561269b573d5f5f3e3d5ffd5b505050506040513d601f19601f820116820180604052508101906126bf9190613342565b90506126ca565b5f90505b92915050565b600d602052805f5260405f205f915090505481565b6126ed612958565b806006848460405161270092919061387e565b908152602001604051809103902081905550505050565b61271f612958565b8060025f6101000a81548173ffffffffffffffffffffffffffffffffffffffff021916908373ffffffffffffffffffffffffffffffffffffffff16021790555050565b600a602052805f5260405f205f91509050805f015490806001015f9054906101000a900473ffffffffffffffffffffffffffffffffffffffff16908060020180546127ac90613d04565b80601f01602080910402602001604051908101604052809291908181526020018280546127d890613d04565b80156128235780601f106127fa57610100808354040283529160200191612823565b820191905f5260205f20905b81548152906001019060200180831161280657829003601f168201915b505050505090806003015490806004015490806005015f9054906101000a900460ff16905086565b600b602052805f5260405f205f915090505481565b60025f9054906101000a900473ffffffffffffffffffffffffffffffffffffffff1681565b61288d612958565b5f73ffffffffffffffffffffffffffffffffffffffff168173ffffffffffffffffffffffffffffffffffffffff16036128fd575f6040517f1e4fbdf70000000000000000000000000000000000000000000000000000000081526004016128f4919061309a565b60405180910390fd5b612906816129df565b50565b600260015403612945576040517f3ee5aeb500000000000000000000000000000000000000000000000000000000815260040160405180910390fd5b6002600181905550565b60018081905550565b612960612aa0565b73ffffffffffffffffffffffffffffffffffffffff1661297e611e2c565b73ffffffffffffffffffffffffffffffffffffffff16146129dd576129a1612aa0565b6040517f118cdaa70000000000000000000000000000000000000000000000000000000081526004016129d4919061309a565b60405180910390fd5b565b5f5f5f9054906101000a900473ffffffffffffffffffffffffffffffffffffffff169050815f5f6101000a81548173ffffffffffffffffffffffffffffffffffffffff021916908373ffffffffffffffffffffffffffffffffffffffff1602179055508173ffffffffffffffffffffffffffffffffffffffff168173ffffffffffffffffffffffffffffffffffffffff167f8be0079c531659141344cd1fd0a4f28419497f9722a3daafe3b4186f6b6457e060405160405180910390a35050565b5f33905090565b5f604051905090565b5f5ffd5b5f5ffd5b5f819050919050565b612aca81612ab8565b8114612ad4575f5ffd5b50565b5f81359050612ae581612ac1565b92915050565b5f5f60408385031215612b0157612b00612ab0565b5b5f612b0e85828601612ad7565b9250506020612b1f85828601612ad7565b9150509250929050565b5f73ffffffffffffffffffffffffffffffffffffffff82169050919050565b5f612b5282612b29565b9050919050565b612b6281612b48565b8114612b6c575f5ffd5b50565b5f81359050612b7d81612b59565b92915050565b5f5ffd5b5f5ffd5b5f5ffd5b5f5f83601f840112612ba457612ba3612b83565b5b8235905067ffffffffffffffff811115612bc157612bc0612b87565b5b602083019150836001820283011115612bdd57612bdc612b8b565b5b9250929050565b5f5f5f5f60608587031215612bfc57612bfb612ab0565b5b5f612c0987828801612b6f565b945050602085013567ffffffffffffffff811115612c2a57612c29612ab4565b5b612c3687828801612b8f565b93509350506040612c4987828801612ad7565b91505092959194509250565b5f819050919050565b5f612c78612c73612c6e84612b29565b612c55565b612b29565b9050919050565b5f612c8982612c5e565b9050919050565b5f612c9a82612c7f565b9050919050565b612caa81612c90565b82525050565b5f602082019050612cc35f830184612ca1565b92915050565b5f81519050919050565b5f82825260208201905092915050565b5f819050602082019050919050565b612cfb81612ab8565b82525050565b5f612d0c8383612cf2565b60208301905092915050565b5f602082019050919050565b5f612d2e82612cc9565b612d388185612cd3565b9350612d4383612ce3565b805f5b83811015612d73578151612d5a8882612d01565b9750612d6583612d18565b925050600181019050612d46565b5085935050505092915050565b5f6020820190508181035f830152612d988184612d24565b905092915050565b60038110612dac575f5ffd5b50565b5f81359050612dbd81612da0565b92915050565b5f60208284031215612dd857612dd7612ab0565b5b5f612de584828501612daf565b91505092915050565b5f60208284031215612e0357612e02612ab0565b5b5f612e1084828501612ad7565b91505092915050565b5f5ffd5b5f601f19601f8301169050919050565b7f4e487b71000000000000000000000000000000000000000000000000000000005f52604160045260245ffd5b612e6382612e1d565b810181811067ffffffffffffffff82111715612e8257612e81612e2d565b5b80604052505050565b5f612e94612aa7565b9050612ea08282612e5a565b919050565b5f67ffffffffffffffff821115612ebf57612ebe612e2d565b5b612ec882612e1d565b9050602081019050919050565b828183375f83830152505050565b5f612ef5612ef084612ea5565b612e8b565b905082815260208101848484011115612f1157612f10612e19565b5b612f1c848285612ed5565b509392505050565b5f82601f830112612f3857612f37612b83565b5b8135612f48848260208601612ee3565b91505092915050565b5f5f60408385031215612f6757612f66612ab0565b5b5f612f7485828601612b6f565b925050602083013567ffffffffffffffff811115612f9557612f94612ab4565b5b612fa185828601612f24565b9150509250929050565b612fb481612ab8565b82525050565b5f602082019050612fcd5f830184612fab565b92915050565b5f5f5f5f60608587031215612feb57612fea612ab0565b5b5f85013567ffffffffffffffff81111561300857613007612ab4565b5b61301487828801612b8f565b9450945050602061302787828801612ad7565b925050604061303887828801612ad7565b91505092959194509250565b5f6020828403121561305957613058612ab0565b5b5f82013567ffffffffffffffff81111561307657613075612ab4565b5b61308284828501612f24565b91505092915050565b61309481612b48565b82525050565b5f6020820190506130ad5f83018461308b565b92915050565b5f602082840312156130c8576130c7612ab0565b5b5f6130d584828501612b6f565b91505092915050565b5f8115159050919050565b6130f2816130de565b82525050565b5f60e08201905061310b5f83018a6130e9565b61311860208301896130e9565b61312560408301886130e9565b6131326060830187612fab565b61313f6080830186612fab565b61314c60a0830185612fab565b61315960c0830184612fab565b98975050505050505050565b5f5f6040838503121561317b5761317a612ab0565b5b5f61318885828601612b6f565b925050602061319985828601612daf565b9150509250929050565b5f6020820190506131b65f8301846130e9565b92915050565b5f5f5f604084860312156131d3576131d2612ab0565b5b5f84013567ffffffffffffffff8111156131f0576131ef612ab4565b5b6131fc86828701612b8f565b9350935050602061320f86828701612ad7565b9150509250925092565b5f81519050919050565b5f82825260208201905092915050565b8281835e5f83830152505050565b5f61324b82613219565b6132558185613223565b9350613265818560208601613233565b61326e81612e1d565b840191505092915050565b5f60c08201905061328c5f830189612fab565b613299602083018861308b565b81810360408301526132ab8187613241565b90506132ba6060830186612fab565b6132c76080830185612fab565b6132d460a08301846130e9565b979650505050505050565b5f6132e982612c7f565b9050919050565b6132f9816132df565b82525050565b5f6020820190506133125f8301846132f0565b92915050565b613321816130de565b811461332b575f5ffd5b50565b5f8151905061333c81613318565b92915050565b5f6020828403121561335757613356612ab0565b5b5f6133648482850161332e565b91505092915050565b7f4d75737420686176652076616c696420636f6c6c6563746f72206d656d6265725f8201527f7368697000000000000000000000000000000000000000000000000000000000602082015250565b5f6133c7602483613223565b91506133d28261336d565b604082019050919050565b5f6020820190508181035f8301526133f4816133bb565b9050919050565b7f4c697374696e67206973206e6f742061637469766500000000000000000000005f82015250565b5f61342f601583613223565b915061343a826133fb565b602082019050919050565b5f6020820190508181035f83015261345c81613423565b9050919050565b7f4e6f7420656e6f756768207175616e7469747920617661696c61626c650000005f82015250565b5f613497601d83613223565b91506134a282613463565b602082019050919050565b5f6020820190508181035f8301526134c48161348b565b9050919050565b7f4e487b71000000000000000000000000000000000000000000000000000000005f52601160045260245ffd5b5f61350282612ab8565b915061350d83612ab8565b925082820261351b81612ab8565b91508282048414831517613532576135316134cb565b5b5092915050565b7f4e487b71000000000000000000000000000000000000000000000000000000005f52601260045260245ffd5b5f61357082612ab8565b915061357b83612ab8565b92508261358b5761358a613539565b5b828204905092915050565b5f815190506135a481612ac1565b92915050565b5f602082840312156135bf576135be612ab0565b5b5f6135cc84828501613596565b91505092915050565b7f496e73756666696369656e7420746f6b656e2062616c616e63650000000000005f82015250565b5f613609601a83613223565b9150613614826135d5565b602082019050919050565b5f6020820190508181035f830152613636816135fd565b9050919050565b5f6060820190506136505f83018661308b565b61365d602083018561308b565b61366a6040830184612fab565b949350505050565b7f546f6b656e207472616e73666572206661696c656400000000000000000000005f82015250565b5f6136a6601583613223565b91506136b182613672565b602082019050919050565b5f6020820190508181035f8301526136d38161369a565b9050919050565b5f6136e482612ab8565b91506136ef83612ab8565b9250828203905081811115613707576137066134cb565b5b92915050565b5f6040820190506137205f830185612fab565b61372d6020830184612fab565b9392505050565b7f4d75737420686176652076616c6964207665726966696572206d656d626572735f8201527f686970206f72206265206f776e65720000000000000000000000000000000000602082015250565b5f61378e602f83613223565b915061379982613734565b604082019050919050565b5f6020820190508181035f8301526137bb81613782565b9050919050565b7f436f6c6c6563746f72206d75737420686176652076616c6964206d656d6265725f8201527f7368697000000000000000000000000000000000000000000000000000000000602082015250565b5f61381c602483613223565b9150613827826137c2565b604082019050919050565b5f6020820190508181035f83015261384981613810565b9050919050565b5f81905092915050565b5f6138658385613850565b9350613872838584612ed5565b82840190509392505050565b5f61388a82848661385a565b91508190509392505050565b7f57617374652074797065206e6f7420737570706f7274656400000000000000005f82015250565b5f6138ca601883613223565b91506138d582613896565b602082019050919050565b5f6020820190508181035f8301526138f7816138be565b9050919050565b5f61390882612ab8565b915061391383612ab8565b925082820190508082111561392b5761392a6134cb565b5b92915050565b7f576173746520636f6c6c656374696f6e207265776172640000000000000000005f82015250565b5f613965601783613223565b915061397082613931565b602082019050919050565b5f60608201905061398e5f83018561308b565b61399b6020830184612fab565b81810360408301526139ac81613959565b90509392505050565b5f6139c08385613223565b93506139cd838584612ed5565b6139d683612e1d565b840190509392505050565b5f6060820190508181035f8301526139fa8186886139b5565b9050613a096020830185612fab565b613a166040830184612fab565b95945050505050565b7f4d757374206861766520636f6c6c6563746f72206d656d6265727368697020745f8201527f6f2076696577206c697374696e67730000000000000000000000000000000000602082015250565b5f613a79602f83613223565b9150613a8482613a1f565b604082019050919050565b5f6020820190508181035f830152613aa681613a6d565b9050919050565b5f613ab782612ab8565b91507fffffffffffffffffffffffffffffffffffffffffffffffffffffffffffffffff8203613ae957613ae86134cb565b5b600182019050919050565b7f4e487b71000000000000000000000000000000000000000000000000000000005f52603260045260245ffd5b7f4e487b71000000000000000000000000000000000000000000000000000000005f52602160045260245ffd5b7f496e76616c6964206d656d6265727368697020747970650000000000000000005f82015250565b5f613b82601783613223565b9150613b8d82613b4e565b602082019050919050565b5f6020820190508181035f830152613baf81613b76565b9050919050565b5f819050919050565b5f613bd9613bd4613bcf84613bb6565b612c55565b612ab8565b9050919050565b613be981613bbf565b82525050565b5f82825260208201905092915050565b50565b5f613c0d5f83613bef565b9150613c1882613bff565b5f82019050919050565b5f608082019050613c355f83018561308b565b613c426020830184613be0565b8181036040830152613c5381613c02565b90508181036060830152613c6681613c02565b90509392505050565b7f4f6e6c792073656c6c65722063616e2063616e63656c206c697374696e6700005f82015250565b5f613ca3601e83613223565b9150613cae82613c6f565b602082019050919050565b5f6020820190508181035f830152613cd081613c97565b9050919050565b7f4e487b71000000000000000000000000000000000000000000000000000000005f52602260045260245ffd5b5f6002820490506001821680613d1b57607f821691505b602082108103613d2e57613d2d613cd7565b5b50919050565b5f819050815f5260205f209050919050565b5f8154613d5281613d04565b613d5c8186613850565b9450600182165f8114613d765760018114613d8b57613dbd565b60ff1983168652811515820286019350613dbd565b613d9485613d34565b5f5b83811015613db557815481890152600182019150602081019050613d96565b838801955050505b50505092915050565b5f613dd18284613d46565b915081905092915050565b7f52656379636c6572206d75737420686176652076616c6964206d656d626572735f8201527f6869700000000000000000000000000000000000000000000000000000000000602082015250565b5f613e36602383613223565b9150613e4182613ddc565b604082019050919050565b5f6020820190508181035f830152613e6381613e2a565b9050919050565b5f6040820190508181035f830152613e838185876139b5565b9050613e926020830184612fab565b949350505050565b7f4d75737420686176652076616c69642072656379636c6572206d656d626572735f8201527f6869700000000000000000000000000000000000000000000000000000000000602082015250565b5f613ef4602383613223565b9150613eff82613e9a565b604082019050919050565b5f6020820190508181035f830152613f2181613ee8565b9050919050565b7f496e73756666696369656e742070726f636573736564207761737465000000005f82015250565b5f613f5c601c83613223565b9150613f6782613f28565b602082019050919050565b5f6020820190508181035f830152613f8981613f50565b9050919050565b5f6020601f8301049050919050565b5f82821b905092915050565b5f60088302613fda7fffffffffffffffffffffffffffffffffffffffffffffffffffffffffffffffff82613f9f565b613fe48683613f9f565b95508019841693508086168417925050509392505050565b5f61401661401161400c84612ab8565b612c55565b612ab8565b9050919050565b5f819050919050565b61402f83613ffc565b61404361403b8261401d565b848454613fab565b825550505050565b5f5f905090565b61405a61404b565b614065818484614026565b505050565b5b818110156140885761407d5f82614052565b60018101905061406b565b5050565b601f8211156140cd5761409e81613d34565b6140a784613f90565b810160208510156140b6578190505b6140ca6140c285613f90565b83018261406a565b50505b505050565b5f82821c905092915050565b5f6140ed5f19846008026140d2565b1980831691505092915050565b5f61410583836140de565b9150826002028217905092915050565b61411e82613219565b67ffffffffffffffff81111561413757614136612e2d565b5b6141418254613d04565b61414c82828561408c565b5f60209050601f83116001811461417d575f841561416b578287015190505b61417585826140fa565b8655506141dc565b601f19841661418b86613d34565b5f5b828110156141b25784890151825560018201915060208501945060208101905061418d565b868310156141cf57848901516141cb601f8916826140de565b8355505b6001600288020188555050505b50505050505056fea264697066735822122064c68988104353fd7fd22a71531aefd19ead748eaf589a6469e48752ad38bec564736f6c634300081e0033","linkReferences":{}},"methodIdentifiers":{"cancelListing(uint256)":"305a67a8","collectedWaste(address,string)":"48ac2e40","collectorLock()":"9dc7efa1","createListing(string,uint256,uint256)":"7950ca95","getAccessibleListingIds()":"16cc5936","getMembershipExpiration(address,uint8)":"aa27e68f","getUserProfile(address)":"987ee156","hasValidMembership(address,uint8)":"c28c50ca","listings(uint256)":"de74e57b","nextListingId()":"aaccf1ec","owner()":"8da5cb5b","processedWaste(address,string)":"8165d406","purchaseListing(uint256,uint256)":"00b395f4","purchaseMembership(uint8)":"265a5eea","recyclerLock()":"13c8f2e2","renounceOwnership()":"715018a6","setSortifyToken(address)":"d37a5252","sortifyToken()":"e5d0088f","totalWasteCollected(address)":"a773ebfc","totalWasteProcessed(address)":"c435be0f","transferOwnership(address)":"f2fde38b","updateWasteRewardRate(string,uint256)":"cdcb5ca9","userReputation(address)":"e503bb05","verifierLock()":"97356ebd","verifyWasteCollection(address,string,uint256)":"0a881065","verifyWasteProcessing(address,string,uint256)":"5ccf1a87","wasteRewardRates(string)":"804ee9e7"},"id":42}