{"abi":[{"type":"constructor","inputs":[{"name":"initialOwner","type":"address","internalType":"address"}],"stateMutability":"nonpayable"},{"type":"function","name":"MAX_SUPPLY","inputs":[],"outputs":[{"name":"","type":"uint256","internalType":"uint256"}],"stateMutability":"view"},{"type":"function","name":"addMinter","inputs":[{"name":"_minter","type":"address","internalType":"address"}],"outputs":[],"stateMutability":"nonpayable"},{"type":"function","name":"allowance","inputs":[{"name":"owner","type":"address","internalType":"address"},{"name":"spender","type":"address","internalType":"address"}],"outputs":[{"name":"","type":"uint256","internalType":"uint256"}],"stateMutability":"view"},{"type":"function","name":"approve","inputs":[{"name":"spender","type":"address","internalType":"address"},{"name":"value","type":"uint256","internalType":"uint256"}],"outputs":[{"name":"","type":"bool","internalType":"bool"}],"stateMutability":"nonpayable"},{"type":"function","name":"balanceOf","inputs":[{"name":"account","type":"address","internalType":"address"}],"outputs":[{"name":"","type":"uint256","internalType":"uint256"}],"stateMutability":"view"},{"type":"function","name":"burn","inputs":[{"name":"value","type":"uint256","internalType":"uint256"}],"outputs":[],"stateMutability":"nonpayable"},{"type":"function","name":"burnFrom","inputs":[{"name":"account","type":"address","internalType":"address"},{"name":"value","type":"uint256","internalType":"uint256"}],"outputs":[],"stateMutability":"nonpayable"},{"type":"function","name":"decimals","inputs":[],"outputs":[{"name":"","type":"uint8","internalType":"uint8"}],"stateMutability":"view"},{"type":"function","name":"mint","inputs":[{"name":"to","type":"address","internalType":"address"},{"name":"amount","type":"uint256","internalType":"uint256"}],"outputs":[],"stateMutability":"nonpayable"},{"type":"function","name":"mint","inputs":[{"name":"to","type":"address","internalType":"address"},{"name":"amount","type":"uint256","internalType":"uint256"},{"name":"reason","type":"string","internalType":"string"}],"outputs":[],"stateMutability":"nonpayable"},{"type":"function","name":"minters","inputs":[{"name":"","type":"address","internalType":"address"}],"outputs":[{"name":"","type":"bool","internalType":"bool"}],"stateMutability":"view"},{"type":"function","name":"name","inputs":[],"outputs":[{"name":"","type":"string","internalType":"string"}],"stateMutability":"view"},{"type":"function","name":"owner","inputs":[],"outputs":[{"name":"","type":"address","internalType":"address"}],"stateMutability":"view"},{"type":"function","name":"pause","inputs":[],"outputs":[],"stateMutability":"nonpayable"},{"type":"function","name":"paused","inputs":[],"outputs":[{"name":"","type":"bool","internalType":"bool"}],"stateMutability":"view"},{"type":"function","name":"removeMinter","inputs":[{"name":"_minter","type":"address","internalType":"address"}],"outputs":[],"stateMutability":"nonpayable"},{"type":"function","name":"renounceOwnership","inputs":[],"outputs":[],"stateMutability":"nonpayable"},{"type":"function","name":"symbol","inputs":[],"outputs":[{"name":"","type":"string","internalType":"string"}],"stateMutability":"view"},{"type":"function","name":"totalSupply","inputs":[],"outputs":[{"name":"","type":"uint256","internalType":"uint256"}],"stateMutability":"view"},{"type":"function","name":"transfer","inputs":[{"name":"to","type":"address","internalType":"address"},{"name":"value","type":"uint256","internalType":"uint256"}],"outputs":[{"name":"","type":"bool","internalType":"bool"}],"stateMutability":"nonpayable"},{"type":"function","name":"transferFrom","inputs":[{"name":"from","type":"address","internalType":"address"},{"name":"to","type":"address","internalType":"address"},{"name":"value","type":"uint256","internalType":"uint256"}],"outputs":[{"name":"","type":"bool","internalType":"bool"}],"stateMutability":"nonpayable"},{"type":"function","name":"transferOwnership","inputs":[{"name":"newOwner","type":"address","internalType":"address"}],"outputs":[],"stateMutability":"nonpayable"},{"type":"function","name":"unpause","inputs":[],"outputs":[],"stateMutability":"nonpayable"},{"type":"event","name":"Approval","inputs":[{"name":"owner","type":"address","indexed":true,"internalType":"address"},{"name":"spender","type":"address","indexed":true,"internalType":"address"},{"name":"value","type":"uint256","indexed":false,"internalType":"uint256"}],"anonymous":false},{"type":"event","name":"MinterAdded","inputs":[{"name":"minter","type":"address","indexed":true,"internalType":"address"}],"anonymous":false},{"type":"event","name":"MinterRemoved","inputs":[{"name":"minter","type":"address","indexed":true,"internalType":"address"}],"anonymous":false},{"type":"event","name":"OwnershipTransferred","inputs":[{"name":"previousOwner","type":"address","indexed":true,"internalType":"address"},{"name":"newOwner","type":"address","indexed":true,"internalType":"address"}],"anonymous":false},{"type":"event","name":"Paused","inputs":[{"name":"account","type":"address","indexed":false,"internalType":"address"}],"anonymous":false},{"type":"event","name":"TokensMinted","inputs":[{"name":"to","type":"address","indexed":true,"internalType":"address"},{"name":"amount","type":"uint256","indexed":false,"internalType":"uint256"},{"name":"reason","type":"string","indexed":false,"internalType":"string"}],"anonymous":false},{"type":"event","name":"Transfer","inputs":[{"name":"from","type":"address","indexed":true,"internalType":"address"},{"name":"to","type":"address","indexed":true,"internalType":"address"},{"name":"value","type":"uint256","indexed":false,"internalType":"uint256"}],"anonymous":false},{"type":"event","name":"Unpaused","inputs":[{"name":"account","type":"address","indexed":false,"internalType":"address"}],"anonymous":false},{"type":"error","name":"ERC20InsufficientAllowance","inputs":[{"name":"spender","type":"address","internalType":"address"},{"name":"allowance","type":"uint256","internalType":"uint256"},{"name":"needed","type":"uint256","internalType":"uint256"}]},{"type":"error","name":"ERC20InsufficientBalance","inputs":[{"name":"sender","type":"address","internalType":"address"},{"name":"balance","type":"uint256","internalType":"uint256"},{"name":"needed","type":"uint256","internalType":"uint256"}]},{"type":"error","name":"ERC20InvalidApprover","inputs":[{"name":"approver","type":"address","internalType":"address"}]},{"type":"error","name":"ERC20InvalidReceiver","inputs":[{"name":"receiver","type":"address","internalType":"address"}]},{"type":"error","name":"ERC20InvalidSender","inputs":[{"name":"sender","type":"address","internalType":"address"}]},{"type":"error","name":"ERC20InvalidSpender","inputs":[{"name":"spender","type":"address","internalType":"address"}]},{"type":"error","name":"EnforcedPause","inputs":[]},{"type":"error","name":"ExpectedPause","inputs":[]},{"type":"error","name":"OwnableInvalidOwner","inputs":[{"name":"owner","type":"address","internalType":"address"}]},{"type":"error","name":"OwnableUnauthorizedAccount","inputs":[{"name":"account","type":"address","internalType":"address"}]}],"bytecode":{"object":"0x6080604052346104405761129a6020813803918261001c81610444565b93849283398101031261044057516001600160a01b03811690819003610440576100466040610444565b90600d82526c29b7b93a34b33c902a37b5b2b760991b602083015261006b6040610444565b600481526314d3d49560e21b602082015282519091906001600160401b03811161035157600354600181811c91168015610436575b602082101461033357601f81116103d3575b506020601f821160011461037057819293945f92610365575b50508160011b915f199060031b1c1916176003555b81516001600160401b03811161035157600454600181811c91168015610347575b602082101461033357601f81116102d0575b50602092601f821160011461026f57928192935f92610264575b50508160011b915f199060031b1c1916176004555b801561025157600580546001600160a01b031981168317918290559091906001600160a01b03167f8be0079c531659141344cd1fd0a4f28419497f9722a3daafe3b4186f6b6457e05f80a3331561023e5760a01c60ff1661022f576002546a52b7d2dcc80cd2e4000000810180911161021b57600255335f525f60205260405f206a52b7d2dcc80cd2e400000081540190556040516a52b7d2dcc80cd2e400000081525f7fddf252ad1be2c89b69c2b068fc378daa952ba7f163c4a11628f55a4df523b3ef60203393a3604051610e30908161046a8239f35b634e487b7160e01b5f52601160045260245ffd5b63d93c066560e01b5f5260045ffd5b63ec442f0560e01b5f525f60045260245ffd5b631e4fbdf760e01b5f525f60045260245ffd5b015190505f8061012d565b601f1982169360045f52805f20915f5b8681106102b857508360019596106102a0575b505050811b01600455610142565b01515f1960f88460031b161c191690555f8080610292565b9192602060018192868501518155019401920161027f565b60045f527f8a35acfbc15ff81a39ae7d344fd709f28e8600b4aa8c65c6b64bfe7fe36bd19b601f830160051c81019160208410610329575b601f0160051c01905b81811061031e5750610113565b5f8155600101610311565b9091508190610308565b634e487b7160e01b5f52602260045260245ffd5b90607f1690610101565b634e487b7160e01b5f52604160045260245ffd5b015190505f806100cb565b601f1982169060035f52805f20915f5b8181106103bb575095836001959697106103a3575b505050811b016003556100e0565b01515f1960f88460031b161c191690555f8080610395565b9192602060018192868b015181550194019201610380565b60035f527fc2575a0e9e593c00f959f8c92f12db2869c3395a3b0502d05e2516446f71f85b601f830160051c8101916020841061042c575b601f0160051c01905b81811061042157506100b2565b5f8155600101610414565b909150819061040b565b90607f16906100a0565b5f80fd5b6040519190601f01601f191682016001600160401b038111838210176103515760405256fe6080806040526004361015610012575f80fd5b5f3560e01c90816306fdde031461098757508063095ea7b3146108df57806318160ddd146108c257806323b872dd1461088a5780633092afd514610825578063313ce5671461080a57806332cb6b0c146107e45780633f4ba83a1461077657806340c10f19146106b457806342966c68146106975780635c975abb1461067257806370a082311461063b578063715018a6146105e057806379cc6790146105ae5780638456cb591461054d5780638da5cb5b1461052557806395d89b4114610419578063983b2d56146103b1578063a9059cbb14610380578063d3fc986414610230578063dd62ed3e146101e0578063f2fde38b1461015a5763f46eccc414610119575f80fd5b34610156576020366003190112610156576001600160a01b0361013a610a63565b165f526006602052602060ff60405f2054166040519015158152f35b5f80fd5b3461015657602036600319011261015657610173610a63565b61017b610cc4565b6001600160a01b031680156101cd57600580546001600160a01b0319811683179091556001600160a01b03167f8be0079c531659141344cd1fd0a4f28419497f9722a3daafe3b4186f6b6457e05f80a3005b631e4fbdf760e01b5f525f60045260245ffd5b34610156576040366003190112610156576101f9610a63565b610201610a79565b6001600160a01b039182165f908152600160209081526040808320949093168252928352819020549051908152f35b3461015657606036600319011261015657610249610a63565b602435906044359067ffffffffffffffff821161015657366023830112156101565781600401359267ffffffffffffffff841161036c5760405193610298601f8201601f191660200186610a8f565b8085523660248286010111610156576020815f9260247f9d89e36eadf856db0ad9ffb5a569e07f95634dddd9501141ecf04820484ad0dc97018389013786010152335f52600660205260ff60405f2054168015610358575b6102f990610ab1565b610301610ceb565b6103246b033b2e3c9fd0803ce800000061031d83600254610af6565b1115610b17565b61032e8183610d09565b61035360405192839283526040602084015260018060a01b0316946040830190610a3f565b0390a2005b506005546001600160a01b031633146102f0565b634e487b7160e01b5f52604160045260245ffd5b34610156576040366003190112610156576103a661039c610a63565b6024359033610bff565b602060405160018152f35b34610156576020366003190112610156576103ca610a63565b6103d2610cc4565b6001600160a01b03165f818152600660205260408120805460ff191660011790557f6ae172837ea30b801fbfcdd4108aa1d5bf8ff775444fd70256b44e6bf3dfc3f69080a2005b34610156575f366003190112610156576040515f6004548060011c9060018116801561051b575b602083108114610507578285529081156104e35750600114610485575b6104818361046d81850382610a8f565b604051918291602083526020830190610a3f565b0390f35b91905060045f527f8a35acfbc15ff81a39ae7d344fd709f28e8600b4aa8c65c6b64bfe7fe36bd19b915f905b8082106104c95750909150810160200161046d61045d565b9192600181602092548385880101520191019092916104b1565b60ff191660208086019190915291151560051b8401909101915061046d905061045d565b634e487b7160e01b5f52602260045260245ffd5b91607f1691610440565b34610156575f366003190112610156576005546040516001600160a01b039091168152602090f35b34610156575f36600319011261015657610565610cc4565b61056d610ceb565b6005805460ff60a01b1916600160a01b1790556040513381527f62e78cea01bee320cd4e420270b5ea74000d11b0c9f74754ebdbfc544b05a25890602090a1005b34610156576040366003190112610156576105de6105ca610a63565b602435906105d9823383610b5c565b610d6e565b005b34610156575f366003190112610156576105f8610cc4565b600580546001600160a01b031981169091555f906001600160a01b03167f8be0079c531659141344cd1fd0a4f28419497f9722a3daafe3b4186f6b6457e08280a3005b34610156576020366003190112610156576001600160a01b0361065c610a63565b165f525f602052602060405f2054604051908152f35b34610156575f36600319011261015657602060ff60055460a01c166040519015158152f35b34610156576020366003190112610156576105de60043533610d6e565b34610156576040366003190112610156576106cd610a63565b7f9d89e36eadf856db0ad9ffb5a569e07f95634dddd9501141ecf04820484ad0dc606060243592335f52600660205260ff60405f2054168015610762575b61071490610ab1565b61071c610ceb565b6107386b033b2e3c9fd0803ce800000061031d86600254610af6565b6107428482610d09565b60408051948552602085018190525f908501526001600160a01b031692a2005b506005546001600160a01b0316331461070b565b34610156575f3660031901126101565761078e610cc4565b60055460ff8160a01c16156107d55760ff60a01b19166005556040513381527f5db9ee0a495bf2e6ff9c91a7834c1ba4fdd244a5e8aa4e537bd38aeae4b073aa90602090a1005b638dfc202b60e01b5f5260045ffd5b34610156575f3660031901126101565760206040516b033b2e3c9fd0803ce80000008152f35b34610156575f36600319011261015657602060405160128152f35b346101565760203660031901126101565761083e610a63565b610846610cc4565b6001600160a01b03165f818152600660205260408120805460ff191690557fe94479a9f7e1952cc78f2d6baab678adc1b772d936c6583def489e524cb666929080a2005b34610156576060366003190112610156576103a66108a6610a63565b6108ae610a79565b604435916108bd833383610b5c565b610bff565b34610156575f366003190112610156576020600254604051908152f35b34610156576040366003190112610156576108f8610a63565b602435903315610974576001600160a01b031690811561096157335f52600160205260405f20825f526020528060405f20556040519081527f8c5be1e5ebec7d5bd14f71427d1e84f3dd0314c0f7b2291e5b200ac8c7c3b92560203392a3602060405160018152f35b634a1406b160e11b5f525f60045260245ffd5b63e602df0560e01b5f525f60045260245ffd5b34610156575f366003190112610156575f6003548060011c90600181168015610a35575b602083108114610507578285529081156104e357506001146109d7576104818361046d81850382610a8f565b91905060035f527fc2575a0e9e593c00f959f8c92f12db2869c3395a3b0502d05e2516446f71f85b915f905b808210610a1b5750909150810160200161046d61045d565b919260018160209254838588010152019101909291610a03565b91607f16916109ab565b805180835260209291819084018484015e5f828201840152601f01601f1916010190565b600435906001600160a01b038216820361015657565b602435906001600160a01b038216820361015657565b90601f8019910116810190811067ffffffffffffffff82111761036c57604052565b15610ab857565b60405162461bcd60e51b8152602060048201526016602482015275139bdd08185d5d1a1bdc9a5e9959081d1bc81b5a5b9d60521b6044820152606490fd5b91908201809211610b0357565b634e487b7160e01b5f52601160045260245ffd5b15610b1e57565b60405162461bcd60e51b815260206004820152601660248201527545786365656473206d6178696d756d20737570706c7960501b6044820152606490fd5b6001600160a01b039081165f818152600160209081526040808320948616835293905291909120549291905f198410610b96575b50505050565b828410610bdc578015610974576001600160a01b03821615610961575f52600160205260405f209060018060a01b03165f5260205260405f20910390555f808080610b90565b508290637dc7a0d960e11b5f5260018060a01b031660045260245260445260645ffd5b6001600160a01b0316908115610cb1576001600160a01b0316918215610c9e57610c27610ceb565b815f525f60205260405f2054818110610c8557817fddf252ad1be2c89b69c2b068fc378daa952ba7f163c4a11628f55a4df523b3ef92602092855f525f84520360405f2055845f525f825260405f20818154019055604051908152a3565b8263391434e360e21b5f5260045260245260445260645ffd5b63ec442f0560e01b5f525f60045260245ffd5b634b637e8f60e11b5f525f60045260245ffd5b6005546001600160a01b03163303610cd857565b63118cdaa760e01b5f523360045260245ffd5b60ff60055460a01c16610cfa57565b63d93c066560e01b5f5260045ffd5b6001600160a01b0316908115610c9e577fddf252ad1be2c89b69c2b068fc378daa952ba7f163c4a11628f55a4df523b3ef60205f92610d46610ceb565b610d5281600254610af6565b60025584845283825260408420818154019055604051908152a3565b9091906001600160a01b03168015610cb157610d88610ceb565b805f525f60205260405f2054838110610de0576020845f94957fddf252ad1be2c89b69c2b068fc378daa952ba7f163c4a11628f55a4df523b3ef938587528684520360408620558060025403600255604051908152a3565b915063391434e360e21b5f5260045260245260445260645ffdfea2646970667358221220ccb8417afdce4f781c31269996774b4b7c28febea780d77931e81985764822ce64736f6c634300081e0033","linkReferences":{}},"methodIdentifiers":{"MAX_SUPPLY()":"32cb6b0c","addMinter(address)":"983b2d56","allowance(address,address)":"dd62ed3e","approve(address,uint256)":"095ea7b3","balanceOf(address)":"70a08231","burn(uint256)":"42966c68","burnFrom(address,uint256)":"79cc6790","decimals()":"313ce567","mint(address,uint256)":"40c10f19","mint(address,uint256,string)":"d3fc9864","minters(address)":"f46eccc4","name()":"06fdde03","owner()":"8da5cb5b","pause()":"8456cb59","paused()":"5c975abb","removeMinter(address)":"3092afd5","renounceOwnership()":"715018a6","symbol()":"95d89b41","totalSupply()":"18160ddd","transfer(address,uint256)":"a9059cbb","transferFrom(address,address,uint256)":"23b872dd","transferOwnership(address)":"f2fde38b","unpause()":"3f4ba83a"},"id":46}