{"abi":[{"type":"constructor","inputs":[{"name":"initialOwner","type":"address","internalType":"address"}],"stateMutability":"nonpayable"},{"type":"function","name":"MAX_SUPPLY","inputs":[],"outputs":[{"name":"","type":"uint256","internalType":"uint256"}],"stateMutability":"view"},{"type":"function","name":"addMinter","inputs":[{"name":"_minter","type":"address","internalType":"address"}],"outputs":[],"stateMutability":"nonpayable"},{"type":"function","name":"allowance","inputs":[{"name":"owner","type":"address","internalType":"address"},{"name":"spender","type":"address","internalType":"address"}],"outputs":[{"name":"","type":"uint256","internalType":"uint256"}],"stateMutability":"view"},{"type":"function","name":"approve","inputs":[{"name":"spender","type":"address","internalType":"address"},{"name":"value","type":"uint256","internalType":"uint256"}],"outputs":[{"name":"","type":"bool","internalType":"bool"}],"stateMutability":"nonpayable"},{"type":"function","name":"balanceOf","inputs":[{"name":"account","type":"address","internalType":"address"}],"outputs":[{"name":"","type":"uint256","internalType":"uint256"}],"stateMutability":"view"},{"type":"function","name":"burn","inputs":[{"name":"value","type":"uint256","internalType":"uint256"}],"outputs":[],"stateMutability":"nonpayable"},{"type":"function","name":"burnFrom","inputs":[{"name":"account","type":"address","internalType":"address"},{"name":"value","type":"uint256","internalType":"uint256"}],"outputs":[],"stateMutability":"nonpayable"},{"type":"function","name":"decimals","inputs":[],"outputs":[{"name":"","type":"uint8","internalType":"uint8"}],"stateMutability":"view"},{"type":"function","name":"mint","inputs":[{"name":"to","type":"address","internalType":"address"},{"name":"amount","type":"uint256","internalType":"uint256"}],"outputs":[],"stateMutability":"nonpayable"},{"type":"function","name":"mint","inputs":[{"name":"to","type":"address","internalType":"address"},{"name":"amount","type":"uint256","internalType":"uint256"},{"name":"reason","type":"string","internalType":"string"}],"outputs":[],"stateMutability":"nonpayable"},{"type":"function","name":"minters","inputs":[{"name":"","type":"address","internalType":"address"}],"outputs":[{"name":"","type":"bool","internalType":"bool"}],"stateMutability":"view"},{"type":"function","name":"name","inputs":[],"outputs":[{"name":"","type":"string","internalType":"string"}],"stateMutability":"view"},{"type":"function","name":"owner","inputs":[],"outputs":[{"name":"","type":"address","internalType":"address"}],"stateMutability":"view"},{"type":"function","name":"pause","inputs":[],"outputs":[],"stateMutability":"nonpayable"},{"type":"function","name":"paused","inputs":[],"outputs":[{"name":"","type":"bool","internalType":"bool"}],"stateMutability":"view"},{"type":"function","name":"removeMinter","inputs":[{"name":"_minter","type":"address","internalType":"address"}],"outputs":[],"stateMutability":"nonpayable"},{"type":"function","name":"renounceOwnership","inputs":[],"outputs":[],"stateMutability":"nonpayable"},{"type":"function","name":"symbol","inputs":[],"outputs":[{"name":"","type":"string","internalType":"string"}],"stateMutability":"view"},{"type":"function","name":"totalSupply","inputs":[],"outputs":[{"name":"","type":"uint256","internalType":"uint256"}],"stateMutability":"view"},{"type":"function","name":"transfer","inputs":[{"name":"to","type":"address","internalType":"address"},{"name":"value","type":"uint256","internalType":"uint256"}],"outputs":[{"name":"","type":"bool","internalType":"bool"}],"stateMutability":"nonpayable"},{"type":"function","name":"transferFrom","inputs":[{"name":"from","type":"address","internalType":"address"},{"name":"to","type":"address","internalType":"address"},{"name":"value","type":"uint256","internalType":"uint256"}],"outputs":[{"name":"","type":"bool","internalType":"bool"}],"stateMutability":"nonpayable"},{"type":"function","name":"transferOwnership","inputs":[{"name":"newOwner","type":"address","internalType":"address"}],"outputs":[],"stateMutability":"nonpayable"},{"type":"function","name":"unpause","inputs":[],"outputs":[],"stateMutability":"nonpayable"},{"type":"event","name":"Approval","inputs":[{"name":"owner","type":"address","indexed":true,"internalType":"address"},{"name":"spender","type":"address","indexed":true,"internalType":"address"},{"name":"value","type":"uint256","indexed":false,"internalType":"uint256"}],"anonymous":false},{"type":"event","name":"MinterAdded","inputs":[{"name":"minter","type":"address","indexed":true,"internalType":"address"}],"anonymous":false},{"type":"event","name":"MinterRemoved","inputs":[{"name":"minter","type":"address","indexed":true,"internalType":"address"}],"anonymous":false},{"type":"event","name":"OwnershipTransferred","inputs":[{"name":"previousOwner","type":"address","indexed":true,"internalType":"address"},{"name":"newOwner","type":"address","indexed":true,"internalType":"address"}],"anonymous":false},{"type":"event","name":"Paused","inputs":[{"name":"account","type":"address","indexed":false,"internalType":"address"}],"anonymous":false},{"type":"event","name":"TokensMinted","inputs":[{"name":"to","type":"address","indexed":true,"internalType":"address"},{"name":"amount","type":"uint256","indexed":false,"internalType":"uint256"},{"name":"reason","type":"string","indexed":false,"internalType":"string"}],"anonymous":false},{"type":"event","name":"Transfer","inputs":[{"name":"from","type":"address","indexed":true,"internalType":"address"},{"name":"to","type":"address","indexed":true,"internalType":"address"},{"name":"value","type":"uint256","indexed":false,"internalType":"uint256"}],"anonymous":false},{"type":"event","name":"Unpaused","inputs":[{"name":"account","type":"address","indexed":false,"internalType":"address"}],"anonymous":false},{"type":"error","name":"ERC20InsufficientAllowance","inputs":[{"name":"spender","type":"address","internalType":"address"},{"name":"allowance","type":"uint256","internalType":"uint256"},{"name":"needed","type":"uint256","internalType":"uint256"}]},{"type":"error","name":"ERC20InsufficientBalance","inputs":[{"name":"sender","type":"address","internalType":"address"},{"name":"balance","type":"uint256","internalType":"uint256"},{"name":"needed","type":"uint256","internalType":"uint256"}]},{"type":"error","name":"ERC20InvalidApprover","inputs":[{"name":"approver","type":"address","internalType":"address"}]},{"type":"error","name":"ERC20InvalidReceiver","inputs":[{"name":"receiver","type":"address","internalType":"address"}]},{"type":"error","name":"ERC20InvalidSender","inputs":[{"name":"sender","type":"address","internalType":"address"}]},{"type":"error","name":"ERC20InvalidSpender","inputs":[{"name":"spender","type":"address","internalType":"address"}]},{"type":"error","name":"EnforcedPause","inputs":[]},{"type":"error","name":"ExpectedPause","inputs":[]},{"type":"error","name":"OwnableInvalidOwner","inputs":[{"name":"owner","type":"address","internalType":"address"}]},{"type":"error","name":"OwnableUnauthorizedAccount","inputs":[{"name":"account","type":"address","internalType":"address"}]}],"bytecode":{"object":"0x608060405234801561000f575f5ffd5b5060405161264d38038061264d833981810160405281019061003191906105a1565b806040518060400160405280600d81526020017f536f727469667920546f6b656e000000000000000000000000000000000000008152506040518060400160405280600481526020017f534f52540000000000000000000000000000000000000000000000000000000081525081600390816100ad9190610809565b5080600490816100bd9190610809565b5050505f73ffffffffffffffffffffffffffffffffffffffff168173ffffffffffffffffffffffffffffffffffffffff1603610130575f6040517f1e4fbdf700000000000000000000000000000000000000000000000000000000815260040161012791906108e7565b60405180910390fd5b61013f8161016160201b60201c565b5061015b336a52b7d2dcc80cd2e400000061022460201b60201c565b506109bd565b5f60055f9054906101000a900473ffffffffffffffffffffffffffffffffffffffff1690508160055f6101000a81548173ffffffffffffffffffffffffffffffffffffffff021916908373ffffffffffffffffffffffffffffffffffffffff1602179055508173ffffffffffffffffffffffffffffffffffffffff168173ffffffffffffffffffffffffffffffffffffffff167f8be0079c531659141344cd1fd0a4f28419497f9722a3daafe3b4186f6b6457e060405160405180910390a35050565b5f73ffffffffffffffffffffffffffffffffffffffff168273ffffffffffffffffffffffffffffffffffffffff1603610294575f6040517fec442f0500000000000000000000000000000000000000000000000000000000815260040161028b91906108e7565b60405180910390fd5b6102a55f83836102a960201b60201c565b5050565b6102b76102cd60201b60201c565b6102c883838361031460201b60201c565b505050565b6102db61052d60201b60201c565b15610312576040517fd93c066500000000000000000000000000000000000000000000000000000000815260040160405180910390fd5b565b5f73ffffffffffffffffffffffffffffffffffffffff168373ffffffffffffffffffffffffffffffffffffffff1603610364578060025f828254610358919061092d565b92505081905550610432565b5f5f5f8573ffffffffffffffffffffffffffffffffffffffff1673ffffffffffffffffffffffffffffffffffffffff1681526020019081526020015f20549050818110156103ed578381836040517fe450d38c0000000000000000000000000000000000000000000000000000000081526004016103e49392919061096f565b60405180910390fd5b8181035f5f8673ffffffffffffffffffffffffffffffffffffffff1673ffffffffffffffffffffffffffffffffffffffff1681526020019081526020015f2081905550505b5f73ffffffffffffffffffffffffffffffffffffffff168273ffffffffffffffffffffffffffffffffffffffff1603610479578060025f82825403925050819055506104c3565b805f5f8473ffffffffffffffffffffffffffffffffffffffff1673ffffffffffffffffffffffffffffffffffffffff1681526020019081526020015f205f82825401925050819055505b8173ffffffffffffffffffffffffffffffffffffffff168373ffffffffffffffffffffffffffffffffffffffff167fddf252ad1be2c89b69c2b068fc378daa952ba7f163c4a11628f55a4df523b3ef8360405161052091906109a4565b60405180910390a3505050565b5f600560149054906101000a900460ff16905090565b5f5ffd5b5f73ffffffffffffffffffffffffffffffffffffffff82169050919050565b5f61057082610547565b9050919050565b61058081610566565b811461058a575f5ffd5b50565b5f8151905061059b81610577565b92915050565b5f602082840312156105b6576105b5610543565b5b5f6105c38482850161058d565b91505092915050565b5f81519050919050565b7f4e487b71000000000000000000000000000000000000000000000000000000005f52604160045260245ffd5b7f4e487b71000000000000000000000000000000000000000000000000000000005f52602260045260245ffd5b5f600282049050600182168061064757607f821691505b60208210810361065a57610659610603565b5b50919050565b5f819050815f5260205f209050919050565b5f6020601f8301049050919050565b5f82821b905092915050565b5f600883026106bc7fffffffffffffffffffffffffffffffffffffffffffffffffffffffffffffffff82610681565b6106c68683610681565b95508019841693508086168417925050509392505050565b5f819050919050565b5f819050919050565b5f61070a610705610700846106de565b6106e7565b6106de565b9050919050565b5f819050919050565b610723836106f0565b61073761072f82610711565b84845461068d565b825550505050565b5f5f905090565b61074e61073f565b61075981848461071a565b505050565b5b8181101561077c576107715f82610746565b60018101905061075f565b5050565b601f8211156107c15761079281610660565b61079b84610672565b810160208510156107aa578190505b6107be6107b685610672565b83018261075e565b50505b505050565b5f82821c905092915050565b5f6107e15f19846008026107c6565b1980831691505092915050565b5f6107f983836107d2565b9150826002028217905092915050565b610812826105cc565b67ffffffffffffffff81111561082b5761082a6105d6565b5b6108358254610630565b610840828285610780565b5f60209050601f831160018114610871575f841561085f578287015190505b61086985826107ee565b8655506108d0565b601f19841661087f86610660565b5f5b828110156108a657848901518255600182019150602085019450602081019050610881565b868310156108c357848901516108bf601f8916826107d2565b8355505b6001600288020188555050505b505050505050565b6108e181610566565b82525050565b5f6020820190506108fa5f8301846108d8565b92915050565b7f4e487b71000000000000000000000000000000000000000000000000000000005f52601160045260245ffd5b5f610937826106de565b9150610942836106de565b925082820190508082111561095a57610959610900565b5b92915050565b610969816106de565b82525050565b5f6060820190506109825f8301866108d8565b61098f6020830185610960565b61099c6040830184610960565b949350505050565b5f6020820190506109b75f830184610960565b92915050565b611c83806109ca5f395ff3fe608060405234801561000f575f5ffd5b506004361061014b575f3560e01c806370a08231116100c1578063983b2d561161007a578063983b2d561461033f578063a9059cbb1461035b578063d3fc98641461038b578063dd62ed3e146103a7578063f2fde38b146103d7578063f46eccc4146103f35761014b565b806370a08231146102a3578063715018a6146102d357806379cc6790146102dd5780638456cb59146102f95780638da5cb5b1461030357806395d89b41146103215761014b565b8063313ce56711610113578063313ce5671461020757806332cb6b0c146102255780633f4ba83a1461024357806340c10f191461024d57806342966c68146102695780635c975abb146102855761014b565b806306fdde031461014f578063095ea7b31461016d57806318160ddd1461019d57806323b872dd146101bb5780633092afd5146101eb575b5f5ffd5b610157610423565b60405161016491906115df565b60405180910390f35b6101876004803603810190610182919061169d565b6104b3565b60405161019491906116f5565b60405180910390f35b6101a56104d5565b6040516101b2919061171d565b60405180910390f35b6101d560048036038101906101d09190611736565b6104de565b6040516101e291906116f5565b60405180910390f35b61020560048036038101906102009190611786565b61050c565b005b61020f6105ae565b60405161021c91906117cc565b60405180910390f35b61022d6105b6565b60405161023a919061171d565b60405180910390f35b61024b6105c6565b005b6102676004803603810190610262919061169d565b6105d8565b005b610283600480360381019061027e91906117e5565b610763565b005b61028d610777565b60405161029a91906116f5565b60405180910390f35b6102bd60048036038101906102b89190611786565b61078d565b6040516102ca919061171d565b60405180910390f35b6102db6107d2565b005b6102f760048036038101906102f2919061169d565b6107e5565b005b610301610805565b005b61030b610817565b604051610318919061181f565b60405180910390f35b61032961083f565b60405161033691906115df565b60405180910390f35b61035960048036038101906103549190611786565b6108cf565b005b6103756004803603810190610370919061169d565b610972565b60405161038291906116f5565b60405180910390f35b6103a560048036038101906103a09190611964565b610994565b005b6103c160048036038101906103bc91906119d0565b610b22565b6040516103ce919061171d565b60405180910390f35b6103f160048036038101906103ec9190611786565b610ba4565b005b61040d60048036038101906104089190611786565b610c28565b60405161041a91906116f5565b60405180910390f35b60606003805461043290611a3b565b80601f016020809104026020016040519081016040528092919081815260200182805461045e90611a3b565b80156104a95780601f10610480576101008083540402835291602001916104a9565b820191905f5260205f20905b81548152906001019060200180831161048c57829003601f168201915b5050505050905090565b5f5f6104bd610c45565b90506104ca818585610c4c565b600191505092915050565b5f600254905090565b5f5f6104e8610c45565b90506104f5858285610c5e565b610500858585610cf1565b60019150509392505050565b610514610de1565b5f60065f8373ffffffffffffffffffffffffffffffffffffffff1673ffffffffffffffffffffffffffffffffffffffff1681526020019081526020015f205f6101000a81548160ff0219169083151502179055508073ffffffffffffffffffffffffffffffffffffffff167fe94479a9f7e1952cc78f2d6baab678adc1b772d936c6583def489e524cb6669260405160405180910390a250565b5f6012905090565b6b033b2e3c9fd0803ce800000081565b6105ce610de1565b6105d6610e68565b565b60065f3373ffffffffffffffffffffffffffffffffffffffff1673ffffffffffffffffffffffffffffffffffffffff1681526020019081526020015f205f9054906101000a900460ff168061065f5750610630610817565b73ffffffffffffffffffffffffffffffffffffffff163373ffffffffffffffffffffffffffffffffffffffff16145b61069e576040517f08c379a000000000000000000000000000000000000000000000000000000000815260040161069590611ab5565b60405180910390fd5b6106a6610eca565b6b033b2e3c9fd0803ce8000000816106bc6104d5565b6106c69190611b00565b1115610707576040517f08c379a00000000000000000000000000000000000000000000000000000000081526004016106fe90611b7d565b60405180910390fd5b6107118282610f0b565b8173ffffffffffffffffffffffffffffffffffffffff167f9d89e36eadf856db0ad9ffb5a569e07f95634dddd9501141ecf04820484ad0dc826040516107579190611bbe565b60405180910390a25050565b61077461076e610c45565b82610f8a565b50565b5f600560149054906101000a900460ff16905090565b5f5f5f8373ffffffffffffffffffffffffffffffffffffffff1673ffffffffffffffffffffffffffffffffffffffff1681526020019081526020015f20549050919050565b6107da610de1565b6107e35f611009565b565b6107f7826107f1610c45565b83610c5e565b6108018282610f8a565b5050565b61080d610de1565b6108156110cc565b565b5f60055f9054906101000a900473ffffffffffffffffffffffffffffffffffffffff16905090565b60606004805461084e90611a3b565b80601f016020809104026020016040519081016040528092919081815260200182805461087a90611a3b565b80156108c55780601f1061089c576101008083540402835291602001916108c5565b820191905f5260205f20905b8154815290600101906020018083116108a857829003601f168201915b5050505050905090565b6108d7610de1565b600160065f8373ffffffffffffffffffffffffffffffffffffffff1673ffffffffffffffffffffffffffffffffffffffff1681526020019081526020015f205f6101000a81548160ff0219169083151502179055508073ffffffffffffffffffffffffffffffffffffffff167f6ae172837ea30b801fbfcdd4108aa1d5bf8ff775444fd70256b44e6bf3dfc3f660405160405180910390a250565b5f5f61097c610c45565b9050610989818585610cf1565b600191505092915050565b60065f3373ffffffffffffffffffffffffffffffffffffffff1673ffffffffffffffffffffffffffffffffffffffff1681526020019081526020015f205f9054906101000a900460ff1680610a1b57506109ec610817565b73ffffffffffffffffffffffffffffffffffffffff163373ffffffffffffffffffffffffffffffffffffffff16145b610a5a576040517f08c379a0000000000000000000000000000000000000000000000000000000008152600401610a5190611ab5565b60405180910390fd5b610a62610eca565b6b033b2e3c9fd0803ce800000082610a786104d5565b610a829190611b00565b1115610ac3576040517f08c379a0000000000000000000000000000000000000000000000000000000008152600401610aba90611b7d565b60405180910390fd5b610acd8383610f0b565b8273ffffffffffffffffffffffffffffffffffffffff167f9d89e36eadf856db0ad9ffb5a569e07f95634dddd9501141ecf04820484ad0dc8383604051610b15929190611bea565b60405180910390a2505050565b5f60015f8473ffffffffffffffffffffffffffffffffffffffff1673ffffffffffffffffffffffffffffffffffffffff1681526020019081526020015f205f8373ffffffffffffffffffffffffffffffffffffffff1673ffffffffffffffffffffffffffffffffffffffff1681526020019081526020015f2054905092915050565b610bac610de1565b5f73ffffffffffffffffffffffffffffffffffffffff168173ffffffffffffffffffffffffffffffffffffffff1603610c1c575f6040517f1e4fbdf7000000000000000000000000000000000000000000000000000000008152600401610c13919061181f565b60405180910390fd5b610c2581611009565b50565b6006602052805f5260405f205f915054906101000a900460ff1681565b5f33905090565b610c59838383600161112f565b505050565b5f610c698484610b22565b90507fffffffffffffffffffffffffffffffffffffffffffffffffffffffffffffffff811015610ceb5781811015610cdc578281836040517ffb8f41b2000000000000000000000000000000000000000000000000000000008152600401610cd393929190611c18565b60405180910390fd5b610cea84848484035f61112f565b5b50505050565b5f73ffffffffffffffffffffffffffffffffffffffff168373ffffffffffffffffffffffffffffffffffffffff1603610d61575f6040517f96c6fd1e000000000000000000000000000000000000000000000000000000008152600401610d58919061181f565b60405180910390fd5b5f73ffffffffffffffffffffffffffffffffffffffff168273ffffffffffffffffffffffffffffffffffffffff1603610dd1575f6040517fec442f05000000000000000000000000000000000000000000000000000000008152600401610dc8919061181f565b60405180910390fd5b610ddc8383836112fe565b505050565b610de9610c45565b73ffffffffffffffffffffffffffffffffffffffff16610e07610817565b73ffffffffffffffffffffffffffffffffffffffff1614610e6657610e2a610c45565b6040517f118cdaa7000000000000000000000000000000000000000000000000000000008152600401610e5d919061181f565b60405180910390fd5b565b610e70611316565b5f600560146101000a81548160ff0219169083151502179055507f5db9ee0a495bf2e6ff9c91a7834c1ba4fdd244a5e8aa4e537bd38aeae4b073aa610eb3610c45565b604051610ec0919061181f565b60405180910390a1565b610ed2610777565b15610f09576040517fd93c066500000000000000000000000000000000000000000000000000000000815260040160405180910390fd5b565b5f73ffffffffffffffffffffffffffffffffffffffff168273ffffffffffffffffffffffffffffffffffffffff1603610f7b575f6040517fec442f05000000000000000000000000000000000000000000000000000000008152600401610f72919061181f565b60405180910390fd5b610f865f83836112fe565b5050565b5f73ffffffffffffffffffffffffffffffffffffffff168273ffffffffffffffffffffffffffffffffffffffff1603610ffa575f6040517f96c6fd1e000000000000000000000000000000000000000000000000000000008152600401610ff1919061181f565b60405180910390fd5b611005825f836112fe565b5050565b5f60055f9054906101000a900473ffffffffffffffffffffffffffffffffffffffff1690508160055f6101000a81548173ffffffffffffffffffffffffffffffffffffffff021916908373ffffffffffffffffffffffffffffffffffffffff1602179055508173ffffffffffffffffffffffffffffffffffffffff168173ffffffffffffffffffffffffffffffffffffffff167f8be0079c531659141344cd1fd0a4f28419497f9722a3daafe3b4186f6b6457e060405160405180910390a35050565b6110d4610eca565b6001600560146101000a81548160ff0219169083151502179055507f62e78cea01bee320cd4e420270b5ea74000d11b0c9f74754ebdbfc544b05a258611118610c45565b604051611125919061181f565b60405180910390a1565b5f73ffffffffffffffffffffffffffffffffffffffff168473ffffffffffffffffffffffffffffffffffffffff160361119f575f6040517fe602df05000000000000000000000000000000000000000000000000000000008152600401611196919061181f565b60405180910390fd5b5f73ffffffffffffffffffffffffffffffffffffffff168373ffffffffffffffffffffffffffffffffffffffff160361120f575f6040517f94280d62000000000000000000000000000000000000000000000000000000008152600401611206919061181f565b60405180910390fd5b8160015f8673ffffffffffffffffffffffffffffffffffffffff1673ffffffffffffffffffffffffffffffffffffffff1681526020019081526020015f205f8573ffffffffffffffffffffffffffffffffffffffff1673ffffffffffffffffffffffffffffffffffffffff1681526020019081526020015f208190555080156112f8578273ffffffffffffffffffffffffffffffffffffffff168473ffffffffffffffffffffffffffffffffffffffff167f8c5be1e5ebec7d5bd14f71427d1e84f3dd0314c0f7b2291e5b200ac8c7c3b925846040516112ef919061171d565b60405180910390a35b50505050565b611306610eca565b611311838383611356565b505050565b61131e610777565b611354576040517f8dfc202b00000000000000000000000000000000000000000000000000000000815260040160405180910390fd5b565b5f73ffffffffffffffffffffffffffffffffffffffff168373ffffffffffffffffffffffffffffffffffffffff16036113a6578060025f82825461139a9190611b00565b92505081905550611474565b5f5f5f8573ffffffffffffffffffffffffffffffffffffffff1673ffffffffffffffffffffffffffffffffffffffff1681526020019081526020015f205490508181101561142f578381836040517fe450d38c00000000000000000000000000000000000000000000000000000000815260040161142693929190611c18565b60405180910390fd5b8181035f5f8673ffffffffffffffffffffffffffffffffffffffff1673ffffffffffffffffffffffffffffffffffffffff1681526020019081526020015f2081905550505b5f73ffffffffffffffffffffffffffffffffffffffff168273ffffffffffffffffffffffffffffffffffffffff16036114bb578060025f8282540392505081905550611505565b805f5f8473ffffffffffffffffffffffffffffffffffffffff1673ffffffffffffffffffffffffffffffffffffffff1681526020019081526020015f205f82825401925050819055505b8173ffffffffffffffffffffffffffffffffffffffff168373ffffffffffffffffffffffffffffffffffffffff167fddf252ad1be2c89b69c2b068fc378daa952ba7f163c4a11628f55a4df523b3ef83604051611562919061171d565b60405180910390a3505050565b5f81519050919050565b5f82825260208201905092915050565b8281835e5f83830152505050565b5f601f19601f8301169050919050565b5f6115b18261156f565b6115bb8185611579565b93506115cb818560208601611589565b6115d481611597565b840191505092915050565b5f6020820190508181035f8301526115f781846115a7565b905092915050565b5f604051905090565b5f5ffd5b5f5ffd5b5f73ffffffffffffffffffffffffffffffffffffffff82169050919050565b5f61163982611610565b9050919050565b6116498161162f565b8114611653575f5ffd5b50565b5f8135905061166481611640565b92915050565b5f819050919050565b61167c8161166a565b8114611686575f5ffd5b50565b5f8135905061169781611673565b92915050565b5f5f604083850312156116b3576116b2611608565b5b5f6116c085828601611656565b92505060206116d185828601611689565b9150509250929050565b5f8115159050919050565b6116ef816116db565b82525050565b5f6020820190506117085f8301846116e6565b92915050565b6117178161166a565b82525050565b5f6020820190506117305f83018461170e565b92915050565b5f5f5f6060848603121561174d5761174c611608565b5b5f61175a86828701611656565b935050602061176b86828701611656565b925050604061177c86828701611689565b9150509250925092565b5f6020828403121561179b5761179a611608565b5b5f6117a884828501611656565b91505092915050565b5f60ff82169050919050565b6117c6816117b1565b82525050565b5f6020820190506117df5f8301846117bd565b92915050565b5f602082840312156117fa576117f9611608565b5b5f61180784828501611689565b91505092915050565b6118198161162f565b82525050565b5f6020820190506118325f830184611810565b92915050565b5f5ffd5b5f5ffd5b7f4e487b71000000000000000000000000000000000000000000000000000000005f52604160045260245ffd5b61187682611597565b810181811067ffffffffffffffff8211171561189557611894611840565b5b80604052505050565b5f6118a76115ff565b90506118b3828261186d565b919050565b5f67ffffffffffffffff8211156118d2576118d1611840565b5b6118db82611597565b9050602081019050919050565b828183375f83830152505050565b5f611908611903846118b8565b61189e565b9050828152602081018484840111156119245761192361183c565b5b61192f8482856118e8565b509392505050565b5f82601f83011261194b5761194a611838565b5b813561195b8482602086016118f6565b91505092915050565b5f5f5f6060848603121561197b5761197a611608565b5b5f61198886828701611656565b935050602061199986828701611689565b925050604084013567ffffffffffffffff8111156119ba576119b961160c565b5b6119c686828701611937565b9150509250925092565b5f5f604083850312156119e6576119e5611608565b5b5f6119f385828601611656565b9250506020611a0485828601611656565b9150509250929050565b7f4e487b71000000000000000000000000000000000000000000000000000000005f52602260045260245ffd5b5f6002820490506001821680611a5257607f821691505b602082108103611a6557611a64611a0e565b5b50919050565b7f4e6f7420617574686f72697a656420746f206d696e74000000000000000000005f82015250565b5f611a9f601683611579565b9150611aaa82611a6b565b602082019050919050565b5f6020820190508181035f830152611acc81611a93565b9050919050565b7f4e487b71000000000000000000000000000000000000000000000000000000005f52601160045260245ffd5b5f611b0a8261166a565b9150611b158361166a565b9250828201905080821115611b2d57611b2c611ad3565b5b92915050565b7f45786365656473206d6178696d756d20737570706c79000000000000000000005f82015250565b5f611b67601683611579565b9150611b7282611b33565b602082019050919050565b5f6020820190508181035f830152611b9481611b5b565b9050919050565b50565b5f611ba95f83611579565b9150611bb482611b9b565b5f82019050919050565b5f604082019050611bd15f83018461170e565b8181036020830152611be281611b9e565b905092915050565b5f604082019050611bfd5f83018561170e565b8181036020830152611c0f81846115a7565b90509392505050565b5f606082019050611c2b5f830186611810565b611c38602083018561170e565b611c45604083018461170e565b94935050505056fea264697066735822122000764f5ca4cc43d33d1fb7688fe438361287df36cf430524258982c71b4ad65064736f6c634300081e0033","linkReferences":{}},"methodIdentifiers":{"MAX_SUPPLY()":"32cb6b0c","addMinter(address)":"983b2d56","allowance(address,address)":"dd62ed3e","approve(address,uint256)":"095ea7b3","balanceOf(address)":"70a08231","burn(uint256)":"42966c68","burnFrom(address,uint256)":"79cc6790","decimals()":"313ce567","mint(address,uint256)":"40c10f19","mint(address,uint256,string)":"d3fc9864","minters(address)":"f46eccc4","name()":"06fdde03","owner()":"8da5cb5b","pause()":"8456cb59","paused()":"5c975abb","removeMinter(address)":"3092afd5","renounceOwnership()":"715018a6","symbol()":"95d89b41","totalSupply()":"18160ddd","transfer(address,uint256)":"a9059cbb","transferFrom(address,address,uint256)":"23b872dd","transferOwnership(address)":"f2fde38b","unpause()":"3f4ba83a"},"id":43}