{"abi":[{"type":"constructor","inputs":[{"name":"initialOwner","type":"address","internalType":"address"},{"name":"_sortifyToken","type":"address","internalType":"address"}],"stateMutability":"nonpayable"},{"type":"function","name":"addAuthorizedCollector","inputs":[{"name":"collector","type":"address","internalType":"address"}],"outputs":[],"stateMutability":"nonpayable"},{"type":"function","name":"addSmartBin","inputs":[{"name":"location","type":"string","internalType":"string"},{"name":"latitude","type":"int256","internalType":"int256"},{"name":"longitude","type":"int256","internalType":"int256"},{"name":"acceptedTypes","type":"uint8[]","internalType":"enum WasteCollection.WasteType[]"}],"outputs":[],"stateMutability":"nonpayable"},{"type":"function","name":"authorizedCollectors","inputs":[{"name":"","type":"address","internalType":"address"}],"outputs":[{"name":"","type":"bool","internalType":"bool"}],"stateMutability":"view"},{"type":"function","name":"collections","inputs":[{"name":"","type":"uint256","internalType":"uint256"}],"outputs":[{"name":"id","type":"uint256","internalType":"uint256"},{"name":"user","type":"address","internalType":"address"},{"name":"location","type":"string","internalType":"string"},{"name":"latitude","type":"int256","internalType":"int256"},{"name":"longitude","type":"int256","internalType":"int256"},{"name":"scheduledDate","type":"uint256","internalType":"uint256"},{"name":"status","type":"uint8","internalType":"enum WasteCollection.CollectionStatus"},{"name":"totalReward","type":"uint256","internalType":"uint256"},{"name":"createdAt","type":"uint256","internalType":"uint256"},{"name":"completedAt","type":"uint256","internalType":"uint256"},{"name":"collector","type":"address","internalType":"address"}],"stateMutability":"view"},{"type":"function","name":"completeCollection","inputs":[{"name":"collectionId","type":"uint256","internalType":"uint256"}],"outputs":[],"stateMutability":"nonpayable"},{"type":"function","name":"getCollection","inputs":[{"name":"collectionId","type":"uint256","internalType":"uint256"}],"outputs":[{"name":"","type":"tuple","internalType":"struct WasteCollection.Collection","components":[{"name":"id","type":"uint256","internalType":"uint256"},{"name":"user","type":"address","internalType":"address"},{"name":"items","type":"tuple[]","internalType":"struct WasteCollection.WasteItem[]","components":[{"name":"wasteType","type":"uint8","internalType":"enum WasteCollection.WasteType"},{"name":"weight","type":"uint256","internalType":"uint256"},{"name":"rewardRate","type":"uint256","internalType":"uint256"}]},{"name":"location","type":"string","internalType":"string"},{"name":"latitude","type":"int256","internalType":"int256"},{"name":"longitude","type":"int256","internalType":"int256"},{"name":"scheduledDate","type":"uint256","internalType":"uint256"},{"name":"status","type":"uint8","internalType":"enum WasteCollection.CollectionStatus"},{"name":"totalReward","type":"uint256","internalType":"uint256"},{"name":"createdAt","type":"uint256","internalType":"uint256"},{"name":"completedAt","type":"uint256","internalType":"uint256"},{"name":"collector","type":"address","internalType":"address"}]}],"stateMutability":"view"},{"type":"function","name":"getSmartBin","inputs":[{"name":"binId","type":"uint256","internalType":"uint256"}],"outputs":[{"name":"","type":"tuple","internalType":"struct WasteCollection.SmartBin","components":[{"name":"id","type":"uint256","internalType":"uint256"},{"name":"location","type":"string","internalType":"string"},{"name":"latitude","type":"int256","internalType":"int256"},{"name":"longitude","type":"int256","internalType":"int256"},{"name":"isActive","type":"bool","internalType":"bool"},{"name":"fillLevel","type":"uint256","internalType":"uint256"},{"name":"lastEmptied","type":"uint256","internalType":"uint256"},{"name":"acceptedTypes","type":"uint8[]","internalType":"enum WasteCollection.WasteType[]"}]}],"stateMutability":"view"},{"type":"function","name":"nextBinId","inputs":[],"outputs":[{"name":"","type":"uint256","internalType":"uint256"}],"stateMutability":"view"},{"type":"function","name":"nextCollectionId","inputs":[],"outputs":[{"name":"","type":"uint256","internalType":"uint256"}],"stateMutability":"view"},{"type":"function","name":"owner","inputs":[],"outputs":[{"name":"","type":"address","internalType":"address"}],"stateMutability":"view"},{"type":"function","name":"pause","inputs":[],"outputs":[],"stateMutability":"nonpayable"},{"type":"function","name":"paused","inputs":[],"outputs":[{"name":"","type":"bool","internalType":"bool"}],"stateMutability":"view"},{"type":"function","name":"removeAuthorizedCollector","inputs":[{"name":"collector","type":"address","internalType":"address"}],"outputs":[],"stateMutability":"nonpayable"},{"type":"function","name":"renounceOwnership","inputs":[],"outputs":[],"stateMutability":"nonpayable"},{"type":"function","name":"requestCollection","inputs":[{"name":"items","type":"tuple[]","internalType":"struct WasteCollection.WasteItem[]","components":[{"name":"wasteType","type":"uint8","internalType":"enum WasteCollection.WasteType"},{"name":"weight","type":"uint256","internalType":"uint256"},{"name":"rewardRate","type":"uint256","internalType":"uint256"}]},{"name":"location","type":"string","internalType":"string"},{"name":"latitude","type":"int256","internalType":"int256"},{"name":"longitude","type":"int256","internalType":"int256"},{"name":"scheduledDate","type":"uint256","internalType":"uint256"}],"outputs":[],"stateMutability":"nonpayable"},{"type":"function","name":"rewardRates","inputs":[{"name":"","type":"uint8","internalType":"enum WasteCollection.WasteType"}],"outputs":[{"name":"","type":"uint256","internalType":"uint256"}],"stateMutability":"view"},{"type":"function","name":"scheduleCollection","inputs":[{"name":"collectionId","type":"uint256","internalType":"uint256"}],"outputs":[],"stateMutability":"nonpayable"},{"type":"function","name":"smartBins","inputs":[{"name":"","type":"uint256","internalType":"uint256"}],"outputs":[{"name":"id","type":"uint256","internalType":"uint256"},{"name":"location","type":"string","internalType":"string"},{"name":"latitude","type":"int256","internalType":"int256"},{"name":"longitude","type":"int256","internalType":"int256"},{"name":"isActive","type":"bool","internalType":"bool"},{"name":"fillLevel","type":"uint256","internalType":"uint256"},{"name":"lastEmptied","type":"uint256","internalType":"uint256"}],"stateMutability":"view"},{"type":"function","name":"sortifyToken","inputs":[],"outputs":[{"name":"","type":"address","internalType":"contract SortifyToken"}],"stateMutability":"view"},{"type":"function","name":"totalCollections","inputs":[],"outputs":[{"name":"","type":"uint256","internalType":"uint256"}],"stateMutability":"view"},{"type":"function","name":"totalWasteCollected","inputs":[],"outputs":[{"name":"","type":"uint256","internalType":"uint256"}],"stateMutability":"view"},{"type":"function","name":"transferOwnership","inputs":[{"name":"newOwner","type":"address","internalType":"address"}],"outputs":[],"stateMutability":"nonpayable"},{"type":"function","name":"unpause","inputs":[],"outputs":[],"stateMutability":"nonpayable"},{"type":"function","name":"updateRewardRate","inputs":[{"name":"wasteType","type":"uint8","internalType":"enum WasteCollection.WasteType"},{"name":"newRate","type":"uint256","internalType":"uint256"}],"outputs":[],"stateMutability":"nonpayable"},{"type":"function","name":"updateSmartBinStatus","inputs":[{"name":"binId","type":"uint256","internalType":"uint256"},{"name":"fillLevel","type":"uint256","internalType":"uint256"},{"name":"isActive","type":"bool","internalType":"bool"}],"outputs":[],"stateMutability":"nonpayable"},{"type":"function","name":"useSmartBin","inputs":[{"name":"binId","type":"uint256","internalType":"uint256"},{"name":"wasteType","type":"uint8","internalType":"enum WasteCollection.WasteType"},{"name":"weight","type":"uint256","internalType":"uint256"}],"outputs":[],"stateMutability":"nonpayable"},{"type":"event","name":"CollectionCompleted","inputs":[{"name":"collectionId","type":"uint256","indexed":true,"internalType":"uint256"},{"name":"reward","type":"uint256","indexed":false,"internalType":"uint256"}],"anonymous":false},{"type":"event","name":"CollectionRequested","inputs":[{"name":"collectionId","type":"uint256","indexed":true,"internalType":"uint256"},{"name":"user","type":"address","indexed":true,"internalType":"address"},{"name":"totalWeight","type":"uint256","indexed":false,"internalType":"uint256"}],"anonymous":false},{"type":"event","name":"CollectionScheduled","inputs":[{"name":"collectionId","type":"uint256","indexed":true,"internalType":"uint256"},{"name":"collector","type":"address","indexed":true,"internalType":"address"},{"name":"scheduledDate","type":"uint256","indexed":false,"internalType":"uint256"}],"anonymous":false},{"type":"event","name":"OwnershipTransferred","inputs":[{"name":"previousOwner","type":"address","indexed":true,"internalType":"address"},{"name":"newOwner","type":"address","indexed":true,"internalType":"address"}],"anonymous":false},{"type":"event","name":"Paused","inputs":[{"name":"account","type":"address","indexed":false,"internalType":"address"}],"anonymous":false},{"type":"event","name":"RewardRateUpdated","inputs":[{"name":"wasteType","type":"uint8","indexed":false,"internalType":"enum WasteCollection.WasteType"},{"name":"newRate","type":"uint256","indexed":false,"internalType":"uint256"}],"anonymous":false},{"type":"event","name":"SmartBinAdded","inputs":[{"name":"binId","type":"uint256","indexed":true,"internalType":"uint256"},{"name":"location","type":"string","indexed":false,"internalType":"string"}],"anonymous":false},{"type":"event","name":"SmartBinUsed","inputs":[{"name":"binId","type":"uint256","indexed":true,"internalType":"uint256"},{"name":"user","type":"address","indexed":true,"internalType":"address"},{"name":"wasteType","type":"uint8","indexed":false,"internalType":"enum WasteCollection.WasteType"},{"name":"weight","type":"uint256","indexed":false,"internalType":"uint256"},{"name":"reward","type":"uint256","indexed":false,"internalType":"uint256"}],"anonymous":false},{"type":"event","name":"Unpaused","inputs":[{"name":"account","type":"address","indexed":false,"internalType":"address"}],"anonymous":false},{"type":"error","name":"EnforcedPause","inputs":[]},{"type":"error","name":"ExpectedPause","inputs":[]},{"type":"error","name":"OwnableInvalidOwner","inputs":[{"name":"owner","type":"address","internalType":"address"}]},{"type":"error","name":"OwnableUnauthorizedAccount","inputs":[{"name":"account","type":"address","internalType":"address"}]},{"type":"error","name":"ReentrancyGuardReentrantCall","inputs":[]}],"bytecode":{"object":"0x608060405260016007556001600855348015610019575f5ffd5b50604051613a93380380613a93833981810160405281019061003b91906103ba565b815f73ffffffffffffffffffffffffffffffffffffffff168173ffffffffffffffffffffffffffffffffffffffff16036100ac575f6040517f1e4fbdf70000000000000000000000000000000000000000000000000000000081526004016100a39190610407565b60405180910390fd5b6100bb8161029b60201b60201c565b506001808190555080600260016101000a81548173ffffffffffffffffffffffffffffffffffffffff021916908373ffffffffffffffffffffffffffffffffffffffff160217905550671bc16d674ec8000060065f5f600581111561012357610122610420565b5b600581111561013557610134610420565b5b81526020019081526020015f2081905550670de0b6b3a764000060065f6001600581111561016657610165610420565b5b600581111561017857610177610420565b5b81526020019081526020015f208190555067d02ab486cedc000060065f600260058111156101a9576101a8610420565b5b60058111156101bb576101ba610420565b5b81526020019081526020015f20819055506729a2241af62c000060065f600360058111156101ec576101eb610420565b5b60058111156101fe576101fd610420565b5b81526020019081526020015f2081905550674563918244f4000060065f6004600581111561022f5761022e610420565b5b600581111561024157610240610420565b5b81526020019081526020015f2081905550674563918244f4000060065f60058081111561027157610270610420565b5b600581111561028357610282610420565b5b81526020019081526020015f2081905550505061044d565b5f5f5f9054906101000a900473ffffffffffffffffffffffffffffffffffffffff169050815f5f6101000a81548173ffffffffffffffffffffffffffffffffffffffff021916908373ffffffffffffffffffffffffffffffffffffffff1602179055508173ffffffffffffffffffffffffffffffffffffffff168173ffffffffffffffffffffffffffffffffffffffff167f8be0079c531659141344cd1fd0a4f28419497f9722a3daafe3b4186f6b6457e060405160405180910390a35050565b5f5ffd5b5f73ffffffffffffffffffffffffffffffffffffffff82169050919050565b5f61038982610360565b9050919050565b6103998161037f565b81146103a3575f5ffd5b50565b5f815190506103b481610390565b92915050565b5f5f604083850312156103d0576103cf61035c565b5b5f6103dd858286016103a6565b92505060206103ee858286016103a6565b9150509250929050565b6104018161037f565b82525050565b5f60208201905061041a5f8301846103f8565b92915050565b7f4e487b71000000000000000000000000000000000000000000000000000000005f52602160045260245ffd5b6136398061045a5f395ff3fe608060405234801561000f575f5ffd5b506004361061018c575f3560e01c8063715018a6116100dc5780639f433e0d11610095578063e5d0088f1161006f578063e5d0088f14610436578063e77d6f7c14610454578063f2fde38b14610472578063fdbda0ec1461048e5761018c565b80639f433e0d146103e2578063c7ac86d6146103fe578063e0b1fb061461041a5761018c565b8063715018a6146103485780637624d63c146103525780637dc8efef1461036e5780638456cb591461039e5780638da5cb5b146103a85780638ec2c31c146103c65761018c565b80632e699c7911610149578063541cb57f11610123578063541cb57f146102ac5780635a1f3c28146102dc5780635c975abb1461030c57806361d9db2d1461032a5761018c565b80632e699c79146102545780633f4ba83a14610272578063464128781461027c5761018c565b8063111949bf146101905780631188802e146101c65780631e77d99d146101e45780631f083515146102005780632ce900691461021c5780632e3dfd9414610238575b5f5ffd5b6101aa60048036038101906101a59190611e3c565b6104c8565b6040516101bd9796959493929190611f18565b60405180910390f35b6101ce610598565b6040516101db9190611f8c565b60405180910390f35b6101fe60048036038101906101f99190611fcf565b61059e565b005b61021a6004803603810190610215919061225c565b6105f5565b005b610236600480360381019061023191906122f8565b61074e565b005b610252600480360381019061024d919061246d565b610a2e565b005b61025c610d82565b6040516102699190611f8c565b60405180910390f35b61027a610d88565b005b61029660048036038101906102919190612576565b610d9a565b6040516102a391906125a1565b60405180910390f35b6102c660048036038101906102c191906125ba565b610db7565b6040516102d39190611f8c565b60405180910390f35b6102f660048036038101906102f19190611e3c565b610dcc565b6040516103039190612903565b60405180910390f35b61031461105a565b60405161032191906125a1565b60405180910390f35b61033261106f565b60405161033f9190611f8c565b60405180910390f35b610350611075565b005b61036c60048036038101906103679190612576565b611088565b005b61038860048036038101906103839190611e3c565b6110e8565b6040516103959190612a8e565b60405180910390f35b6103a6611278565b005b6103b061128a565b6040516103bd9190612abd565b60405180910390f35b6103e060048036038101906103db9190611e3c565b6112b1565b005b6103fc60048036038101906103f79190611e3c565b611489565b005b61041860048036038101906104139190612576565b61178c565b005b610434600480360381019061042f9190612ad6565b6117eb565b005b61043e61186a565b60405161044b9190612b6f565b60405180910390f35b61045c611890565b6040516104699190611f8c565b60405180910390f35b61048c60048036038101906104879190612576565b611896565b005b6104a860048036038101906104a39190611e3c565b61191a565b6040516104bf9b9a99989796959493929190612b97565b60405180910390f35b6004602052805f5260405f205f91509050805f0154908060010180546104ed90612c74565b80601f016020809104026020016040519081016040528092919081815260200182805461051990612c74565b80156105645780601f1061053b57610100808354040283529160200191610564565b820191905f5260205f20905b81548152906001019060200180831161054757829003601f168201915b505050505090806002015490806003015490806004015f9054906101000a900460ff16908060050154908060060154905087565b600a5481565b6105a6611a40565b5f60045f8581526020019081526020015f20905082816005018190555081816004015f6101000a81548160ff0219169083151502179055505f83036105ef574281600601819055505b50505050565b6105fd611a40565b5f60085f81548092919061061090612cd1565b9190505590505f60045f8381526020019081526020015f20905081815f0181905550858160010190816106439190612eaf565b508481600201819055508381600301819055506001816004015f6101000a81548160ff0219169083151502179055505f81600501819055504281600601819055505f5f90505b835181101561070d57816007018482815181106106a9576106a8612f7e565b5b6020026020010151908060018154018082558091505060019003905f5260205f2090602091828204019190069091909190916101000a81548160ff021916908360058111156106fb576106fa61262c565b5b02179055508080600101915050610689565b50817f03863968edbea2ac81a4acdec120e8e128976ec85eec6ce58b51ff6082850f498760405161073e9190612fab565b60405180910390a2505050505050565b610756611ac7565b61075e611b0d565b5f60045f8581526020019081526020015f209050806004015f9054906101000a900460ff166107c2576040517f08c379a00000000000000000000000000000000000000000000000000000000081526004016107b990613015565b60405180910390fd5b5f8211610804576040517f08c379a00000000000000000000000000000000000000000000000000000000081526004016107fb9061307d565b60405180910390fd5b5f5f90505f5f90505b82600701805490508110156108905784600581111561082f5761082e61262c565b5b83600701828154811061084557610844612f7e565b5b905f5260205f2090602091828204019190069054906101000a900460ff1660058111156108755761087461262c565b5b036108835760019150610890565b808060010191505061080d565b50806108d1576040517f08c379a00000000000000000000000000000000000000000000000000000000081526004016108c89061310b565b60405180910390fd5b5f683635c9adc5dea0000060065f8760058111156108f2576108f161262c565b5b60058111156109045761090361262c565b5b81526020019081526020015f20548561091d9190613129565b6109279190613197565b905083600a5f82825461093a91906131c7565b92505081905550600260019054906101000a900473ffffffffffffffffffffffffffffffffffffffff1673ffffffffffffffffffffffffffffffffffffffff1663d3fc986433836040518363ffffffff1660e01b815260040161099e929190613244565b5f604051808303815f87803b1580156109b5575f5ffd5b505af11580156109c7573d5f5f3e3d5ffd5b505050503373ffffffffffffffffffffffffffffffffffffffff16867f0d9a6b81152f1ec3664930f0b7d0c6be7d37bc442513d2e20a536358b996a915878785604051610a169392919061328d565b60405180910390a3505050610a29611b4e565b505050565b610a36611b0d565b5f855111610a79576040517f08c379a0000000000000000000000000000000000000000000000000000000008152600401610a709061330c565b60405180910390fd5b428111610abb576040517f08c379a0000000000000000000000000000000000000000000000000000000008152600401610ab29061339a565b60405180910390fd5b5f60075f815480929190610ace90612cd1565b9190505590505f60035f8381526020019081526020015f20905081815f018190555033816001015f6101000a81548173ffffffffffffffffffffffffffffffffffffffff021916908373ffffffffffffffffffffffffffffffffffffffff16021790555085816003019081610b439190612eaf565b508481600401819055508381600501819055508281600601819055505f816007015f6101000a81548160ff02191690836004811115610b8557610b8461262c565b5b02179055504281600901819055505f5f90505f5f90505f5f90505b8951811015610d0757836002018a8281518110610bc057610bbf612f7e565b5b6020026020010151908060018154018082558091505060019003905f5260205f2090600302015f909190919091505f820151815f015f6101000a81548160ff02191690836005811115610c1657610c1561262c565b5b021790555060208201518160010155604082015181600201555050898181518110610c4457610c43612f7e565b5b60200260200101516020015183610c5b91906131c7565b9250683635c9adc5dea0000060065f8c8481518110610c7d57610c7c612f7e565b5b60200260200101515f01516005811115610c9a57610c9961262c565b5b6005811115610cac57610cab61262c565b5b81526020019081526020015f20548b8381518110610ccd57610ccc612f7e565b5b602002602001015160200151610ce39190613129565b610ced9190613197565b82610cf891906131c7565b91508080600101915050610ba0565b5080836008018190555060095f815480929190610d2390612cd1565b91905055503373ffffffffffffffffffffffffffffffffffffffff16847f8ecc4256ab9f0981dc795b2644aa40e0f9b451101ffb2d5a9731e016cdd0111684604051610d6f9190611f8c565b60405180910390a3505050505050505050565b60085481565b610d90611a40565b610d98611b57565b565b6005602052805f5260405f205f915054906101000a900460ff1681565b6006602052805f5260405f205f915090505481565b610dd4611d22565b60035f8381526020019081526020015f20604051806101800160405290815f8201548152602001600182015f9054906101000a900473ffffffffffffffffffffffffffffffffffffffff1673ffffffffffffffffffffffffffffffffffffffff1673ffffffffffffffffffffffffffffffffffffffff16815260200160028201805480602002602001604051908101604052809291908181526020015f905b82821015610ef0578382905f5260205f2090600302016040518060600160405290815f82015f9054906101000a900460ff166005811115610eb757610eb661262c565b5b6005811115610ec957610ec861262c565b5b81526020016001820154815260200160028201548152505081526020019060010190610e73565b505050508152602001600382018054610f0890612c74565b80601f0160208091040260200160405190810160405280929190818152602001828054610f3490612c74565b8015610f7f5780601f10610f5657610100808354040283529160200191610f7f565b820191905f5260205f20905b815481529060010190602001808311610f6257829003601f168201915b50505050508152602001600482015481526020016005820154815260200160068201548152602001600782015f9054906101000a900460ff166004811115610fca57610fc961262c565b5b6004811115610fdc57610fdb61262c565b5b81526020016008820154815260200160098201548152602001600a8201548152602001600b82015f9054906101000a900473ffffffffffffffffffffffffffffffffffffffff1673ffffffffffffffffffffffffffffffffffffffff1673ffffffffffffffffffffffffffffffffffffffff16815250509050919050565b5f60025f9054906101000a900460ff16905090565b60095481565b61107d611a40565b6110865f611bb8565b565b611090611a40565b600160055f8373ffffffffffffffffffffffffffffffffffffffff1673ffffffffffffffffffffffffffffffffffffffff1681526020019081526020015f205f6101000a81548160ff02191690831515021790555050565b6110f0611db7565b60045f8381526020019081526020015f20604051806101000160405290815f820154815260200160018201805461112690612c74565b80601f016020809104026020016040519081016040528092919081815260200182805461115290612c74565b801561119d5780601f106111745761010080835404028352916020019161119d565b820191905f5260205f20905b81548152906001019060200180831161118057829003601f168201915b505050505081526020016002820154815260200160038201548152602001600482015f9054906101000a900460ff1615151515815260200160058201548152602001600682015481526020016007820180548060200260200160405190810160405280929190818152602001828054801561126857602002820191905f5260205f20905f905b82829054906101000a900460ff1660058111156112435761124261262c565b5b815260200190600101906020825f010492830192600103820291508084116112235790505b5050505050815250509050919050565b611280611a40565b611288611c79565b565b5f5f5f9054906101000a900473ffffffffffffffffffffffffffffffffffffffff16905090565b60055f3373ffffffffffffffffffffffffffffffffffffffff1673ffffffffffffffffffffffffffffffffffffffff1681526020019081526020015f205f9054906101000a900460ff1661133a576040517f08c379a000000000000000000000000000000000000000000000000000000000815260040161133190613402565b60405180910390fd5b5f60035f8381526020019081526020015f2090505f60048111156113615761136061262c565b5b816007015f9054906101000a900460ff1660048111156113845761138361262c565b5b146113c4576040517f08c379a00000000000000000000000000000000000000000000000000000000081526004016113bb9061346a565b60405180910390fd5b6001816007015f6101000a81548160ff021916908360048111156113eb576113ea61262c565b5b02179055503381600b015f6101000a81548173ffffffffffffffffffffffffffffffffffffffff021916908373ffffffffffffffffffffffffffffffffffffffff1602179055503373ffffffffffffffffffffffffffffffffffffffff16827f51fa16bff6211d173196ded07a8985e3efdf8a014f7cfb5d3b3c027a19817b99836006015460405161147d9190611f8c565b60405180910390a35050565b611491611ac7565b5f60035f8381526020019081526020015f2090503373ffffffffffffffffffffffffffffffffffffffff1681600b015f9054906101000a900473ffffffffffffffffffffffffffffffffffffffff1673ffffffffffffffffffffffffffffffffffffffff1614611536576040517f08c379a000000000000000000000000000000000000000000000000000000000815260040161152d906134d2565b60405180910390fd5b6001600481111561154a5761154961262c565b5b816007015f9054906101000a900460ff16600481111561156d5761156c61262c565b5b14806115ad5750600260048111156115885761158761262c565b5b816007015f9054906101000a900460ff1660048111156115ab576115aa61262c565b5b145b6115ec576040517f08c379a00000000000000000000000000000000000000000000000000000000081526004016115e39061353a565b60405180910390fd5b6003816007015f6101000a81548160ff021916908360048111156116135761161261262c565b5b02179055504281600a01819055505f5f90505f5f90505b82600201805490508110156116795782600201818154811061164f5761164e612f7e565b5b905f5260205f209060030201600101548261166a91906131c7565b9150808060010191505061162a565b5080600a5f82825461168b91906131c7565b92505081905550600260019054906101000a900473ffffffffffffffffffffffffffffffffffffffff1673ffffffffffffffffffffffffffffffffffffffff1663d3fc9864836001015f9054906101000a900473ffffffffffffffffffffffffffffffffffffffff1684600801546040518363ffffffff1660e01b81526004016117169291906135a2565b5f604051808303815f87803b15801561172d575f5ffd5b505af115801561173f573d5f5f3e3d5ffd5b50505050827f91697ab14ca427699a581f47759b71be351ce42da79116ef0be621003535456883600801546040516117779190611f8c565b60405180910390a25050611789611b4e565b50565b611794611a40565b5f60055f8373ffffffffffffffffffffffffffffffffffffffff1673ffffffffffffffffffffffffffffffffffffffff1681526020019081526020015f205f6101000a81548160ff02191690831515021790555050565b6117f3611a40565b8060065f84600581111561180a5761180961262c565b5b600581111561181c5761181b61262c565b5b81526020019081526020015f20819055507fe3f408bbee4c8943793f63832208ab606680bfd72bfc8c49af7151dd656ff4ca828260405161185e9291906135dc565b60405180910390a15050565b600260019054906101000a900473ffffffffffffffffffffffffffffffffffffffff1681565b60075481565b61189e611a40565b5f73ffffffffffffffffffffffffffffffffffffffff168173ffffffffffffffffffffffffffffffffffffffff160361190e575f6040517f1e4fbdf70000000000000000000000000000000000000000000000000000000081526004016119059190612abd565b60405180910390fd5b61191781611bb8565b50565b6003602052805f5260405f205f91509050805f015490806001015f9054906101000a900473ffffffffffffffffffffffffffffffffffffffff169080600301805461196490612c74565b80601f016020809104026020016040519081016040528092919081815260200182805461199090612c74565b80156119db5780601f106119b2576101008083540402835291602001916119db565b820191905f5260205f20905b8154815290600101906020018083116119be57829003601f168201915b505050505090806004015490806005015490806006015490806007015f9054906101000a900460ff169080600801549080600901549080600a01549080600b015f9054906101000a900473ffffffffffffffffffffffffffffffffffffffff1690508b565b611a48611cdb565b73ffffffffffffffffffffffffffffffffffffffff16611a6661128a565b73ffffffffffffffffffffffffffffffffffffffff1614611ac557611a89611cdb565b6040517f118cdaa7000000000000000000000000000000000000000000000000000000008152600401611abc9190612abd565b60405180910390fd5b565b600260015403611b03576040517f3ee5aeb500000000000000000000000000000000000000000000000000000000815260040160405180910390fd5b6002600181905550565b611b1561105a565b15611b4c576040517fd93c066500000000000000000000000000000000000000000000000000000000815260040160405180910390fd5b565b60018081905550565b611b5f611ce2565b5f60025f6101000a81548160ff0219169083151502179055507f5db9ee0a495bf2e6ff9c91a7834c1ba4fdd244a5e8aa4e537bd38aeae4b073aa611ba1611cdb565b604051611bae9190612abd565b60405180910390a1565b5f5f5f9054906101000a900473ffffffffffffffffffffffffffffffffffffffff169050815f5f6101000a81548173ffffffffffffffffffffffffffffffffffffffff021916908373ffffffffffffffffffffffffffffffffffffffff1602179055508173ffffffffffffffffffffffffffffffffffffffff168173ffffffffffffffffffffffffffffffffffffffff167f8be0079c531659141344cd1fd0a4f28419497f9722a3daafe3b4186f6b6457e060405160405180910390a35050565b611c81611b0d565b600160025f6101000a81548160ff0219169083151502179055507f62e78cea01bee320cd4e420270b5ea74000d11b0c9f74754ebdbfc544b05a258611cc4611cdb565b604051611cd19190612abd565b60405180910390a1565b5f33905090565b611cea61105a565b611d20576040517f8dfc202b00000000000000000000000000000000000000000000000000000000815260040160405180910390fd5b565b6040518061018001604052805f81526020015f73ffffffffffffffffffffffffffffffffffffffff16815260200160608152602001606081526020015f81526020015f81526020015f81526020015f6004811115611d8357611d8261262c565b5b81526020015f81526020015f81526020015f81526020015f73ffffffffffffffffffffffffffffffffffffffff1681525090565b6040518061010001604052805f8152602001606081526020015f81526020015f81526020015f151581526020015f81526020015f8152602001606081525090565b5f604051905090565b5f5ffd5b5f5ffd5b5f819050919050565b611e1b81611e09565b8114611e25575f5ffd5b50565b5f81359050611e3681611e12565b92915050565b5f60208284031215611e5157611e50611e01565b5b5f611e5e84828501611e28565b91505092915050565b611e7081611e09565b82525050565b5f81519050919050565b5f82825260208201905092915050565b8281835e5f83830152505050565b5f601f19601f8301169050919050565b5f611eb882611e76565b611ec28185611e80565b9350611ed2818560208601611e90565b611edb81611e9e565b840191505092915050565b5f819050919050565b611ef881611ee6565b82525050565b5f8115159050919050565b611f1281611efe565b82525050565b5f60e082019050611f2b5f83018a611e67565b8181036020830152611f3d8189611eae565b9050611f4c6040830188611eef565b611f596060830187611eef565b611f666080830186611f09565b611f7360a0830185611e67565b611f8060c0830184611e67565b98975050505050505050565b5f602082019050611f9f5f830184611e67565b92915050565b611fae81611efe565b8114611fb8575f5ffd5b50565b5f81359050611fc981611fa5565b92915050565b5f5f5f60608486031215611fe657611fe5611e01565b5b5f611ff386828701611e28565b935050602061200486828701611e28565b925050604061201586828701611fbb565b9150509250925092565b5f5ffd5b5f5ffd5b7f4e487b71000000000000000000000000000000000000000000000000000000005f52604160045260245ffd5b61205d82611e9e565b810181811067ffffffffffffffff8211171561207c5761207b612027565b5b80604052505050565b5f61208e611df8565b905061209a8282612054565b919050565b5f67ffffffffffffffff8211156120b9576120b8612027565b5b6120c282611e9e565b9050602081019050919050565b828183375f83830152505050565b5f6120ef6120ea8461209f565b612085565b90508281526020810184848401111561210b5761210a612023565b5b6121168482856120cf565b509392505050565b5f82601f8301126121325761213161201f565b5b81356121428482602086016120dd565b91505092915050565b61215481611ee6565b811461215e575f5ffd5b50565b5f8135905061216f8161214b565b92915050565b5f67ffffffffffffffff82111561218f5761218e612027565b5b602082029050602081019050919050565b5f5ffd5b600681106121b0575f5ffd5b50565b5f813590506121c1816121a4565b92915050565b5f6121d96121d484612175565b612085565b905080838252602082019050602084028301858111156121fc576121fb6121a0565b5b835b81811015612225578061221188826121b3565b8452602084019350506020810190506121fe565b5050509392505050565b5f82601f8301126122435761224261201f565b5b81356122538482602086016121c7565b91505092915050565b5f5f5f5f6080858703121561227457612273611e01565b5b5f85013567ffffffffffffffff81111561229157612290611e05565b5b61229d8782880161211e565b94505060206122ae87828801612161565b93505060406122bf87828801612161565b925050606085013567ffffffffffffffff8111156122e0576122df611e05565b5b6122ec8782880161222f565b91505092959194509250565b5f5f5f6060848603121561230f5761230e611e01565b5b5f61231c86828701611e28565b935050602061232d868287016121b3565b925050604061233e86828701611e28565b9150509250925092565b5f67ffffffffffffffff82111561236257612361612027565b5b602082029050602081019050919050565b5f5ffd5b5f6060828403121561238c5761238b612373565b5b6123966060612085565b90505f6123a5848285016121b3565b5f8301525060206123b884828501611e28565b60208301525060406123cc84828501611e28565b60408301525092915050565b5f6123ea6123e584612348565b612085565b9050808382526020820190506060840283018581111561240d5761240c6121a0565b5b835b8181101561243657806124228882612377565b84526020840193505060608101905061240f565b5050509392505050565b5f82601f8301126124545761245361201f565b5b81356124648482602086016123d8565b91505092915050565b5f5f5f5f5f60a0868803121561248657612485611e01565b5b5f86013567ffffffffffffffff8111156124a3576124a2611e05565b5b6124af88828901612440565b955050602086013567ffffffffffffffff8111156124d0576124cf611e05565b5b6124dc8882890161211e565b94505060406124ed88828901612161565b93505060606124fe88828901612161565b925050608061250f88828901611e28565b9150509295509295909350565b5f73ffffffffffffffffffffffffffffffffffffffff82169050919050565b5f6125458261251c565b9050919050565b6125558161253b565b811461255f575f5ffd5b50565b5f813590506125708161254c565b92915050565b5f6020828403121561258b5761258a611e01565b5b5f61259884828501612562565b91505092915050565b5f6020820190506125b45f830184611f09565b92915050565b5f602082840312156125cf576125ce611e01565b5b5f6125dc848285016121b3565b91505092915050565b6125ee81611e09565b82525050565b6125fd8161253b565b82525050565b5f81519050919050565b5f82825260208201905092915050565b5f819050602082019050919050565b7f4e487b71000000000000000000000000000000000000000000000000000000005f52602160045260245ffd5b6006811061266a5761266961262c565b5b50565b5f81905061267a82612659565b919050565b5f6126898261266d565b9050919050565b6126998161267f565b82525050565b606082015f8201516126b35f850182612690565b5060208201516126c660208501826125e5565b5060408201516126d960408501826125e5565b50505050565b5f6126ea838361269f565b60608301905092915050565b5f602082019050919050565b5f61270c82612603565b612716818561260d565b93506127218361261d565b805f5b8381101561275157815161273888826126df565b9750612743836126f6565b925050600181019050612724565b5085935050505092915050565b5f82825260208201905092915050565b5f61277882611e76565b612782818561275e565b9350612792818560208601611e90565b61279b81611e9e565b840191505092915050565b6127af81611ee6565b82525050565b600581106127c6576127c561262c565b5b50565b5f8190506127d6826127b5565b919050565b5f6127e5826127c9565b9050919050565b6127f5816127db565b82525050565b5f61018083015f8301516128115f8601826125e5565b50602083015161282460208601826125f4565b506040830151848203604086015261283c8282612702565b91505060608301518482036060860152612856828261276e565b915050608083015161286b60808601826127a6565b5060a083015161287e60a08601826127a6565b5060c083015161289160c08601826125e5565b5060e08301516128a460e08601826127ec565b506101008301516128b96101008601826125e5565b506101208301516128ce6101208601826125e5565b506101408301516128e36101408601826125e5565b506101608301516128f86101608601826125f4565b508091505092915050565b5f6020820190508181035f83015261291b81846127fb565b905092915050565b61292c81611efe565b82525050565b5f81519050919050565b5f82825260208201905092915050565b5f819050602082019050919050565b5f6129668383612690565b60208301905092915050565b5f602082019050919050565b5f61298882612932565b612992818561293c565b935061299d8361294c565b805f5b838110156129cd5781516129b4888261295b565b97506129bf83612972565b9250506001810190506129a0565b5085935050505092915050565b5f61010083015f8301516129f05f8601826125e5565b5060208301518482036020860152612a08828261276e565b9150506040830151612a1d60408601826127a6565b506060830151612a3060608601826127a6565b506080830151612a436080860182612923565b5060a0830151612a5660a08601826125e5565b5060c0830151612a6960c08601826125e5565b5060e083015184820360e0860152612a81828261297e565b9150508091505092915050565b5f6020820190508181035f830152612aa681846129da565b905092915050565b612ab78161253b565b82525050565b5f602082019050612ad05f830184612aae565b92915050565b5f5f60408385031215612aec57612aeb611e01565b5b5f612af9858286016121b3565b9250506020612b0a85828601611e28565b9150509250929050565b5f819050919050565b5f612b37612b32612b2d8461251c565b612b14565b61251c565b9050919050565b5f612b4882612b1d565b9050919050565b5f612b5982612b3e565b9050919050565b612b6981612b4f565b82525050565b5f602082019050612b825f830184612b60565b92915050565b612b91816127db565b82525050565b5f61016082019050612bab5f83018e611e67565b612bb8602083018d612aae565b8181036040830152612bca818c611eae565b9050612bd9606083018b611eef565b612be6608083018a611eef565b612bf360a0830189611e67565b612c0060c0830188612b88565b612c0d60e0830187611e67565b612c1b610100830186611e67565b612c29610120830185611e67565b612c37610140830184612aae565b9c9b505050505050505050505050565b7f4e487b71000000000000000000000000000000000000000000000000000000005f52602260045260245ffd5b5f6002820490506001821680612c8b57607f821691505b602082108103612c9e57612c9d612c47565b5b50919050565b7f4e487b71000000000000000000000000000000000000000000000000000000005f52601160045260245ffd5b5f612cdb82611e09565b91507fffffffffffffffffffffffffffffffffffffffffffffffffffffffffffffffff8203612d0d57612d0c612ca4565b5b600182019050919050565b5f819050815f5260205f209050919050565b5f6020601f8301049050919050565b5f82821b905092915050565b5f60088302612d747fffffffffffffffffffffffffffffffffffffffffffffffffffffffffffffffff82612d39565b612d7e8683612d39565b95508019841693508086168417925050509392505050565b5f612db0612dab612da684611e09565b612b14565b611e09565b9050919050565b5f819050919050565b612dc983612d96565b612ddd612dd582612db7565b848454612d45565b825550505050565b5f5f905090565b612df4612de5565b612dff818484612dc0565b505050565b5b81811015612e2257612e175f82612dec565b600181019050612e05565b5050565b601f821115612e6757612e3881612d18565b612e4184612d2a565b81016020851015612e50578190505b612e64612e5c85612d2a565b830182612e04565b50505b505050565b5f82821c905092915050565b5f612e875f1984600802612e6c565b1980831691505092915050565b5f612e9f8383612e78565b9150826002028217905092915050565b612eb882611e76565b67ffffffffffffffff811115612ed157612ed0612027565b5b612edb8254612c74565b612ee6828285612e26565b5f60209050601f831160018114612f17575f8415612f05578287015190505b612f0f8582612e94565b865550612f76565b601f198416612f2586612d18565b5f5b82811015612f4c57848901518255600182019150602085019450602081019050612f27565b86831015612f695784890151612f65601f891682612e78565b8355505b6001600288020188555050505b505050505050565b7f4e487b71000000000000000000000000000000000000000000000000000000005f52603260045260245ffd5b5f6020820190508181035f830152612fc38184611eae565b905092915050565b7f536d6172742062696e206e6f74206163746976650000000000000000000000005f82015250565b5f612fff601483611e80565b915061300a82612fcb565b602082019050919050565b5f6020820190508181035f83015261302c81612ff3565b9050919050565b7f576569676874206d7573742062652067726561746572207468616e20300000005f82015250565b5f613067601d83611e80565b915061307282613033565b602082019050919050565b5f6020820190508181035f8301526130948161305b565b9050919050565b7f42696e20646f6573206e6f7420616363657074207468697320776173746520745f8201527f7970650000000000000000000000000000000000000000000000000000000000602082015250565b5f6130f5602383611e80565b91506131008261309b565b604082019050919050565b5f6020820190508181035f830152613122816130e9565b9050919050565b5f61313382611e09565b915061313e83611e09565b925082820261314c81611e09565b9150828204841483151761316357613162612ca4565b5b5092915050565b7f4e487b71000000000000000000000000000000000000000000000000000000005f52601260045260245ffd5b5f6131a182611e09565b91506131ac83611e09565b9250826131bc576131bb61316a565b5b828204905092915050565b5f6131d182611e09565b91506131dc83611e09565b92508282019050808211156131f4576131f3612ca4565b5b92915050565b7f536d6172742062696e20757361676520726577617264000000000000000000005f82015250565b5f61322e601683611e80565b9150613239826131fa565b602082019050919050565b5f6060820190506132575f830185612aae565b6132646020830184611e67565b818103604083015261327581613222565b90509392505050565b6132878161267f565b82525050565b5f6060820190506132a05f83018661327e565b6132ad6020830185611e67565b6132ba6040830184611e67565b949350505050565b7f4e6f207761737465206974656d732070726f76696465640000000000000000005f82015250565b5f6132f6601783611e80565b9150613301826132c2565b602082019050919050565b5f6020820190508181035f830152613323816132ea565b9050919050565b7f5363686564756c65642064617465206d75737420626520696e207468652066755f8201527f7475726500000000000000000000000000000000000000000000000000000000602082015250565b5f613384602483611e80565b915061338f8261332a565b604082019050919050565b5f6020820190508181035f8301526133b181613378565b9050919050565b7f4e6f7420617574686f72697a656420636f6c6c6563746f7200000000000000005f82015250565b5f6133ec601883611e80565b91506133f7826133b8565b602082019050919050565b5f6020820190508181035f830152613419816133e0565b9050919050565b7f436f6c6c656374696f6e206e6f742070656e64696e67000000000000000000005f82015250565b5f613454601683611e80565b915061345f82613420565b602082019050919050565b5f6020820190508181035f83015261348181613448565b9050919050565b7f4e6f742061737369676e656420636f6c6c6563746f72000000000000000000005f82015250565b5f6134bc601683611e80565b91506134c782613488565b602082019050919050565b5f6020820190508181035f8301526134e9816134b0565b9050919050565b7f496e76616c6964207374617475730000000000000000000000000000000000005f82015250565b5f613524600e83611e80565b915061352f826134f0565b602082019050919050565b5f6020820190508181035f83015261355181613518565b9050919050565b7f576173746520636f6c6c656374696f6e207265776172640000000000000000005f82015250565b5f61358c601783611e80565b915061359782613558565b602082019050919050565b5f6060820190506135b55f830185612aae565b6135c26020830184611e67565b81810360408301526135d381613580565b90509392505050565b5f6040820190506135ef5f83018561327e565b6135fc6020830184611e67565b939250505056fea264697066735822122044ee305bf7bd9cab3523a7bc9b5ecc4283e1d90a98883ec569d0a8b1cc11012664736f6c634300081e0033","linkReferences":{}},"methodIdentifiers":{"addAuthorizedCollector(address)":"7624d63c","addSmartBin(string,int256,int256,uint8[])":"1f083515","authorizedCollectors(address)":"46412878","collections(uint256)":"fdbda0ec","completeCollection(uint256)":"9f433e0d","getCollection(uint256)":"5a1f3c28","getSmartBin(uint256)":"7dc8efef","nextBinId()":"2e699c79","nextCollectionId()":"e77d6f7c","owner()":"8da5cb5b","pause()":"8456cb59","paused()":"5c975abb","removeAuthorizedCollector(address)":"c7ac86d6","renounceOwnership()":"715018a6","requestCollection((uint8,uint256,uint256)[],string,int256,int256,uint256)":"2e3dfd94","rewardRates(uint8)":"541cb57f","scheduleCollection(uint256)":"8ec2c31c","smartBins(uint256)":"111949bf","sortifyToken()":"e5d0088f","totalCollections()":"61d9db2d","totalWasteCollected()":"1188802e","transferOwnership(address)":"f2fde38b","unpause()":"3f4ba83a","updateRewardRate(uint8,uint256)":"e0b1fb06","updateSmartBinStatus(uint256,uint256,bool)":"1e77d99d","useSmartBin(uint256,uint8,uint256)":"2ce90069"},"id":44}