{"abi":[{"type":"constructor","inputs":[{"name":"initialOwner","type":"address","internalType":"address"}],"stateMutability":"nonpayable"},{"type":"function","name":"approve","inputs":[{"name":"to","type":"address","internalType":"address"},{"name":"tokenId","type":"uint256","internalType":"uint256"}],"outputs":[],"stateMutability":"nonpayable"},{"type":"function","name":"authorizeMinter","inputs":[{"name":"minter","type":"address","internalType":"address"}],"outputs":[],"stateMutability":"nonpayable"},{"type":"function","name":"authorizedMinters","inputs":[{"name":"","type":"address","internalType":"address"}],"outputs":[{"name":"","type":"bool","internalType":"bool"}],"stateMutability":"view"},{"type":"function","name":"badgeMetadata","inputs":[{"name":"","type":"uint256","internalType":"uint256"}],"outputs":[{"name":"recycler","type":"address","internalType":"address"},{"name":"wasteType","type":"string","internalType":"string"},{"name":"quantity","type":"uint256","internalType":"uint256"},{"name":"timestamp","type":"uint256","internalType":"uint256"},{"name":"transactionHash","type":"string","internalType":"string"}],"stateMutability":"view"},{"type":"function","name":"balanceOf","inputs":[{"name":"owner","type":"address","internalType":"address"}],"outputs":[{"name":"","type":"uint256","internalType":"uint256"}],"stateMutability":"view"},{"type":"function","name":"getApproved","inputs":[{"name":"tokenId","type":"uint256","internalType":"uint256"}],"outputs":[{"name":"","type":"address","internalType":"address"}],"stateMutability":"view"},{"type":"function","name":"getBadgeMetadata","inputs":[{"name":"tokenId","type":"uint256","internalType":"uint256"}],"outputs":[{"name":"","type":"tuple","internalType":"struct RecyclingBadge.BadgeMetadata","components":[{"name":"recycler","type":"address","internalType":"address"},{"name":"wasteType","type":"string","internalType":"string"},{"name":"quantity","type":"uint256","internalType":"uint256"},{"name":"timestamp","type":"uint256","internalType":"uint256"},{"name":"transactionHash","type":"string","internalType":"string"}]}],"stateMutability":"view"},{"type":"function","name":"isApprovedForAll","inputs":[{"name":"owner","type":"address","internalType":"address"},{"name":"operator","type":"address","internalType":"address"}],"outputs":[{"name":"","type":"bool","internalType":"bool"}],"stateMutability":"view"},{"type":"function","name":"mintBadge","inputs":[{"name":"to","type":"address","internalType":"address"},{"name":"wasteType","type":"string","internalType":"string"},{"name":"quantity","type":"uint256","internalType":"uint256"},{"name":"tokenURI_","type":"string","internalType":"string"},{"name":"transactionHash","type":"string","internalType":"string"}],"outputs":[{"name":"","type":"uint256","internalType":"uint256"}],"stateMutability":"nonpayable"},{"type":"function","name":"name","inputs":[],"outputs":[{"name":"","type":"string","internalType":"string"}],"stateMutability":"view"},{"type":"function","name":"owner","inputs":[],"outputs":[{"name":"","type":"address","internalType":"address"}],"stateMutability":"view"},{"type":"function","name":"ownerOf","inputs":[{"name":"tokenId","type":"uint256","internalType":"uint256"}],"outputs":[{"name":"","type":"address","internalType":"address"}],"stateMutability":"view"},{"type":"function","name":"renounceOwnership","inputs":[],"outputs":[],"stateMutability":"nonpayable"},{"type":"function","name":"revokeMinter","inputs":[{"name":"minter","type":"address","internalType":"address"}],"outputs":[],"stateMutability":"nonpayable"},{"type":"function","name":"safeTransferFrom","inputs":[{"name":"from","type":"address","internalType":"address"},{"name":"to","type":"address","internalType":"address"},{"name":"tokenId","type":"uint256","internalType":"uint256"}],"outputs":[],"stateMutability":"nonpayable"},{"type":"function","name":"safeTransferFrom","inputs":[{"name":"from","type":"address","internalType":"address"},{"name":"to","type":"address","internalType":"address"},{"name":"tokenId","type":"uint256","internalType":"uint256"},{"name":"data","type":"bytes","internalType":"bytes"}],"outputs":[],"stateMutability":"nonpayable"},{"type":"function","name":"setApprovalForAll","inputs":[{"name":"operator","type":"address","internalType":"address"},{"name":"approved","type":"bool","internalType":"bool"}],"outputs":[],"stateMutability":"nonpayable"},{"type":"function","name":"supportsInterface","inputs":[{"name":"interfaceId","type":"bytes4","internalType":"bytes4"}],"outputs":[{"name":"","type":"bool","internalType":"bool"}],"stateMutability":"view"},{"type":"function","name":"symbol","inputs":[],"outputs":[{"name":"","type":"string","internalType":"string"}],"stateMutability":"view"},{"type":"function","name":"tokenURI","inputs":[{"name":"tokenId","type":"uint256","internalType":"uint256"}],"outputs":[{"name":"","type":"string","internalType":"string"}],"stateMutability":"view"},{"type":"function","name":"transferFrom","inputs":[{"name":"from","type":"address","internalType":"address"},{"name":"to","type":"address","internalType":"address"},{"name":"tokenId","type":"uint256","internalType":"uint256"}],"outputs":[],"stateMutability":"nonpayable"},{"type":"function","name":"transferOwnership","inputs":[{"name":"newOwner","type":"address","internalType":"address"}],"outputs":[],"stateMutability":"nonpayable"},{"type":"event","name":"Approval","inputs":[{"name":"owner","type":"address","indexed":true,"internalType":"address"},{"name":"approved","type":"address","indexed":true,"internalType":"address"},{"name":"tokenId","type":"uint256","indexed":true,"internalType":"uint256"}],"anonymous":false},{"type":"event","name":"ApprovalForAll","inputs":[{"name":"owner","type":"address","indexed":true,"internalType":"address"},{"name":"operator","type":"address","indexed":true,"internalType":"address"},{"name":"approved","type":"bool","indexed":false,"internalType":"bool"}],"anonymous":false},{"type":"event","name":"BadgeMinted","inputs":[{"name":"tokenId","type":"uint256","indexed":true,"internalType":"uint256"},{"name":"recycler","type":"address","indexed":true,"internalType":"address"},{"name":"wasteType","type":"string","indexed":false,"internalType":"string"},{"name":"quantity","type":"uint256","indexed":false,"internalType":"uint256"}],"anonymous":false},{"type":"event","name":"BatchMetadataUpdate","inputs":[{"name":"_fromTokenId","type":"uint256","indexed":false,"internalType":"uint256"},{"name":"_toTokenId","type":"uint256","indexed":false,"internalType":"uint256"}],"anonymous":false},{"type":"event","name":"MetadataUpdate","inputs":[{"name":"_tokenId","type":"uint256","indexed":false,"internalType":"uint256"}],"anonymous":false},{"type":"event","name":"MinterAuthorized","inputs":[{"name":"minter","type":"address","indexed":true,"internalType":"address"}],"anonymous":false},{"type":"event","name":"MinterRevoked","inputs":[{"name":"minter","type":"address","indexed":true,"internalType":"address"}],"anonymous":false},{"type":"event","name":"OwnershipTransferred","inputs":[{"name":"previousOwner","type":"address","indexed":true,"internalType":"address"},{"name":"newOwner","type":"address","indexed":true,"internalType":"address"}],"anonymous":false},{"type":"event","name":"Transfer","inputs":[{"name":"from","type":"address","indexed":true,"internalType":"address"},{"name":"to","type":"address","indexed":true,"internalType":"address"},{"name":"tokenId","type":"uint256","indexed":true,"internalType":"uint256"}],"anonymous":false},{"type":"error","name":"ERC721IncorrectOwner","inputs":[{"name":"sender","type":"address","internalType":"address"},{"name":"tokenId","type":"uint256","internalType":"uint256"},{"name":"owner","type":"address","internalType":"address"}]},{"type":"error","name":"ERC721InsufficientApproval","inputs":[{"name":"operator","type":"address","internalType":"address"},{"name":"tokenId","type":"uint256","internalType":"uint256"}]},{"type":"error","name":"ERC721InvalidApprover","inputs":[{"name":"approver","type":"address","internalType":"address"}]},{"type":"error","name":"ERC721InvalidOperator","inputs":[{"name":"operator","type":"address","internalType":"address"}]},{"type":"error","name":"ERC721InvalidOwner","inputs":[{"name":"owner","type":"address","internalType":"address"}]},{"type":"error","name":"ERC721InvalidReceiver","inputs":[{"name":"receiver","type":"address","internalType":"address"}]},{"type":"error","name":"ERC721InvalidSender","inputs":[{"name":"sender","type":"address","internalType":"address"}]},{"type":"error","name":"ERC721NonexistentToken","inputs":[{"name":"tokenId","type":"uint256","internalType":"uint256"}]},{"type":"error","name":"OwnableInvalidOwner","inputs":[{"name":"owner","type":"address","internalType":"address"}]},{"type":"error","name":"OwnableUnauthorizedAccount","inputs":[{"name":"account","type":"address","internalType":"address"}]}],"bytecode":{"object":"0x60806040523461039857611a106020813803918261001c8161039c565b93849283398101031261039857516001600160a01b0381169081900361039857610046604061039c565b90601782527f536f72746966792052656379636c696e67204261646765000000000000000000602083015261007b604061039c565b600381526229a92160e91b602082015282519091906001600160401b0381116102ac575f54600181811c9116801561038e575b602082101461028e57601f811161032c575b506020601f82116001146102cb57819293945f926102c0575b50508160011b915f199060031b1c1916175f555b81516001600160401b0381116102ac57600154600181811c911680156102a2575b602082101461028e57601f811161022b575b50602092601f82116001146101ca57928192935f926101bf575b50508160011b915f199060031b1c1916176001555b80156101ac57600780546001600160a01b03198116831790915560405191906001600160a01b03167f8be0079c531659141344cd1fd0a4f28419497f9722a3daafe3b4186f6b6457e05f80a3600160085561164e90816103c28239f35b631e4fbdf760e01b5f525f60045260245ffd5b015190505f8061013a565b601f1982169360015f52805f20915f5b86811061021357508360019596106101fb575b505050811b0160015561014f565b01515f1960f88460031b161c191690555f80806101ed565b919260206001819286850151815501940192016101da565b60015f527fb10e2d527612073b26eecdfd717e6a320cf44b4afac2b0732d9fcbe2b7fa0cf6601f830160051c81019160208410610284575b601f0160051c01905b8181106102795750610120565b5f815560010161026c565b9091508190610263565b634e487b7160e01b5f52602260045260245ffd5b90607f169061010e565b634e487b7160e01b5f52604160045260245ffd5b015190505f806100d9565b601f198216905f8052805f20915f5b818110610314575095836001959697106102fc575b505050811b015f556100ed565b01515f1960f88460031b161c191690555f80806102ef565b9192602060018192868b0151815501940192016102da565b5f80527f290decd9548b62a8d60345a988386fc84ba6bc95484008f6362f93160ef3e563601f830160051c81019160208410610384575b601f0160051c01905b81811061037957506100c0565b5f815560010161036c565b9091508190610363565b90607f16906100ae565b5f80fd5b6040519190601f01601f191682016001600160401b038111838210176102ac5760405256fe6080806040526004361015610012575f80fd5b5f3560e01c90816301ffc9a71461102b5750806306fdde0314610f89578063081812fc14610f4d578063095ea7b314610e635780630c98483214610dfb57806323b872dd14610de457806342842e0e14610dbb5780636352211e14610d8b57806370a0823114610d3a578063715018a614610cdf5780638da5cb5b14610cb757806395d89b4114610bed578063a22cb46514610b52578063aa2fe91b14610b15578063b88d4fde14610ab3578063c87b56dd14610a80578063cfbd488514610a1b578063d19b6106146108d6578063e4de973d1461084a578063e985e9c5146107f3578063ec157952146101985763f2fde38b1461010e575f80fd5b34610194576020366003190112610194576101276110d4565b61012f6115c1565b6001600160a01b0316801561018157600780546001600160a01b0319811683179091556001600160a01b03167f8be0079c531659141344cd1fd0a4f28419497f9722a3daafe3b4186f6b6457e05f80a3005b631e4fbdf760e01b5f525f60045260245ffd5b5f80fd5b346101945760a0366003190112610194576101b16110d4565b60243567ffffffffffffffff8111610194576101d19036906004016112a2565b9060443560643567ffffffffffffffff8111610194576101f59036906004016112a2565b9060843567ffffffffffffffff8111610194576102169036906004016112a2565b335f52600960205260ff60405f20541680156107df575b156107a157600854935f19851461078d57600185016008556001600160a01b031692831561077a575f858152600260205260409020546001600160a01b03168015159081610747575b855f52600360205260405f2060018154019055865f52600260205260405f20866bffffffffffffffffffffffff60a01b8254161790558686827fddf252ad1be2c89b69c2b068fc378daa952ba7f163c4a11628f55a4df523b3ef5f80a45061073457845f52600660205260405f209080519067ffffffffffffffff82116105a957819061030384546111ca565b601f81116106e4575b50602090601f8311600114610681575f92610676575b50508160011b915f199060031b1c19161790555b7ff8e1a15aba9398e019f0b49df1a4fde98ee17ae345cb5f6b5e2c27f5033e8ce76020604051868152a160405161036c8161113a565b838152602080820187815260408084018681524260608601908152608086019687525f8a8152600a90955291909320935184546001600160a01b0319166001600160a01b039190911617845590518051919291600185019167ffffffffffffffff82116105a9576103dd83546111ca565b601f8111610631575b50602090601f83116001146105c85760049695949392915f91836105bd575b50508160011b915f199060031b1c19161790555b51600283015551600382015501905180519067ffffffffffffffff82116105a95761044483546111ca565b601f8111610564575b5091859391602097938890601f83116001146104d85791807f3b6c69e97993b0d5b822b4d79ba5e10459e13005a530122a474abc189b9d79779694926104bd96945f926104cd575b50508160011b915f199060031b1c19161790555b6040519283926040845260408401906110b0565b90888301520390a3604051908152f35b015190508b80610495565b90601f19831691845f52815f20925f5b81811061054a57509260019285926104bd98967f3b6c69e97993b0d5b822b4d79ba5e10459e13005a530122a474abc189b9d79779a989610610532575b505050811b0190556104a9565b01515f1960f88460031b161c191690558b8080610525565b8284015185558b9950600190940193928c01928c016104e8565b835f5260205f20601f840160051c8101916020851061059f575b601f0160051c01905b818110610594575061044d565b5f8155600101610587565b909150819061057e565b634e487b7160e01b5f52604160045260245ffd5b015190508c80610405565b90601f19831691845f52815f20925f5b818110610619575091600193918560049a999897969410610601575b505050811b019055610419565b01515f1960f88460031b161c191690558c80806105f4565b929360206001819287860151815501950193016105d8565b835f5260205f20601f840160051c8101916020851061066c575b601f0160051c01905b81811061066157506103e6565b5f8155600101610654565b909150819061064b565b015190508880610322565b5f8581528281209350601f198516905b8181106106cc57509084600195949392106106b4575b505050811b019055610336565b01515f1960f88460031b161c191690558880806106a7565b92936020600181928786015181550195019301610691565b909150835f5260205f20601f840160051c8101916020851061072a575b90601f859493920160051c01905b81811061071c575061030c565b5f815584935060010161070f565b9091508190610701565b6339e3563760e11b5f525f60045260245ffd5b5f87815260046020526040902080546001600160a01b0319169055805f52600360205260405f205f198154019055610276565b633250574960e11b5f525f60045260245ffd5b634e487b7160e01b5f52601160045260245ffd5b60405162461bcd60e51b8152602060048201526016602482015275139bdd08185d5d1a1bdc9a5e9959081d1bc81b5a5b9d60521b6044820152606490fd5b506007546001600160a01b0316331461022d565b346101945760403660031901126101945761080c6110d4565b6108146110ea565b9060018060a01b03165f52600560205260405f209060018060a01b03165f52602052602060ff60405f2054166040519015158152f35b34610194576020366003190112610194576004355f908152600a6020526040902080546001600160a01b03166108d261088560018401611202565b9260028101549061089d600460038301549201611202565b906108ba604051968796875260a0602088015260a08701906110b0565b926040860152606085015283820360808501526110b0565b0390f35b3461019457602036600319011261019457600435606060806040516108fa8161113a565b5f81528260208201525f60408201525f838201520152805f52600260205260018060a01b0360405f205416156109df575f52600a60205260405f206040516109418161113a565b81546001600160a01b031681526108d261095d60018401611202565b92602083019384526002810154906040840191825261098a60046003830154926060870193845201611202565b90608085019182526109c06040519687966020885260018060a01b0390511660208801525160a0604088015260c08701906110b0565b9251606086015251608085015251838203601f190160a08501526110b0565b60405162461bcd60e51b815260206004820152601460248201527310985919d948191bd95cc81b9bdd08195e1a5cdd60621b6044820152606490fd5b3461019457602036600319011261019457610a346110d4565b610a3c6115c1565b6001600160a01b03165f818152600960205260408120805460ff191690557f44f4322f8daa225d5f4877ad0f7d3dfba248a774396f3ca99405ed40a044fe819080a2005b34610194576020366003190112610194576108d2610a9f6004356115e8565b6040519182916020835260208301906110b0565b3461019457608036600319011261019457610acc6110d4565b610ad46110ea565b6064359167ffffffffffffffff8311610194573660238401121561019457610b09610b13933690602481600401359101611194565b916044359161144d565b005b34610194576020366003190112610194576001600160a01b03610b366110d4565b165f526009602052602060ff60405f2054166040519015158152f35b3461019457604036600319011261019457610b6b6110d4565b60243590811515809203610194576001600160a01b0316908115610bda57335f52600560205260405f20825f5260205260405f2060ff1981541660ff83161790556040519081527f17307eab39ab6107e8899845ad3d59bd9653f200f220920489ca2b5937696c3160203392a3005b50630b61174360e31b5f5260045260245ffd5b34610194575f366003190112610194576040515f600154610c0d816111ca565b8084529060018116908115610c935750600114610c35575b6108d283610a9f81850382611156565b60015f9081527fb10e2d527612073b26eecdfd717e6a320cf44b4afac2b0732d9fcbe2b7fa0cf6939250905b808210610c7957509091508101602001610a9f610c25565b919260018160209254838588010152019101909291610c61565b60ff191660208086019190915291151560051b84019091019150610a9f9050610c25565b34610194575f366003190112610194576007546040516001600160a01b039091168152602090f35b34610194575f36600319011261019457610cf76115c1565b600780546001600160a01b031981169091555f906001600160a01b03167f8be0079c531659141344cd1fd0a4f28419497f9722a3daafe3b4186f6b6457e08280a3005b34610194576020366003190112610194576001600160a01b03610d5b6110d4565b168015610d78575f526003602052602060405f2054604051908152f35b6322718ad960e21b5f525f60045260245ffd5b34610194576020366003190112610194576020610da960043561158d565b6040516001600160a01b039091168152f35b3461019457610b13610dcc36611100565b9060405192610ddc602085611156565b5f845261144d565b3461019457610b13610df536611100565b916112c0565b3461019457602036600319011261019457610e146110d4565b610e1c6115c1565b6001600160a01b03165f818152600960205260408120805460ff191660011790557f83b05b6735acd4b85e3bded8e72c851d1a87718f81e3c8e6f0c9d9a2baa88e469080a2005b3461019457604036600319011261019457610e7c6110d4565b602435610e888161158d565b33151580610f3a575b80610f0d575b610efa5781906001600160a01b0384811691167f8c5be1e5ebec7d5bd14f71427d1e84f3dd0314c0f7b2291e5b200ac8c7c3b9255f80a45f90815260046020526040902080546001600160a01b0319166001600160a01b03909216919091179055005b63a9fbf51f60e01b5f523360045260245ffd5b506001600160a01b0381165f90815260056020908152604080832033845290915290205460ff1615610e97565b506001600160a01b038116331415610e91565b3461019457602036600319011261019457600435610f6a8161158d565b505f526004602052602060018060a01b0360405f205416604051908152f35b34610194575f366003190112610194576040515f5f54610fa8816111ca565b8084529060018116908115610c935750600114610fcf576108d283610a9f81850382611156565b5f8080527f290decd9548b62a8d60345a988386fc84ba6bc95484008f6362f93160ef3e563939250905b80821061101157509091508101602001610a9f610c25565b919260018160209254838588010152019101909291610ff9565b34610194576020366003190112610194576004359063ffffffff60e01b821680920361019457602091632483248360e11b811490811561106d575b5015158152f35b6380ac58cd60e01b81149150811561109f575b811561108e575b5083611066565b6301ffc9a760e01b14905083611087565b635b5e139f60e01b81149150611080565b805180835260209291819084018484015e5f828201840152601f01601f1916010190565b600435906001600160a01b038216820361019457565b602435906001600160a01b038216820361019457565b6060906003190112610194576004356001600160a01b038116810361019457906024356001600160a01b0381168103610194579060443590565b60a0810190811067ffffffffffffffff8211176105a957604052565b90601f8019910116810190811067ffffffffffffffff8211176105a957604052565b67ffffffffffffffff81116105a957601f01601f191660200190565b9291926111a082611178565b916111ae6040519384611156565b829481845281830111610194578281602093845f960137010152565b90600182811c921680156111f8575b60208310146111e457565b634e487b7160e01b5f52602260045260245ffd5b91607f16916111d9565b9060405191825f825492611215846111ca565b8084529360018116908115611280575060011461123c575b5061123a92500383611156565b565b90505f9291925260205f20905f915b81831061126457505090602061123a928201015f61122d565b602091935080600191548385890101520191019091849261124b565b90506020925061123a94915060ff191682840152151560051b8201015f61122d565b9080601f83011215610194578160206112bd93359101611194565b90565b6001600160a01b039091169190821561077a575f828152600260205260409020546001600160a01b0316928290331515806113b8575b5084611385575b805f52600360205260405f2060018154019055815f52600260205260405f20816bffffffffffffffffffffffff60a01b825416179055847fddf252ad1be2c89b69c2b068fc378daa952ba7f163c4a11628f55a4df523b3ef5f80a46001600160a01b031680830361136d57505050565b6364283d7b60e01b5f5260045260245260445260645ffd5b5f82815260046020526040902080546001600160a01b0319169055845f52600360205260405f205f1981540190556112fd565b909150806113fc575b156113ce5782905f6112f6565b82846113e657637e27328960e01b5f5260045260245ffd5b63177e802f60e01b5f523360045260245260445ffd5b50338414801561142b575b806113c157505f838152600460205260409020546001600160a01b031633146113c1565b505f84815260056020908152604080832033845290915290205460ff16611407565b929161145a8183866112c0565b813b611467575b50505050565b604051630a85bd0160e11b81523360048201526001600160a01b03948516602482015260448101919091526080606482015292169190602090829081906114b29060848301906110b0565b03815f865af15f9181611548575b5061151557503d1561150e573d6114d681611178565b906114e46040519283611156565b81523d5f602083013e5b805190816115095782633250574960e11b5f5260045260245ffd5b602001fd5b60606114ee565b6001600160e01b03191663757a42ff60e11b0161153657505f808080611461565b633250574960e11b5f5260045260245ffd5b9091506020813d602011611585575b8161156460209383611156565b8101031261019457516001600160e01b03198116810361019457905f6114c0565b3d9150611557565b5f818152600260205260409020546001600160a01b03169081156115af575090565b637e27328960e01b5f5260045260245ffd5b6007546001600160a01b031633036115d557565b63118cdaa760e01b5f523360045260245ffd5b6115f18161158d565b505f52600660205261160560405f20611202565b5f604051611614602082611156565b529056fea26469706673582212209e456859f0aeaeb330f0de95457e21ece14272452d32ec0751ef167450d4497a64736f6c634300081e0033","linkReferences":{}},"methodIdentifiers":{"approve(address,uint256)":"095ea7b3","authorizeMinter(address)":"0c984832","authorizedMinters(address)":"aa2fe91b","badgeMetadata(uint256)":"e4de973d","balanceOf(address)":"70a08231","getApproved(uint256)":"081812fc","getBadgeMetadata(uint256)":"d19b6106","isApprovedForAll(address,address)":"e985e9c5","mintBadge(address,string,uint256,string,string)":"ec157952","name()":"06fdde03","owner()":"8da5cb5b","ownerOf(uint256)":"6352211e","renounceOwnership()":"715018a6","revokeMinter(address)":"cfbd4885","safeTransferFrom(address,address,uint256)":"42842e0e","safeTransferFrom(address,address,uint256,bytes)":"b88d4fde","setApprovalForAll(address,bool)":"a22cb465","supportsInterface(bytes4)":"01ffc9a7","symbol()":"95d89b41","tokenURI(uint256)":"c87b56dd","transferFrom(address,address,uint256)":"23b872dd","transferOwnership(address)":"f2fde38b"},"id":44}