{"abi":[{"type":"constructor","inputs":[{"name":"_sortifyToken","type":"address","internalType":"address"},{"name":"_feeRecipient","type":"address","internalType":"address"},{"name":"_initialOwner","type":"address","internalType":"address"}],"stateMutability":"nonpayable"},{"type":"function","name":"cancelListing","inputs":[{"name":"listingId","type":"uint256","internalType":"uint256"}],"outputs":[],"stateMutability":"nonpayable"},{"type":"function","name":"createListing","inputs":[{"name":"materialType","type":"uint8","internalType":"enum Marketplace.MaterialType"},{"name":"title","type":"string","internalType":"string"},{"name":"description","type":"string","internalType":"string"},{"name":"quantity","type":"uint256","internalType":"uint256"},{"name":"pricePerKg","type":"uint256","internalType":"uint256"},{"name":"location","type":"string","internalType":"string"},{"name":"imageHashes","type":"string[]","internalType":"string[]"}],"outputs":[],"stateMutability":"nonpayable"},{"type":"function","name":"feeRecipient","inputs":[],"outputs":[{"name":"","type":"address","internalType":"address"}],"stateMutability":"view"},{"type":"function","name":"getActiveListings","inputs":[{"name":"offset","type":"uint256","internalType":"uint256"},{"name":"limit","type":"uint256","internalType":"uint256"}],"outputs":[{"name":"","type":"tuple[]","internalType":"struct Marketplace.Listing[]","components":[{"name":"id","type":"uint256","internalType":"uint256"},{"name":"seller","type":"address","internalType":"address"},{"name":"materialType","type":"uint8","internalType":"enum Marketplace.MaterialType"},{"name":"title","type":"string","internalType":"string"},{"name":"description","type":"string","internalType":"string"},{"name":"quantity","type":"uint256","internalType":"uint256"},{"name":"pricePerKg","type":"uint256","internalType":"uint256"},{"name":"location","type":"string","internalType":"string"},{"name":"status","type":"uint8","internalType":"enum Marketplace.ListingStatus"},{"name":"createdAt","type":"uint256","internalType":"uint256"},{"name":"imageHashes","type":"string[]","internalType":"string[]"}]}],"stateMutability":"view"},{"type":"function","name":"getUserListings","inputs":[{"name":"user","type":"address","internalType":"address"}],"outputs":[{"name":"","type":"uint256[]","internalType":"uint256[]"}],"stateMutability":"view"},{"type":"function","name":"getUserPurchases","inputs":[{"name":"user","type":"address","internalType":"address"}],"outputs":[{"name":"","type":"uint256[]","internalType":"uint256[]"}],"stateMutability":"view"},{"type":"function","name":"listings","inputs":[{"name":"","type":"uint256","internalType":"uint256"}],"outputs":[{"name":"id","type":"uint256","internalType":"uint256"},{"name":"seller","type":"address","internalType":"address"},{"name":"materialType","type":"uint8","internalType":"enum Marketplace.MaterialType"},{"name":"title","type":"string","internalType":"string"},{"name":"description","type":"string","internalType":"string"},{"name":"quantity","type":"uint256","internalType":"uint256"},{"name":"pricePerKg","type":"uint256","internalType":"uint256"},{"name":"location","type":"string","internalType":"string"},{"name":"status","type":"uint8","internalType":"enum Marketplace.ListingStatus"},{"name":"createdAt","type":"uint256","internalType":"uint256"}],"stateMutability":"view"},{"type":"function","name":"nextListingId","inputs":[],"outputs":[{"name":"","type":"uint256","internalType":"uint256"}],"stateMutability":"view"},{"type":"function","name":"nextPurchaseId","inputs":[],"outputs":[{"name":"","type":"uint256","internalType":"uint256"}],"stateMutability":"view"},{"type":"function","name":"owner","inputs":[],"outputs":[{"name":"","type":"address","internalType":"address"}],"stateMutability":"view"},{"type":"function","name":"pause","inputs":[],"outputs":[],"stateMutability":"nonpayable"},{"type":"function","name":"paused","inputs":[],"outputs":[{"name":"","type":"bool","internalType":"bool"}],"stateMutability":"view"},{"type":"function","name":"platformFeePercentage","inputs":[],"outputs":[{"name":"","type":"uint256","internalType":"uint256"}],"stateMutability":"view"},{"type":"function","name":"purchaseMaterial","inputs":[{"name":"listingId","type":"uint256","internalType":"uint256"},{"name":"quantity","type":"uint256","internalType":"uint256"}],"outputs":[],"stateMutability":"nonpayable"},{"type":"function","name":"purchases","inputs":[{"name":"","type":"uint256","internalType":"uint256"}],"outputs":[{"name":"id","type":"uint256","internalType":"uint256"},{"name":"listingId","type":"uint256","internalType":"uint256"},{"name":"buyer","type":"address","internalType":"address"},{"name":"seller","type":"address","internalType":"address"},{"name":"quantity","type":"uint256","internalType":"uint256"},{"name":"totalPrice","type":"uint256","internalType":"uint256"},{"name":"purchasedAt","type":"uint256","internalType":"uint256"}],"stateMutability":"view"},{"type":"function","name":"renounceOwnership","inputs":[],"outputs":[],"stateMutability":"nonpayable"},{"type":"function","name":"sortifyToken","inputs":[],"outputs":[{"name":"","type":"address","internalType":"contract SortifyToken"}],"stateMutability":"view"},{"type":"function","name":"transferOwnership","inputs":[{"name":"newOwner","type":"address","internalType":"address"}],"outputs":[],"stateMutability":"nonpayable"},{"type":"function","name":"unpause","inputs":[],"outputs":[],"stateMutability":"nonpayable"},{"type":"function","name":"updateFeeRecipient","inputs":[{"name":"newFeeRecipient","type":"address","internalType":"address"}],"outputs":[],"stateMutability":"nonpayable"},{"type":"function","name":"updateListing","inputs":[{"name":"listingId","type":"uint256","internalType":"uint256"},{"name":"newPricePerKg","type":"uint256","internalType":"uint256"},{"name":"newQuantity","type":"uint256","internalType":"uint256"}],"outputs":[],"stateMutability":"nonpayable"},{"type":"function","name":"updatePlatformFee","inputs":[{"name":"newFeePercentage","type":"uint256","internalType":"uint256"}],"outputs":[],"stateMutability":"nonpayable"},{"type":"function","name":"userListings","inputs":[{"name":"","type":"address","internalType":"address"},{"name":"","type":"uint256","internalType":"uint256"}],"outputs":[{"name":"","type":"uint256","internalType":"uint256"}],"stateMutability":"view"},{"type":"function","name":"userPurchases","inputs":[{"name":"","type":"address","internalType":"address"},{"name":"","type":"uint256","internalType":"uint256"}],"outputs":[{"name":"","type":"uint256","internalType":"uint256"}],"stateMutability":"view"},{"type":"event","name":"ListingCancelled","inputs":[{"name":"listingId","type":"uint256","indexed":true,"internalType":"uint256"}],"anonymous":false},{"type":"event","name":"ListingCreated","inputs":[{"name":"listingId","type":"uint256","indexed":true,"internalType":"uint256"},{"name":"seller","type":"address","indexed":true,"internalType":"address"},{"name":"materialType","type":"uint8","indexed":false,"internalType":"enum Marketplace.MaterialType"},{"name":"quantity","type":"uint256","indexed":false,"internalType":"uint256"}],"anonymous":false},{"type":"event","name":"ListingUpdated","inputs":[{"name":"listingId","type":"uint256","indexed":true,"internalType":"uint256"},{"name":"newPrice","type":"uint256","indexed":false,"internalType":"uint256"},{"name":"newQuantity","type":"uint256","indexed":false,"internalType":"uint256"}],"anonymous":false},{"type":"event","name":"OwnershipTransferred","inputs":[{"name":"previousOwner","type":"address","indexed":true,"internalType":"address"},{"name":"newOwner","type":"address","indexed":true,"internalType":"address"}],"anonymous":false},{"type":"event","name":"Paused","inputs":[{"name":"account","type":"address","indexed":false,"internalType":"address"}],"anonymous":false},{"type":"event","name":"PurchaseCompleted","inputs":[{"name":"purchaseId","type":"uint256","indexed":true,"internalType":"uint256"},{"name":"listingId","type":"uint256","indexed":true,"internalType":"uint256"},{"name":"buyer","type":"address","indexed":true,"internalType":"address"},{"name":"quantity","type":"uint256","indexed":false,"internalType":"uint256"},{"name":"totalPrice","type":"uint256","indexed":false,"internalType":"uint256"}],"anonymous":false},{"type":"event","name":"Unpaused","inputs":[{"name":"account","type":"address","indexed":false,"internalType":"address"}],"anonymous":false},{"type":"error","name":"EnforcedPause","inputs":[]},{"type":"error","name":"ExpectedPause","inputs":[]},{"type":"error","name":"OwnableInvalidOwner","inputs":[{"name":"owner","type":"address","internalType":"address"}]},{"type":"error","name":"OwnableUnauthorizedAccount","inputs":[{"name":"account","type":"address","internalType":"address"}]},{"type":"error","name":"ReentrancyGuardReentrantCall","inputs":[]}],"bytecode":{"object":"0x60806040526001600755600160085560fa60095534801561001e575f5ffd5b5060405161397538038061397583398181016040528101906100409190610270565b805f73ffffffffffffffffffffffffffffffffffffffff168173ffffffffffffffffffffffffffffffffffffffff16036100b1575f6040517f1e4fbdf70000000000000000000000000000000000000000000000000000000081526004016100a891906102cf565b60405180910390fd5b6100c08161015160201b60201c565b506001808190555082600260016101000a81548173ffffffffffffffffffffffffffffffffffffffff021916908373ffffffffffffffffffffffffffffffffffffffff16021790555081600a5f6101000a81548173ffffffffffffffffffffffffffffffffffffffff021916908373ffffffffffffffffffffffffffffffffffffffff1602179055505050506102e8565b5f5f5f9054906101000a900473ffffffffffffffffffffffffffffffffffffffff169050815f5f6101000a81548173ffffffffffffffffffffffffffffffffffffffff021916908373ffffffffffffffffffffffffffffffffffffffff1602179055508173ffffffffffffffffffffffffffffffffffffffff168173ffffffffffffffffffffffffffffffffffffffff167f8be0079c531659141344cd1fd0a4f28419497f9722a3daafe3b4186f6b6457e060405160405180910390a35050565b5f5ffd5b5f73ffffffffffffffffffffffffffffffffffffffff82169050919050565b5f61023f82610216565b9050919050565b61024f81610235565b8114610259575f5ffd5b50565b5f8151905061026a81610246565b92915050565b5f5f5f6060848603121561028757610286610212565b5b5f6102948682870161025c565b93505060206102a58682870161025c565b92505060406102b68682870161025c565b9150509250925092565b6102c981610235565b82525050565b5f6020820190506102e25f8301846102c0565b92915050565b613680806102f55f395ff3fe608060405234801561000f575f5ffd5b5060043610610156575f3560e01c8063aa0b5988116100c1578063de74e57b1161007a578063de74e57b14610392578063e5d0088f146103cb578063eb18a9d8146103e9578063f160d36914610419578063f2fde38b14610435578063f6cf2a161461045157610156565b8063aa0b5988146102aa578063aaccf1ec146102c6578063c128b231146102e4578063c6e5d8f614610314578063cdd78cfc14610344578063cf2c03341461036257610156565b8063715018a611610113578063715018a6146101f65780638392fe31146102005780638456cb591461023657806386cfa7d3146102405780638da5cb5b14610270578063a6019a261461028e57610156565b806323b4a7a31461015a578063305a67a8146101785780633f4ba83a14610194578063469048401461019e57806359386f18146101bc5780635c975abb146101d8575b5f5ffd5b61016261046d565b60405161016f919061208d565b60405180910390f35b610192600480360381019061018d91906120e1565b610473565b005b61019c6105eb565b005b6101a66105fd565b6040516101b3919061214b565b60405180910390f35b6101d660048036038101906101d19190612164565b610622565b005b6101e0610c03565b6040516101ed91906121bc565b60405180910390f35b6101fe610c18565b005b61021a600480360381019061021591906120e1565b610c2b565b60405161022d97969594939291906121d5565b60405180910390f35b61023e610ca7565b005b61025a6004803603810190610255919061226c565b610cb9565b604051610267919061208d565b60405180910390f35b610278610ce4565b604051610285919061214b565b60405180910390f35b6102a860048036038101906102a391906124eb565b610d0b565b005b6102c460048036038101906102bf91906120e1565b611020565b005b6102ce611077565b6040516102db919061208d565b60405180910390f35b6102fe60048036038101906102f99190612164565b61107d565b60405161030b91906129a6565b60405180910390f35b61032e600480360381019061032991906129c6565b611641565b60405161033b9190612a99565b60405180910390f35b61034c6116d4565b604051610359919061208d565b60405180910390f35b61037c6004803603810190610377919061226c565b6116da565b604051610389919061208d565b60405180910390f35b6103ac60048036038101906103a791906120e1565b611705565b6040516103c29a99989796959493929190612b1f565b60405180910390f35b6103d361191f565b6040516103e09190612c29565b60405180910390f35b61040360048036038101906103fe91906129c6565b611945565b6040516104109190612a99565b60405180910390f35b610433600480360381019061042e91906129c6565b6119d8565b005b61044f600480360381019061044a91906129c6565b611a91565b005b61046b60048036038101906104669190612c42565b611b15565b005b60085481565b5f60035f8381526020019081526020015f2090503373ffffffffffffffffffffffffffffffffffffffff16816001015f9054906101000a900473ffffffffffffffffffffffffffffffffffffffff1673ffffffffffffffffffffffffffffffffffffffff1614610518576040517f08c379a000000000000000000000000000000000000000000000000000000000815260040161050f90612cdc565b60405180910390fd5b5f600281111561052b5761052a61263f565b5b816007015f9054906101000a900460ff16600281111561054e5761054d61263f565b5b1461058e576040517f08c379a000000000000000000000000000000000000000000000000000000000815260040161058590612d44565b60405180910390fd5b6002816007015f6101000a81548160ff021916908360028111156105b5576105b461263f565b5b0217905550817f411aee90354c51b1b04cd563fcab2617142a9d50da19232d888547c8a1b7fd8a60405160405180910390a25050565b6105f3611d06565b6105fb611d8d565b565b600a5f9054906101000a900473ffffffffffffffffffffffffffffffffffffffff1681565b61062a611dee565b610632611e34565b5f60035f8481526020019081526020015f2090505f60028111156106595761065861263f565b5b816007015f9054906101000a900460ff16600281111561067c5761067b61263f565b5b146106bc576040517f08c379a00000000000000000000000000000000000000000000000000000000081526004016106b390612d44565b60405180910390fd5b3373ffffffffffffffffffffffffffffffffffffffff16816001015f9054906101000a900473ffffffffffffffffffffffffffffffffffffffff1673ffffffffffffffffffffffffffffffffffffffff160361074d576040517f08c379a000000000000000000000000000000000000000000000000000000000815260040161074490612dac565b60405180910390fd5b5f82118015610760575080600401548211155b61079f576040517f08c379a000000000000000000000000000000000000000000000000000000000815260040161079690612e14565b60405180910390fd5b5f6103e88260050154846107b39190612e5f565b6107bd9190612ecd565b90505f612710600954836107d19190612e5f565b6107db9190612ecd565b90505f81836107ea9190612efd565b9050600260019054906101000a900473ffffffffffffffffffffffffffffffffffffffff1673ffffffffffffffffffffffffffffffffffffffff166323b872dd33866001015f9054906101000a900473ffffffffffffffffffffffffffffffffffffffff16846040518463ffffffff1660e01b815260040161086e93929190612f30565b6020604051808303815f875af115801561088a573d5f5f3e3d5ffd5b505050506040513d601f19601f820116820180604052508101906108ae9190612f8f565b6108ed576040517f08c379a00000000000000000000000000000000000000000000000000000000081526004016108e490613004565b60405180910390fd5b600260019054906101000a900473ffffffffffffffffffffffffffffffffffffffff1673ffffffffffffffffffffffffffffffffffffffff166323b872dd33600a5f9054906101000a900473ffffffffffffffffffffffffffffffffffffffff16856040518463ffffffff1660e01b815260040161096d93929190612f30565b6020604051808303815f875af1158015610989573d5f5f3e3d5ffd5b505050506040513d601f19601f820116820180604052508101906109ad9190612f8f565b6109ec576040517f08c379a00000000000000000000000000000000000000000000000000000000081526004016109e39061306c565b60405180910390fd5b84846004015f8282546109ff9190612efd565b925050819055505f846004015403610a3e576001846007015f6101000a81548160ff02191690836002811115610a3857610a3761263f565b5b02179055505b5f60085f815480929190610a519061308a565b9190505590505f60045f8381526020019081526020015f20905081815f018190555087816001018190555033816002015f6101000a81548173ffffffffffffffffffffffffffffffffffffffff021916908373ffffffffffffffffffffffffffffffffffffffff160217905550856001015f9054906101000a900473ffffffffffffffffffffffffffffffffffffffff16816003015f6101000a81548173ffffffffffffffffffffffffffffffffffffffff021916908373ffffffffffffffffffffffffffffffffffffffff16021790555086816004018190555084816005018190555042816006018190555060065f3373ffffffffffffffffffffffffffffffffffffffff1673ffffffffffffffffffffffffffffffffffffffff1681526020019081526020015f2082908060018154018082558091505060019003905f5260205f20015f90919091909150553373ffffffffffffffffffffffffffffffffffffffff1688837fb2bc30cdfb74cbd554ce78f347a23351211277a9fb96dc1aae0c0dff568713868a89604051610be99291906130d1565b60405180910390a4505050505050610bff611e75565b5050565b5f60025f9054906101000a900460ff16905090565b610c20611d06565b610c295f611e7e565b565b6004602052805f5260405f205f91509050805f015490806001015490806002015f9054906101000a900473ffffffffffffffffffffffffffffffffffffffff1690806003015f9054906101000a900473ffffffffffffffffffffffffffffffffffffffff16908060040154908060050154908060060154905087565b610caf611d06565b610cb7611f3f565b565b6005602052815f5260405f208181548110610cd2575f80fd5b905f5260205f20015f91509150505481565b5f5f5f9054906101000a900473ffffffffffffffffffffffffffffffffffffffff16905090565b610d13611e34565b5f8411610d55576040517f08c379a0000000000000000000000000000000000000000000000000000000008152600401610d4c90613142565b60405180910390fd5b5f8311610d97576040517f08c379a0000000000000000000000000000000000000000000000000000000008152600401610d8e906131aa565b60405180910390fd5b5f865111610dda576040517f08c379a0000000000000000000000000000000000000000000000000000000008152600401610dd190613212565b60405180910390fd5b5f60075f815480929190610ded9061308a565b9190505590505f60035f8381526020019081526020015f20905081815f018190555033816001015f6101000a81548173ffffffffffffffffffffffffffffffffffffffff021916908373ffffffffffffffffffffffffffffffffffffffff160217905550888160010160146101000a81548160ff02191690836005811115610e7857610e7761263f565b5b021790555087816002019081610e8e9190613424565b5086816003019081610ea09190613424565b5085816004018190555084816005018190555083816006019081610ec49190613424565b505f816007015f6101000a81548160ff02191690836002811115610eeb57610eea61263f565b5b02179055504281600801819055505f5f90505b8351811015610f625781600901848281518110610f1e57610f1d6134f3565b5b6020026020010151908060018154018082558091505060019003905f5260205f20015f909190919091509081610f549190613424565b508080600101915050610efe565b5060055f3373ffffffffffffffffffffffffffffffffffffffff1673ffffffffffffffffffffffffffffffffffffffff1681526020019081526020015f2082908060018154018082558091505060019003905f5260205f20015f90919091909150553373ffffffffffffffffffffffffffffffffffffffff16827f699a5d005a1b3070978198b8ebdef4433bbd9a3009794d984de5817912e816a78b8960405161100d929190613520565b60405180910390a3505050505050505050565b611028611d06565b6103e881111561106d576040517f08c379a000000000000000000000000000000000000000000000000000000000815260040161106490613591565b60405180910390fd5b8060098190555050565b60075481565b60605f5f90505f600190505b6007548110156110fa575f60028111156110a6576110a561263f565b5b60035f8381526020019081526020015f206007015f9054906101000a900460ff1660028111156110d9576110d861263f565b5b036110ed5781806110e99061308a565b9250505b8080600101915050611089565b5080841061115e575f67ffffffffffffffff81111561111c5761111b6122e5565b5b60405190808252806020026020018201604052801561115557816020015b611142611fe8565b81526020019060019003908161113a5790505b5091505061163b565b5f83905081848661116f91906135af565b11156111845784826111819190612efd565b90505b5f8167ffffffffffffffff81111561119f5761119e6122e5565b5b6040519080825280602002602001820160405280156111d857816020015b6111c5611fe8565b8152602001906001900390816111bd5790505b5090505f5f90505f5f90505f600190505b600754811080156111f957508482105b15611631575f60028111156112115761121061263f565b5b60035f8381526020019081526020015f206007015f9054906101000a900460ff1660028111156112445761124361263f565b5b0361161e5788831061160f5760035f8281526020019081526020015f20604051806101600160405290815f8201548152602001600182015f9054906101000a900473ffffffffffffffffffffffffffffffffffffffff1673ffffffffffffffffffffffffffffffffffffffff1673ffffffffffffffffffffffffffffffffffffffff1681526020016001820160149054906101000a900460ff1660058111156112f0576112ef61263f565b5b60058111156113025761130161263f565b5b81526020016002820180546113169061325d565b80601f01602080910402602001604051908101604052809291908181526020018280546113429061325d565b801561138d5780601f106113645761010080835404028352916020019161138d565b820191905f5260205f20905b81548152906001019060200180831161137057829003601f168201915b505050505081526020016003820180546113a69061325d565b80601f01602080910402602001604051908101604052809291908181526020018280546113d29061325d565b801561141d5780601f106113f45761010080835404028352916020019161141d565b820191905f5260205f20905b81548152906001019060200180831161140057829003601f168201915b50505050508152602001600482015481526020016005820154815260200160068201805461144a9061325d565b80601f01602080910402602001604051908101604052809291908181526020018280546114769061325d565b80156114c15780601f10611498576101008083540402835291602001916114c1565b820191905f5260205f20905b8154815290600101906020018083116114a457829003601f168201915b50505050508152602001600782015f9054906101000a900460ff1660028111156114ee576114ed61263f565b5b6002811115611500576114ff61263f565b5b81526020016008820154815260200160098201805480602002602001604051908101604052809291908181526020015f905b828210156115da578382905f5260205f2001805461154f9061325d565b80601f016020809104026020016040519081016040528092919081815260200182805461157b9061325d565b80156115c65780601f1061159d576101008083540402835291602001916115c6565b820191905f5260205f20905b8154815290600101906020018083116115a957829003601f168201915b505050505081526020019060010190611532565b50505050815250508483815181106115f5576115f46134f3565b5b6020026020010181905250818061160b9061308a565b9250505b828061161a9061308a565b9350505b80806116299061308a565b9150506111e9565b5082955050505050505b92915050565b606060065f8373ffffffffffffffffffffffffffffffffffffffff1673ffffffffffffffffffffffffffffffffffffffff1681526020019081526020015f208054806020026020016040519081016040528092919081815260200182805480156116c857602002820191905f5260205f20905b8154815260200190600101908083116116b4575b50505050509050919050565b60095481565b6006602052815f5260405f2081815481106116f3575f80fd5b905f5260205f20015f91509150505481565b6003602052805f5260405f205f91509050805f015490806001015f9054906101000a900473ffffffffffffffffffffffffffffffffffffffff16908060010160149054906101000a900460ff16908060020180546117629061325d565b80601f016020809104026020016040519081016040528092919081815260200182805461178e9061325d565b80156117d95780601f106117b0576101008083540402835291602001916117d9565b820191905f5260205f20905b8154815290600101906020018083116117bc57829003601f168201915b5050505050908060030180546117ee9061325d565b80601f016020809104026020016040519081016040528092919081815260200182805461181a9061325d565b80156118655780601f1061183c57610100808354040283529160200191611865565b820191905f5260205f20905b81548152906001019060200180831161184857829003601f168201915b5050505050908060040154908060050154908060060180546118869061325d565b80601f01602080910402602001604051908101604052809291908181526020018280546118b29061325d565b80156118fd5780601f106118d4576101008083540402835291602001916118fd565b820191905f5260205f20905b8154815290600101906020018083116118e057829003601f168201915b505050505090806007015f9054906101000a900460ff1690806008015490508a565b600260019054906101000a900473ffffffffffffffffffffffffffffffffffffffff1681565b606060055f8373ffffffffffffffffffffffffffffffffffffffff1673ffffffffffffffffffffffffffffffffffffffff1681526020019081526020015f208054806020026020016040519081016040528092919081815260200182805480156119cc57602002820191905f5260205f20905b8154815260200190600101908083116119b8575b50505050509050919050565b6119e0611d06565b5f73ffffffffffffffffffffffffffffffffffffffff168173ffffffffffffffffffffffffffffffffffffffff1603611a4e576040517f08c379a0000000000000000000000000000000000000000000000000000000008152600401611a459061362c565b60405180910390fd5b80600a5f6101000a81548173ffffffffffffffffffffffffffffffffffffffff021916908373ffffffffffffffffffffffffffffffffffffffff16021790555050565b611a99611d06565b5f73ffffffffffffffffffffffffffffffffffffffff168173ffffffffffffffffffffffffffffffffffffffff1603611b09575f6040517f1e4fbdf7000000000000000000000000000000000000000000000000000000008152600401611b00919061214b565b60405180910390fd5b611b1281611e7e565b50565b5f60035f8581526020019081526020015f2090503373ffffffffffffffffffffffffffffffffffffffff16816001015f9054906101000a900473ffffffffffffffffffffffffffffffffffffffff1673ffffffffffffffffffffffffffffffffffffffff1614611bba576040517f08c379a0000000000000000000000000000000000000000000000000000000008152600401611bb190612cdc565b60405180910390fd5b5f6002811115611bcd57611bcc61263f565b5b816007015f9054906101000a900460ff166002811115611bf057611bef61263f565b5b14611c30576040517f08c379a0000000000000000000000000000000000000000000000000000000008152600401611c2790612d44565b60405180910390fd5b5f8211611c72576040517f08c379a0000000000000000000000000000000000000000000000000000000008152600401611c6990613142565b60405180910390fd5b5f8311611cb4576040517f08c379a0000000000000000000000000000000000000000000000000000000008152600401611cab906131aa565b60405180910390fd5b828160050181905550818160040181905550837ff7adc9a0380a940c6058d78194df6a9b9fa5bb431bbad15194913bb611f3f4f78484604051611cf89291906130d1565b60405180910390a250505050565b611d0e611fa1565b73ffffffffffffffffffffffffffffffffffffffff16611d2c610ce4565b73ffffffffffffffffffffffffffffffffffffffff1614611d8b57611d4f611fa1565b6040517f118cdaa7000000000000000000000000000000000000000000000000000000008152600401611d82919061214b565b60405180910390fd5b565b611d95611fa8565b5f60025f6101000a81548160ff0219169083151502179055507f5db9ee0a495bf2e6ff9c91a7834c1ba4fdd244a5e8aa4e537bd38aeae4b073aa611dd7611fa1565b604051611de4919061214b565b60405180910390a1565b600260015403611e2a576040517f3ee5aeb500000000000000000000000000000000000000000000000000000000815260040160405180910390fd5b6002600181905550565b611e3c610c03565b15611e73576040517fd93c066500000000000000000000000000000000000000000000000000000000815260040160405180910390fd5b565b60018081905550565b5f5f5f9054906101000a900473ffffffffffffffffffffffffffffffffffffffff169050815f5f6101000a81548173ffffffffffffffffffffffffffffffffffffffff021916908373ffffffffffffffffffffffffffffffffffffffff1602179055508173ffffffffffffffffffffffffffffffffffffffff168173ffffffffffffffffffffffffffffffffffffffff167f8be0079c531659141344cd1fd0a4f28419497f9722a3daafe3b4186f6b6457e060405160405180910390a35050565b611f47611e34565b600160025f6101000a81548160ff0219169083151502179055507f62e78cea01bee320cd4e420270b5ea74000d11b0c9f74754ebdbfc544b05a258611f8a611fa1565b604051611f97919061214b565b60405180910390a1565b5f33905090565b611fb0610c03565b611fe6576040517f8dfc202b00000000000000000000000000000000000000000000000000000000815260040160405180910390fd5b565b6040518061016001604052805f81526020015f73ffffffffffffffffffffffffffffffffffffffff1681526020015f60058111156120295761202861263f565b5b815260200160608152602001606081526020015f81526020015f8152602001606081526020015f60028111156120625761206161263f565b5b81526020015f8152602001606081525090565b5f819050919050565b61208781612075565b82525050565b5f6020820190506120a05f83018461207e565b92915050565b5f604051905090565b5f5ffd5b5f5ffd5b6120c081612075565b81146120ca575f5ffd5b50565b5f813590506120db816120b7565b92915050565b5f602082840312156120f6576120f56120af565b5b5f612103848285016120cd565b91505092915050565b5f73ffffffffffffffffffffffffffffffffffffffff82169050919050565b5f6121358261210c565b9050919050565b6121458161212b565b82525050565b5f60208201905061215e5f83018461213c565b92915050565b5f5f6040838503121561217a576121796120af565b5b5f612187858286016120cd565b9250506020612198858286016120cd565b9150509250929050565b5f8115159050919050565b6121b6816121a2565b82525050565b5f6020820190506121cf5f8301846121ad565b92915050565b5f60e0820190506121e85f83018a61207e565b6121f5602083018961207e565b612202604083018861213c565b61220f606083018761213c565b61221c608083018661207e565b61222960a083018561207e565b61223660c083018461207e565b98975050505050505050565b61224b8161212b565b8114612255575f5ffd5b50565b5f8135905061226681612242565b92915050565b5f5f60408385031215612282576122816120af565b5b5f61228f85828601612258565b92505060206122a0858286016120cd565b9150509250929050565b600681106122b6575f5ffd5b50565b5f813590506122c7816122aa565b92915050565b5f5ffd5b5f5ffd5b5f601f19601f8301169050919050565b7f4e487b71000000000000000000000000000000000000000000000000000000005f52604160045260245ffd5b61231b826122d5565b810181811067ffffffffffffffff8211171561233a576123396122e5565b5b80604052505050565b5f61234c6120a6565b90506123588282612312565b919050565b5f67ffffffffffffffff821115612377576123766122e5565b5b612380826122d5565b9050602081019050919050565b828183375f83830152505050565b5f6123ad6123a88461235d565b612343565b9050828152602081018484840111156123c9576123c86122d1565b5b6123d484828561238d565b509392505050565b5f82601f8301126123f0576123ef6122cd565b5b813561240084826020860161239b565b91505092915050565b5f67ffffffffffffffff821115612423576124226122e5565b5b602082029050602081019050919050565b5f5ffd5b5f61244a61244584612409565b612343565b9050808382526020820190506020840283018581111561246d5761246c612434565b5b835b818110156124b457803567ffffffffffffffff811115612492576124916122cd565b5b80860161249f89826123dc565b8552602085019450505060208101905061246f565b5050509392505050565b5f82601f8301126124d2576124d16122cd565b5b81356124e2848260208601612438565b91505092915050565b5f5f5f5f5f5f5f60e0888a031215612506576125056120af565b5b5f6125138a828b016122b9565b975050602088013567ffffffffffffffff811115612534576125336120b3565b5b6125408a828b016123dc565b965050604088013567ffffffffffffffff811115612561576125606120b3565b5b61256d8a828b016123dc565b955050606061257e8a828b016120cd565b945050608061258f8a828b016120cd565b93505060a088013567ffffffffffffffff8111156125b0576125af6120b3565b5b6125bc8a828b016123dc565b92505060c088013567ffffffffffffffff8111156125dd576125dc6120b3565b5b6125e98a828b016124be565b91505092959891949750929550565b5f81519050919050565b5f82825260208201905092915050565b5f819050602082019050919050565b61262a81612075565b82525050565b6126398161212b565b82525050565b7f4e487b71000000000000000000000000000000000000000000000000000000005f52602160045260245ffd5b6006811061267d5761267c61263f565b5b50565b5f81905061268d8261266c565b919050565b5f61269c82612680565b9050919050565b6126ac81612692565b82525050565b5f81519050919050565b5f82825260208201905092915050565b8281835e5f83830152505050565b5f6126e4826126b2565b6126ee81856126bc565b93506126fe8185602086016126cc565b612707816122d5565b840191505092915050565b600381106127235761272261263f565b5b50565b5f81905061273382612712565b919050565b5f61274282612726565b9050919050565b61275281612738565b82525050565b5f81519050919050565b5f82825260208201905092915050565b5f819050602082019050919050565b5f61278c83836126da565b905092915050565b5f602082019050919050565b5f6127aa82612758565b6127b48185612762565b9350836020820285016127c685612772565b805f5b8581101561280157848403895281516127e28582612781565b94506127ed83612794565b925060208a019950506001810190506127c9565b50829750879550505050505092915050565b5f61016083015f8301516128295f860182612621565b50602083015161283c6020860182612630565b50604083015161284f60408601826126a3565b506060830151848203606086015261286782826126da565b9150506080830151848203608086015261288182826126da565b91505060a083015161289660a0860182612621565b5060c08301516128a960c0860182612621565b5060e083015184820360e08601526128c182826126da565b9150506101008301516128d8610100860182612749565b506101208301516128ed610120860182612621565b5061014083015184820361014086015261290782826127a0565b9150508091505092915050565b5f61291f8383612813565b905092915050565b5f602082019050919050565b5f61293d826125f8565b6129478185612602565b93508360208202850161295985612612565b805f5b8581101561299457848403895281516129758582612914565b945061298083612927565b925060208a0199505060018101905061295c565b50829750879550505050505092915050565b5f6020820190508181035f8301526129be8184612933565b905092915050565b5f602082840312156129db576129da6120af565b5b5f6129e884828501612258565b91505092915050565b5f81519050919050565b5f82825260208201905092915050565b5f819050602082019050919050565b5f612a258383612621565b60208301905092915050565b5f602082019050919050565b5f612a47826129f1565b612a5181856129fb565b9350612a5c83612a0b565b805f5b83811015612a8c578151612a738882612a1a565b9750612a7e83612a31565b925050600181019050612a5f565b5085935050505092915050565b5f6020820190508181035f830152612ab18184612a3d565b905092915050565b612ac281612692565b82525050565b5f82825260208201905092915050565b5f612ae2826126b2565b612aec8185612ac8565b9350612afc8185602086016126cc565b612b05816122d5565b840191505092915050565b612b1981612738565b82525050565b5f61014082019050612b335f83018d61207e565b612b40602083018c61213c565b612b4d604083018b612ab9565b8181036060830152612b5f818a612ad8565b90508181036080830152612b738189612ad8565b9050612b8260a083018861207e565b612b8f60c083018761207e565b81810360e0830152612ba18186612ad8565b9050612bb1610100830185612b10565b612bbf61012083018461207e565b9b9a5050505050505050505050565b5f819050919050565b5f612bf1612bec612be78461210c565b612bce565b61210c565b9050919050565b5f612c0282612bd7565b9050919050565b5f612c1382612bf8565b9050919050565b612c2381612c09565b82525050565b5f602082019050612c3c5f830184612c1a565b92915050565b5f5f5f60608486031215612c5957612c586120af565b5b5f612c66868287016120cd565b9350506020612c77868287016120cd565b9250506040612c88868287016120cd565b9150509250925092565b7f4e6f74207468652073656c6c65720000000000000000000000000000000000005f82015250565b5f612cc6600e83612ac8565b9150612cd182612c92565b602082019050919050565b5f6020820190508181035f830152612cf381612cba565b9050919050565b7f4c697374696e67206e6f742061637469766500000000000000000000000000005f82015250565b5f612d2e601283612ac8565b9150612d3982612cfa565b602082019050919050565b5f6020820190508181035f830152612d5b81612d22565b9050919050565b7f43616e6e6f742062757920796f7572206f776e206c697374696e6700000000005f82015250565b5f612d96601b83612ac8565b9150612da182612d62565b602082019050919050565b5f6020820190508181035f830152612dc381612d8a565b9050919050565b7f496e76616c6964207175616e74697479000000000000000000000000000000005f82015250565b5f612dfe601083612ac8565b9150612e0982612dca565b602082019050919050565b5f6020820190508181035f830152612e2b81612df2565b9050919050565b7f4e487b71000000000000000000000000000000000000000000000000000000005f52601160045260245ffd5b5f612e6982612075565b9150612e7483612075565b9250828202612e8281612075565b91508282048414831517612e9957612e98612e32565b5b5092915050565b7f4e487b71000000000000000000000000000000000000000000000000000000005f52601260045260245ffd5b5f612ed782612075565b9150612ee283612075565b925082612ef257612ef1612ea0565b5b828204905092915050565b5f612f0782612075565b9150612f1283612075565b9250828203905081811115612f2a57612f29612e32565b5b92915050565b5f606082019050612f435f83018661213c565b612f50602083018561213c565b612f5d604083018461207e565b949350505050565b612f6e816121a2565b8114612f78575f5ffd5b50565b5f81519050612f8981612f65565b92915050565b5f60208284031215612fa457612fa36120af565b5b5f612fb184828501612f7b565b91505092915050565b7f5472616e7366657220746f2073656c6c6572206661696c6564000000000000005f82015250565b5f612fee601983612ac8565b9150612ff982612fba565b602082019050919050565b5f6020820190508181035f83015261301b81612fe2565b9050919050565b7f506c6174666f726d20666565207472616e73666572206661696c6564000000005f82015250565b5f613056601c83612ac8565b915061306182613022565b602082019050919050565b5f6020820190508181035f8301526130838161304a565b9050919050565b5f61309482612075565b91507fffffffffffffffffffffffffffffffffffffffffffffffffffffffffffffffff82036130c6576130c5612e32565b5b600182019050919050565b5f6040820190506130e45f83018561207e565b6130f1602083018461207e565b9392505050565b7f5175616e74697479206d7573742062652067726561746572207468616e2030005f82015250565b5f61312c601f83612ac8565b9150613137826130f8565b602082019050919050565b5f6020820190508181035f83015261315981613120565b9050919050565b7f5072696365206d7573742062652067726561746572207468616e2030000000005f82015250565b5f613194601c83612ac8565b915061319f82613160565b602082019050919050565b5f6020820190508181035f8301526131c181613188565b9050919050565b7f5469746c652063616e6e6f7420626520656d70747900000000000000000000005f82015250565b5f6131fc601583612ac8565b9150613207826131c8565b602082019050919050565b5f6020820190508181035f830152613229816131f0565b9050919050565b7f4e487b71000000000000000000000000000000000000000000000000000000005f52602260045260245ffd5b5f600282049050600182168061327457607f821691505b60208210810361328757613286613230565b5b50919050565b5f819050815f5260205f209050919050565b5f6020601f8301049050919050565b5f82821b905092915050565b5f600883026132e97fffffffffffffffffffffffffffffffffffffffffffffffffffffffffffffffff826132ae565b6132f386836132ae565b95508019841693508086168417925050509392505050565b5f61332561332061331b84612075565b612bce565b612075565b9050919050565b5f819050919050565b61333e8361330b565b61335261334a8261332c565b8484546132ba565b825550505050565b5f5f905090565b61336961335a565b613374818484613335565b505050565b5b818110156133975761338c5f82613361565b60018101905061337a565b5050565b601f8211156133dc576133ad8161328d565b6133b68461329f565b810160208510156133c5578190505b6133d96133d18561329f565b830182613379565b50505b505050565b5f82821c905092915050565b5f6133fc5f19846008026133e1565b1980831691505092915050565b5f61341483836133ed565b9150826002028217905092915050565b61342d826126b2565b67ffffffffffffffff811115613446576134456122e5565b5b613450825461325d565b61345b82828561339b565b5f60209050601f83116001811461348c575f841561347a578287015190505b6134848582613409565b8655506134eb565b601f19841661349a8661328d565b5f5b828110156134c15784890151825560018201915060208501945060208101905061349c565b868310156134de57848901516134da601f8916826133ed565b8355505b6001600288020188555050505b505050505050565b7f4e487b71000000000000000000000000000000000000000000000000000000005f52603260045260245ffd5b5f6040820190506135335f830185612ab9565b613540602083018461207e565b9392505050565b7f4665652063616e6e6f74206578636565642031302500000000000000000000005f82015250565b5f61357b601583612ac8565b915061358682613547565b602082019050919050565b5f6020820190508181035f8301526135a88161356f565b9050919050565b5f6135b982612075565b91506135c483612075565b92508282019050808211156135dc576135db612e32565b5b92915050565b7f496e76616c6964206164647265737300000000000000000000000000000000005f82015250565b5f613616600f83612ac8565b9150613621826135e2565b602082019050919050565b5f6020820190508181035f8301526136438161360a565b905091905056fea264697066735822122048029e623ff23d5bd81b5db77c4badf986c06c4b8c1ef97875134bf98486da8f64736f6c634300081e0033","linkReferences":{}},"methodIdentifiers":{"cancelListing(uint256)":"305a67a8","createListing(uint8,string,string,uint256,uint256,string,string[])":"a6019a26","feeRecipient()":"46904840","getActiveListings(uint256,uint256)":"c128b231","getUserListings(address)":"eb18a9d8","getUserPurchases(address)":"c6e5d8f6","listings(uint256)":"de74e57b","nextListingId()":"aaccf1ec","nextPurchaseId()":"23b4a7a3","owner()":"8da5cb5b","pause()":"8456cb59","paused()":"5c975abb","platformFeePercentage()":"cdd78cfc","purchaseMaterial(uint256,uint256)":"59386f18","purchases(uint256)":"8392fe31","renounceOwnership()":"715018a6","sortifyToken()":"e5d0088f","transferOwnership(address)":"f2fde38b","unpause()":"3f4ba83a","updateFeeRecipient(address)":"f160d369","updateListing(uint256,uint256,uint256)":"f6cf2a16","updatePlatformFee(uint256)":"aa0b5988","userListings(address,uint256)":"86cfa7d3","userPurchases(address,uint256)":"cf2c0334"},"id":41}